{"contracts/fundMe.sol":{"FundMe":{"abi":[{"inputs":[{"internalType":"contract AggregatorV3Interface","name":"s_priceFeedAddress","type":"address"}],"stateMutability":"nonpayable","type":"constructor"},{"inputs":[],"name":"FundMe__NotOwner","type":"error"},{"stateMutability":"payable","type":"fallback"},{"inputs":[],"name":"MINIMUM_USD","outputs":[{"internalType":"uint256","name":"","type":"uint256"}],"stateMutability":"view","type":"function"},{"inputs":[],"name":"cheaper_withdraw","outputs":[],"stateMutability":"nonpayable","type":"function"},{"inputs":[],"name":"fund","outputs":[],"stateMutability":"payable","type":"function"},{"inputs":[{"internalType":"address","name":"funder","type":"address"}],"name":"getFundAmount","outputs":[{"internalType":"uint256","name":"","type":"uint256"}],"stateMutability":"view","type":"function"},{"inputs":[],"name":"getLength","outputs":[{"internalType":"uint256","name":"","type":"uint256"}],"stateMutability":"view","type":"function"},{"inputs":[],"name":"i_owner","outputs":[{"internalType":"address","name":"","type":"address"}],"stateMutability":"view","type":"function"},{"inputs":[{"internalType":"address","name":"","type":"address"}],"name":"s_addressToAmountFunded","outputs":[{"internalType":"uint256","name":"","type":"uint256"}],"stateMutability":"view","type":"function"},{"inputs":[{"internalType":"uint256","name":"","type":"uint256"}],"name":"s_funders","outputs":[{"internalType":"address","name":"","type":"address"}],"stateMutability":"view","type":"function"},{"inputs":[],"name":"s_priceFeed","outputs":[{"internalType":"contract AggregatorV3Interface","name":"","type":"address"}],"stateMutability":"view","type":"function"},{"inputs":[],"name":"withdraw","outputs":[],"stateMutability":"nonpayable","type":"function"},{"stateMutability":"payable","type":"receive"}],"evm":{"bytecode":{"linkReferences":{},"object":"60806040523480156200001157600080fd5b506040516200187f3803806200187f833981810160405281019062000037919062000195565b6200005367074b2a97788fc99760c01b6200011460201b60201c565b6200006f67bdd52a87a1b300a260c01b6200011460201b60201c565b33600260006101000a81548173ffffffffffffffffffffffffffffffffffffffff021916908373ffffffffffffffffffffffffffffffffffffffff160217905550620000cc67cd19f8271df1157260c01b6200011460201b60201c565b80600360006101000a81548173ffffffffffffffffffffffffffffffffffffffff021916908373ffffffffffffffffffffffffffffffffffffffff16021790555050620001c7565b50565b600080fd5b600073ffffffffffffffffffffffffffffffffffffffff82169050919050565b600062000149826200011c565b9050919050565b60006200015d826200013c565b9050919050565b6200016f8162000150565b81146200017b57600080fd5b50565b6000815190506200018f8162000164565b92915050565b600060208284031215620001ae57620001ad62000117565b5b6000620001be848285016200017e565b91505092915050565b6116a880620001d76000396000f3fe6080604052600436106100955760003560e01c806360d727b21161005957806360d727b2146101855780636b69a592146101c2578063b60d4288146101ed578063be1c766b146101f7578063dba6335f146102225761009c565b80630ec3b027146100b25780631bf6132d146100dd5780633ccfd60b1461011a57806351a26fdc1461013157806354861af7146101485761009c565b3661009c57005b6100b0670cec1c256fe4a42760c01b61024d565b005b3480156100be57600080fd5b506100c7610250565b6040516100d491906110d6565b60405180910390f35b3480156100e957600080fd5b5061010460048036038101906100ff9190611134565b610276565b604051610111919061117a565b60405180910390f35b34801561012657600080fd5b5061012f61028e565b005b34801561013d57600080fd5b50610146610673565b005b34801561015457600080fd5b5061016f600480360381019061016a91906111c1565b610ae5565b60405161017c91906111fd565b60405180910390f35b34801561019157600080fd5b506101ac60048036038101906101a79190611134565b610b24565b6040516101b9919061117a565b60405180910390f35b3480156101ce57600080fd5b506101d7610ba8565b6040516101e4919061117a565b60405180910390f35b6101f5610bad565b005b34801561020357600080fd5b5061020c610d7f565b604051610219919061117a565b60405180910390f35b34801561022e57600080fd5b50610237610dc8565b60405161024491906111fd565b60405180910390f35b50565b600360009054906101000a900473ffffffffffffffffffffffffffffffffffffffff1681565b60006020528060005260406000206000915090505481565b6102a1664ea5020047bf9260c01b61024d565b6102b567266eb5582fc3837760c01b61024d565b6102c96739a4fd05097899f860c01b61024d565b6102dd67538c0c3529bec8b760c01b61024d565b600260009054906101000a900473ffffffffffffffffffffffffffffffffffffffff1673ffffffffffffffffffffffffffffffffffffffff163373ffffffffffffffffffffffffffffffffffffffff16146103785761034667a9d071dc93898e3360c01b61024d565b6040517f579610db00000000000000000000000000000000000000000000000000000000815260040160405180910390fd5b61038c67d64138bbac1b371e60c01b61024d565b6103a067fcd1cadc98b527e860c01b61024d565b6103b467e99a05c14e5e30e560c01b61024d565b6103c867ac31fd88715a6d0b60c01b61024d565b6103dc671cd50c3eb916c56060c01b61024d565b6103f0671891b3f722a75d3160c01b61024d565b60005b6001805490508110156104d75761041467ee7f0dcd0e4e6fb960c01b61024d565b61042867a6373051e4c0d80960c01b61024d565b60006001828154811061043e5761043d611218565b5b9060005260206000200160009054906101000a900473ffffffffffffffffffffffffffffffffffffffff16905061047f6768dd6ba558e1275660c01b61024d565b60008060008373ffffffffffffffffffffffffffffffffffffffff1673ffffffffffffffffffffffffffffffffffffffff168152602001908152602001600020819055505080806104cf90611276565b9150506103f3565b506104ec67e58fc054bb9bd4dd60c01b61024d565b600067ffffffffffffffff811115610507576105066112be565b5b6040519080825280602002602001820160405280156105355781602001602082028036833780820191505090505b506001908051906020019061054b929190610fb0565b506105606775300350a5337ac960c01b61024d565b61057467ae0e5776550686d260c01b61024d565b60003373ffffffffffffffffffffffffffffffffffffffff164760405161059a9061131e565b60006040518083038185875af1925050503d80600081146105d7576040519150601f19603f3d011682016040523d82523d6000602084013e6105dc565b606091505b505090506105f4676a56e434a304997860c01b61024d565b61060867da1f515f6bb3d5bd60c01b61024d565b61061c6744ba9c0da172dd3c60c01b61024d565b8061065c576040517f08c379a000000000000000000000000000000000000000000000000000000000815260040161065390611390565b60405180910390fd5b61067067c18ce6ca9f55813760c01b61024d565b50565b61068767f9fefa3dc26b05dc60c01b61024d565b61069b67266eb5582fc3837760c01b61024d565b6106af6739a4fd05097899f860c01b61024d565b6106c367538c0c3529bec8b760c01b61024d565b600260009054906101000a900473ffffffffffffffffffffffffffffffffffffffff1673ffffffffffffffffffffffffffffffffffffffff163373ffffffffffffffffffffffffffffffffffffffff161461075e5761072c67a9d071dc93898e3360c01b61024d565b6040517f579610db00000000000000000000000000000000000000000000000000000000815260040160405180910390fd5b61077267d64138bbac1b371e60c01b61024d565b61078667fcd1cadc98b527e860c01b61024d565b61079a67c6ebac703ed19c3360c01b61024d565b6107ae67c9ebf578b769a90d60c01b61024d565b6107c26763797d43f21356ae60c01b61024d565b6107d6671f432f6bdffd00fc60c01b61024d565b6000600180548060200260200160405190810160405280929190818152602001828054801561085a57602002820191906000526020600020905b8160009054906101000a900473ffffffffffffffffffffffffffffffffffffffff1673ffffffffffffffffffffffffffffffffffffffff1681526020019060010190808311610810575b505050505090506108756785ecc379acb84e9860c01b61024d565b61088967116e77297fb7728460c01b61024d565b60005b8151811015610948576108a9678200ba1eefd9b43c60c01b61024d565b6108bd6774ab8604e618038660c01b61024d565b60008282815181106108d2576108d1611218565b5b602002602001015190506108f0677e655868cb8909d860c01b61024d565b60008060008373ffffffffffffffffffffffffffffffffffffffff1673ffffffffffffffffffffffffffffffffffffffff1681526020019081526020016000208190555050808061094090611276565b91505061088c565b5061095d676f45e2128173532660c01b61024d565b600067ffffffffffffffff811115610978576109776112be565b5b6040519080825280602002602001820160405280156109a65781602001602082028036833780820191505090505b50600190805190602001906109bc929190610fb0565b506109d167ef80e0c3f1468d8760c01b61024d565b6109e567b8bfe5beedfa8f3060c01b61024d565b60003373ffffffffffffffffffffffffffffffffffffffff1647604051610a0b9061131e565b60006040518083038185875af1925050503d8060008114610a48576040519150601f19603f3d011682016040523d82523d6000602084013e610a4d565b606091505b50509050610a6567b96eb43424badb8760c01b61024d565b610a7967a5970817f347df2560c01b61024d565b610a8d67169cf0ef43bc63ca60c01b61024d565b80610acd576040517f08c379a0000000000000000000000000000000000000000000000000000000008152600401610ac490611390565b60405180910390fd5b610ae1672bb07fd2dba97f9d60c01b61024d565b5050565b60018181548110610af557600080fd5b906000526020600020016000915054906101000a900473ffffffffffffffffffffffffffffffffffffffff1681565b6000610b3a6785c98c72e6f4dc4260c01b61024d565b610b4e67545551fd41418a7a60c01b61024d565b610b6267503163db0866536b60c01b61024d565b6000808373ffffffffffffffffffffffffffffffffffffffff1673ffffffffffffffffffffffffffffffffffffffff168152602001908152602001600020549050919050565b603281565b610bc167857caebd28228e8b60c01b61024d565b610bd5675c80d6349a0bb51d60c01b61024d565b610be96749ad1ac8fd2a70d960c01b61024d565b610bfd677ce4f212c6fd161060c01b61024d565b6032610c34600360009054906101000a900473ffffffffffffffffffffffffffffffffffffffff1634610dee90919063ffffffff16565b1015610c75576040517f08c379a0000000000000000000000000000000000000000000000000000000008152600401610c6c906113fc565b60405180910390fd5b610c8967e664317fd4f8367760c01b61024d565b610c9d67055b912a05ecede860c01b61024d565b346000803373ffffffffffffffffffffffffffffffffffffffff1673ffffffffffffffffffffffffffffffffffffffff1681526020019081526020016000206000828254610ceb919061141c565b92505081905550610d0667455a8550b51a011b60c01b61024d565b610d1a67a0ac60c2c283211d60c01b61024d565b6001339080600181540180825580915050600190039060005260206000200160009091909190916101000a81548173ffffffffffffffffffffffffffffffffffffffff021916908373ffffffffffffffffffffffffffffffffffffffff160217905550565b6000610d9567c561a3c088f46a7b60c01b61024d565b610da967fa8c5ba8e02fe5bc60c01b61024d565b610dbd67ffc66c4e922a8b8060c01b61024d565b600180549050905090565b600260009054906101000a900473ffffffffffffffffffffffffffffffffffffffff1681565b6000610e0467414ea1bc7915706660c01b610eb7565b610e1867f0053203b64c42f460c01b610eb7565b610e2c6771ef9770629731ef60c01b610eb7565b6000610e3783610eba565b9050610e4d6777ab262b065b3cec60c01b610eb7565b610e6167de4c4e43a1149a4760c01b610eb7565b6000670de0b6b3a76400008583610e789190611450565b610e8291906114c1565b9050610e98674a58e0cc080f926c60c01b610eb7565b610eac67c74ec6677f2adebf60c01b610eb7565b809250505092915050565b50565b6000610ed0674fd91b31a4ab5f3660c01b610eb7565b610ee467e1cb3ea677edc74f60c01b610eb7565b610ef8671f98178f94a988c460c01b610eb7565b60008273ffffffffffffffffffffffffffffffffffffffff1663feaf968c6040518163ffffffff1660e01b815260040160a060405180830381865afa158015610f45573d6000803e3d6000fd5b505050506040513d601f19601f82011682018060405250810190610f69919061157f565b505050915050610f8367ce51a00eb0aa02e160c01b610eb7565b610f976718c6f17071973d5e60c01b610eb7565b6402540be40081610fa891906115fa565b915050919050565b828054828255906000526020600020908101928215611029579160200282015b828111156110285782518260006101000a81548173ffffffffffffffffffffffffffffffffffffffff021916908373ffffffffffffffffffffffffffffffffffffffff16021790555091602001919060010190610fd0565b5b509050611036919061103a565b5090565b5b8082111561105357600081600090555060010161103b565b5090565b600073ffffffffffffffffffffffffffffffffffffffff82169050919050565b6000819050919050565b600061109c61109761109284611057565b611077565b611057565b9050919050565b60006110ae82611081565b9050919050565b60006110c0826110a3565b9050919050565b6110d0816110b5565b82525050565b60006020820190506110eb60008301846110c7565b92915050565b600080fd5b600061110182611057565b9050919050565b611111816110f6565b811461111c57600080fd5b50565b60008135905061112e81611108565b92915050565b60006020828403121561114a576111496110f1565b5b60006111588482850161111f565b91505092915050565b6000819050919050565b61117481611161565b82525050565b600060208201905061118f600083018461116b565b92915050565b61119e81611161565b81146111a957600080fd5b50565b6000813590506111bb81611195565b92915050565b6000602082840312156111d7576111d66110f1565b5b60006111e5848285016111ac565b91505092915050565b6111f7816110f6565b82525050565b600060208201905061121260008301846111ee565b92915050565b7f4e487b7100000000000000000000000000000000000000000000000000000000600052603260045260246000fd5b7f4e487b7100000000000000000000000000000000000000000000000000000000600052601160045260246000fd5b600061128182611161565b91507fffffffffffffffffffffffffffffffffffffffffffffffffffffffffffffffff82036112b3576112b2611247565b5b600182019050919050565b7f4e487b7100000000000000000000000000000000000000000000000000000000600052604160045260246000fd5b600081905092915050565b50565b60006113086000836112ed565b9150611313826112f8565b600082019050919050565b6000611329826112fb565b9150819050919050565b600082825260208201905092915050565b7f43616c6c206661696c6564000000000000000000000000000000000000000000600082015250565b600061137a600b83611333565b915061138582611344565b602082019050919050565b600060208201905081810360008301526113a98161136d565b9050919050565b7f596f75206e65656420746f207370656e64206d6f726520455448210000000000600082015250565b60006113e6601b83611333565b91506113f1826113b0565b602082019050919050565b60006020820190508181036000830152611415816113d9565b9050919050565b600061142782611161565b915061143283611161565b925082820190508082111561144a57611449611247565b5b92915050565b600061145b82611161565b915061146683611161565b925082820261147481611161565b9150828204841483151761148b5761148a611247565b5b5092915050565b7f4e487b7100000000000000000000000000000000000000000000000000000000600052601260045260246000fd5b60006114cc82611161565b91506114d783611161565b9250826114e7576114e6611492565b5b828204905092915050565b600069ffffffffffffffffffff82169050919050565b611511816114f2565b811461151c57600080fd5b50565b60008151905061152e81611508565b92915050565b6000819050919050565b61154781611534565b811461155257600080fd5b50565b6000815190506115648161153e565b92915050565b60008151905061157981611195565b92915050565b600080600080600060a0868803121561159b5761159a6110f1565b5b60006115a98882890161151f565b95505060206115ba88828901611555565b94505060406115cb8882890161156a565b93505060606115dc8882890161156a565b92505060806115ed8882890161151f565b9150509295509295909350565b600061160582611534565b915061161083611534565b925082820261161e81611534565b91507f8000000000000000000000000000000000000000000000000000000000000000841460008412161561165657611655611247565b5b828205841483151761166b5761166a611247565b5b509291505056fea2646970667358221220e183cd52b0c910775caa02139de8847f018cb8e096c434cd02adbdeeb26106c664736f6c63430008120033","opcodes":"PUSH1 0x80 PUSH1 0x40 MSTORE CALLVALUE DUP1 ISZERO PUSH3 0x11 JUMPI PUSH1 0x0 DUP1 REVERT JUMPDEST POP PUSH1 0x40 MLOAD PUSH3 0x187F CODESIZE SUB DUP1 PUSH3 0x187F DUP4 CODECOPY DUP2 DUP2 ADD PUSH1 0x40 MSTORE DUP2 ADD SWAP1 PUSH3 0x37 SWAP2 SWAP1 PUSH3 0x195 JUMP JUMPDEST PUSH3 0x53 PUSH8 0x74B2A97788FC997 PUSH1 0xC0 SHL PUSH3 0x114 PUSH1 0x20 SHL PUSH1 0x20 SHR JUMP JUMPDEST PUSH3 0x6F PUSH8 0xBDD52A87A1B300A2 PUSH1 0xC0 SHL PUSH3 0x114 PUSH1 0x20 SHL PUSH1 0x20 SHR JUMP JUMPDEST CALLER PUSH1 0x2 PUSH1 0x0 PUSH2 0x100 EXP DUP2 SLOAD DUP2 PUSH20 0xFFFFFFFFFFFFFFFFFFFFFFFFFFFFFFFFFFFFFFFF MUL NOT AND SWAP1 DUP4 PUSH20 0xFFFFFFFFFFFFFFFFFFFFFFFFFFFFFFFFFFFFFFFF AND MUL OR SWAP1 SSTORE POP PUSH3 0xCC PUSH8 0xCD19F8271DF11572 PUSH1 0xC0 SHL PUSH3 0x114 PUSH1 0x20 SHL PUSH1 0x20 SHR JUMP JUMPDEST DUP1 PUSH1 0x3 PUSH1 0x0 PUSH2 0x100 EXP DUP2 SLOAD DUP2 PUSH20 0xFFFFFFFFFFFFFFFFFFFFFFFFFFFFFFFFFFFFFFFF MUL NOT AND SWAP1 DUP4 PUSH20 0xFFFFFFFFFFFFFFFFFFFFFFFFFFFFFFFFFFFFFFFF AND MUL OR SWAP1 SSTORE POP POP PUSH3 0x1C7 JUMP JUMPDEST POP JUMP JUMPDEST PUSH1 0x0 DUP1 REVERT JUMPDEST PUSH1 0x0 PUSH20 0xFFFFFFFFFFFFFFFFFFFFFFFFFFFFFFFFFFFFFFFF DUP3 AND SWAP1 POP SWAP2 SWAP1 POP JUMP JUMPDEST PUSH1 0x0 PUSH3 0x149 DUP3 PUSH3 0x11C JUMP JUMPDEST SWAP1 POP SWAP2 SWAP1 POP JUMP JUMPDEST PUSH1 0x0 PUSH3 0x15D DUP3 PUSH3 0x13C JUMP JUMPDEST SWAP1 POP SWAP2 SWAP1 POP JUMP JUMPDEST PUSH3 0x16F DUP2 PUSH3 0x150 JUMP JUMPDEST DUP2 EQ PUSH3 0x17B JUMPI PUSH1 0x0 DUP1 REVERT JUMPDEST POP JUMP JUMPDEST PUSH1 0x0 DUP2 MLOAD SWAP1 POP PUSH3 0x18F DUP2 PUSH3 0x164 JUMP JUMPDEST SWAP3 SWAP2 POP POP JUMP JUMPDEST PUSH1 0x0 PUSH1 0x20 DUP3 DUP5 SUB SLT ISZERO PUSH3 0x1AE JUMPI PUSH3 0x1AD PUSH3 0x117 JUMP JUMPDEST JUMPDEST PUSH1 0x0 PUSH3 0x1BE DUP5 DUP3 DUP6 ADD PUSH3 0x17E JUMP JUMPDEST SWAP2 POP POP SWAP3 SWAP2 POP POP JUMP JUMPDEST PUSH2 0x16A8 DUP1 PUSH3 0x1D7 PUSH1 0x0 CODECOPY PUSH1 0x0 RETURN INVALID PUSH1 0x80 PUSH1 0x40 MSTORE PUSH1 0x4 CALLDATASIZE LT PUSH2 0x95 JUMPI PUSH1 0x0 CALLDATALOAD PUSH1 0xE0 SHR DUP1 PUSH4 0x60D727B2 GT PUSH2 0x59 JUMPI DUP1 PUSH4 0x60D727B2 EQ PUSH2 0x185 JUMPI DUP1 PUSH4 0x6B69A592 EQ PUSH2 0x1C2 JUMPI DUP1 PUSH4 0xB60D4288 EQ PUSH2 0x1ED JUMPI DUP1 PUSH4 0xBE1C766B EQ PUSH2 0x1F7 JUMPI DUP1 PUSH4 0xDBA6335F EQ PUSH2 0x222 JUMPI PUSH2 0x9C JUMP JUMPDEST DUP1 PUSH4 0xEC3B027 EQ PUSH2 0xB2 JUMPI DUP1 PUSH4 0x1BF6132D EQ PUSH2 0xDD JUMPI DUP1 PUSH4 0x3CCFD60B EQ PUSH2 0x11A JUMPI DUP1 PUSH4 0x51A26FDC EQ PUSH2 0x131 JUMPI DUP1 PUSH4 0x54861AF7 EQ PUSH2 0x148 JUMPI PUSH2 0x9C JUMP JUMPDEST CALLDATASIZE PUSH2 0x9C JUMPI STOP JUMPDEST PUSH2 0xB0 PUSH8 0xCEC1C256FE4A427 PUSH1 0xC0 SHL PUSH2 0x24D JUMP JUMPDEST STOP JUMPDEST CALLVALUE DUP1 ISZERO PUSH2 0xBE JUMPI PUSH1 0x0 DUP1 REVERT JUMPDEST POP PUSH2 0xC7 PUSH2 0x250 JUMP JUMPDEST PUSH1 0x40 MLOAD PUSH2 0xD4 SWAP2 SWAP1 PUSH2 0x10D6 JUMP JUMPDEST PUSH1 0x40 MLOAD DUP1 SWAP2 SUB SWAP1 RETURN JUMPDEST CALLVALUE DUP1 ISZERO PUSH2 0xE9 JUMPI PUSH1 0x0 DUP1 REVERT JUMPDEST POP PUSH2 0x104 PUSH1 0x4 DUP1 CALLDATASIZE SUB DUP2 ADD SWAP1 PUSH2 0xFF SWAP2 SWAP1 PUSH2 0x1134 JUMP JUMPDEST PUSH2 0x276 JUMP JUMPDEST PUSH1 0x40 MLOAD PUSH2 0x111 SWAP2 SWAP1 PUSH2 0x117A JUMP JUMPDEST PUSH1 0x40 MLOAD DUP1 SWAP2 SUB SWAP1 RETURN JUMPDEST CALLVALUE DUP1 ISZERO PUSH2 0x126 JUMPI PUSH1 0x0 DUP1 REVERT JUMPDEST POP PUSH2 0x12F PUSH2 0x28E JUMP JUMPDEST STOP JUMPDEST CALLVALUE DUP1 ISZERO PUSH2 0x13D JUMPI PUSH1 0x0 DUP1 REVERT JUMPDEST POP PUSH2 0x146 PUSH2 0x673 JUMP JUMPDEST STOP JUMPDEST CALLVALUE DUP1 ISZERO PUSH2 0x154 JUMPI PUSH1 0x0 DUP1 REVERT JUMPDEST POP PUSH2 0x16F PUSH1 0x4 DUP1 CALLDATASIZE SUB DUP2 ADD SWAP1 PUSH2 0x16A SWAP2 SWAP1 PUSH2 0x11C1 JUMP JUMPDEST PUSH2 0xAE5 JUMP JUMPDEST PUSH1 0x40 MLOAD PUSH2 0x17C SWAP2 SWAP1 PUSH2 0x11FD JUMP JUMPDEST PUSH1 0x40 MLOAD DUP1 SWAP2 SUB SWAP1 RETURN JUMPDEST CALLVALUE DUP1 ISZERO PUSH2 0x191 JUMPI PUSH1 0x0 DUP1 REVERT JUMPDEST POP PUSH2 0x1AC PUSH1 0x4 DUP1 CALLDATASIZE SUB DUP2 ADD SWAP1 PUSH2 0x1A7 SWAP2 SWAP1 PUSH2 0x1134 JUMP JUMPDEST PUSH2 0xB24 JUMP JUMPDEST PUSH1 0x40 MLOAD PUSH2 0x1B9 SWAP2 SWAP1 PUSH2 0x117A JUMP JUMPDEST PUSH1 0x40 MLOAD DUP1 SWAP2 SUB SWAP1 RETURN JUMPDEST CALLVALUE DUP1 ISZERO PUSH2 0x1CE JUMPI PUSH1 0x0 DUP1 REVERT JUMPDEST POP PUSH2 0x1D7 PUSH2 0xBA8 JUMP JUMPDEST PUSH1 0x40 MLOAD PUSH2 0x1E4 SWAP2 SWAP1 PUSH2 0x117A JUMP JUMPDEST PUSH1 0x40 MLOAD DUP1 SWAP2 SUB SWAP1 RETURN JUMPDEST PUSH2 0x1F5 PUSH2 0xBAD JUMP JUMPDEST STOP JUMPDEST CALLVALUE DUP1 ISZERO PUSH2 0x203 JUMPI PUSH1 0x0 DUP1 REVERT JUMPDEST POP PUSH2 0x20C PUSH2 0xD7F JUMP JUMPDEST PUSH1 0x40 MLOAD PUSH2 0x219 SWAP2 SWAP1 PUSH2 0x117A JUMP JUMPDEST PUSH1 0x40 MLOAD DUP1 SWAP2 SUB SWAP1 RETURN JUMPDEST CALLVALUE DUP1 ISZERO PUSH2 0x22E JUMPI PUSH1 0x0 DUP1 REVERT JUMPDEST POP PUSH2 0x237 PUSH2 0xDC8 JUMP JUMPDEST PUSH1 0x40 MLOAD PUSH2 0x244 SWAP2 SWAP1 PUSH2 0x11FD JUMP JUMPDEST PUSH1 0x40 MLOAD DUP1 SWAP2 SUB SWAP1 RETURN JUMPDEST POP JUMP JUMPDEST PUSH1 0x3 PUSH1 0x0 SWAP1 SLOAD SWAP1 PUSH2 0x100 EXP SWAP1 DIV PUSH20 0xFFFFFFFFFFFFFFFFFFFFFFFFFFFFFFFFFFFFFFFF AND DUP2 JUMP JUMPDEST PUSH1 0x0 PUSH1 0x20 MSTORE DUP1 PUSH1 0x0 MSTORE PUSH1 0x40 PUSH1 0x0 KECCAK256 PUSH1 0x0 SWAP2 POP SWAP1 POP SLOAD DUP2 JUMP JUMPDEST PUSH2 0x2A1 PUSH7 0x4EA5020047BF92 PUSH1 0xC0 SHL PUSH2 0x24D JUMP JUMPDEST PUSH2 0x2B5 PUSH8 0x266EB5582FC38377 PUSH1 0xC0 SHL PUSH2 0x24D JUMP JUMPDEST PUSH2 0x2C9 PUSH8 0x39A4FD05097899F8 PUSH1 0xC0 SHL PUSH2 0x24D JUMP JUMPDEST PUSH2 0x2DD PUSH8 0x538C0C3529BEC8B7 PUSH1 0xC0 SHL PUSH2 0x24D JUMP JUMPDEST PUSH1 0x2 PUSH1 0x0 SWAP1 SLOAD SWAP1 PUSH2 0x100 EXP SWAP1 DIV PUSH20 0xFFFFFFFFFFFFFFFFFFFFFFFFFFFFFFFFFFFFFFFF AND PUSH20 0xFFFFFFFFFFFFFFFFFFFFFFFFFFFFFFFFFFFFFFFF AND CALLER PUSH20 0xFFFFFFFFFFFFFFFFFFFFFFFFFFFFFFFFFFFFFFFF AND EQ PUSH2 0x378 JUMPI PUSH2 0x346 PUSH8 0xA9D071DC93898E33 PUSH1 0xC0 SHL PUSH2 0x24D JUMP JUMPDEST PUSH1 0x40 MLOAD PUSH32 0x579610DB00000000000000000000000000000000000000000000000000000000 DUP2 MSTORE PUSH1 0x4 ADD PUSH1 0x40 MLOAD DUP1 SWAP2 SUB SWAP1 REVERT JUMPDEST PUSH2 0x38C PUSH8 0xD64138BBAC1B371E PUSH1 0xC0 SHL PUSH2 0x24D JUMP JUMPDEST PUSH2 0x3A0 PUSH8 0xFCD1CADC98B527E8 PUSH1 0xC0 SHL PUSH2 0x24D JUMP JUMPDEST PUSH2 0x3B4 PUSH8 0xE99A05C14E5E30E5 PUSH1 0xC0 SHL PUSH2 0x24D JUMP JUMPDEST PUSH2 0x3C8 PUSH8 0xAC31FD88715A6D0B PUSH1 0xC0 SHL PUSH2 0x24D JUMP JUMPDEST PUSH2 0x3DC PUSH8 0x1CD50C3EB916C560 PUSH1 0xC0 SHL PUSH2 0x24D JUMP JUMPDEST PUSH2 0x3F0 PUSH8 0x1891B3F722A75D31 PUSH1 0xC0 SHL PUSH2 0x24D JUMP JUMPDEST PUSH1 0x0 JUMPDEST PUSH1 0x1 DUP1 SLOAD SWAP1 POP DUP2 LT ISZERO PUSH2 0x4D7 JUMPI PUSH2 0x414 PUSH8 0xEE7F0DCD0E4E6FB9 PUSH1 0xC0 SHL PUSH2 0x24D JUMP JUMPDEST PUSH2 0x428 PUSH8 0xA6373051E4C0D809 PUSH1 0xC0 SHL PUSH2 0x24D JUMP JUMPDEST PUSH1 0x0 PUSH1 0x1 DUP3 DUP2 SLOAD DUP2 LT PUSH2 0x43E JUMPI PUSH2 0x43D PUSH2 0x1218 JUMP JUMPDEST JUMPDEST SWAP1 PUSH1 0x0 MSTORE PUSH1 0x20 PUSH1 0x0 KECCAK256 ADD PUSH1 0x0 SWAP1 SLOAD SWAP1 PUSH2 0x100 EXP SWAP1 DIV PUSH20 0xFFFFFFFFFFFFFFFFFFFFFFFFFFFFFFFFFFFFFFFF AND SWAP1 POP PUSH2 0x47F PUSH8 0x68DD6BA558E12756 PUSH1 0xC0 SHL PUSH2 0x24D JUMP JUMPDEST PUSH1 0x0 DUP1 PUSH1 0x0 DUP4 PUSH20 0xFFFFFFFFFFFFFFFFFFFFFFFFFFFFFFFFFFFFFFFF AND PUSH20 0xFFFFFFFFFFFFFFFFFFFFFFFFFFFFFFFFFFFFFFFF AND DUP2 MSTORE PUSH1 0x20 ADD SWAP1 DUP2 MSTORE PUSH1 0x20 ADD PUSH1 0x0 KECCAK256 DUP2 SWAP1 SSTORE POP POP DUP1 DUP1 PUSH2 0x4CF SWAP1 PUSH2 0x1276 JUMP JUMPDEST SWAP2 POP POP PUSH2 0x3F3 JUMP JUMPDEST POP PUSH2 0x4EC PUSH8 0xE58FC054BB9BD4DD PUSH1 0xC0 SHL PUSH2 0x24D JUMP JUMPDEST PUSH1 0x0 PUSH8 0xFFFFFFFFFFFFFFFF DUP2 GT ISZERO PUSH2 0x507 JUMPI PUSH2 0x506 PUSH2 0x12BE JUMP JUMPDEST JUMPDEST PUSH1 0x40 MLOAD SWAP1 DUP1 DUP3 MSTORE DUP1 PUSH1 0x20 MUL PUSH1 0x20 ADD DUP3 ADD PUSH1 0x40 MSTORE DUP1 ISZERO PUSH2 0x535 JUMPI DUP2 PUSH1 0x20 ADD PUSH1 0x20 DUP3 MUL DUP1 CALLDATASIZE DUP4 CALLDATACOPY DUP1 DUP3 ADD SWAP2 POP POP SWAP1 POP JUMPDEST POP PUSH1 0x1 SWAP1 DUP1 MLOAD SWAP1 PUSH1 0x20 ADD SWAP1 PUSH2 0x54B SWAP3 SWAP2 SWAP1 PUSH2 0xFB0 JUMP JUMPDEST POP PUSH2 0x560 PUSH8 0x75300350A5337AC9 PUSH1 0xC0 SHL PUSH2 0x24D JUMP JUMPDEST PUSH2 0x574 PUSH8 0xAE0E5776550686D2 PUSH1 0xC0 SHL PUSH2 0x24D JUMP JUMPDEST PUSH1 0x0 CALLER PUSH20 0xFFFFFFFFFFFFFFFFFFFFFFFFFFFFFFFFFFFFFFFF AND SELFBALANCE PUSH1 0x40 MLOAD PUSH2 0x59A SWAP1 PUSH2 0x131E JUMP JUMPDEST PUSH1 0x0 PUSH1 0x40 MLOAD DUP1 DUP4 SUB DUP2 DUP6 DUP8 GAS CALL SWAP3 POP POP POP RETURNDATASIZE DUP1 PUSH1 0x0 DUP2 EQ PUSH2 0x5D7 JUMPI PUSH1 0x40 MLOAD SWAP2 POP PUSH1 0x1F NOT PUSH1 0x3F RETURNDATASIZE ADD AND DUP3 ADD PUSH1 0x40 MSTORE RETURNDATASIZE DUP3 MSTORE RETURNDATASIZE PUSH1 0x0 PUSH1 0x20 DUP5 ADD RETURNDATACOPY PUSH2 0x5DC JUMP JUMPDEST PUSH1 0x60 SWAP2 POP JUMPDEST POP POP SWAP1 POP PUSH2 0x5F4 PUSH8 0x6A56E434A3049978 PUSH1 0xC0 SHL PUSH2 0x24D JUMP JUMPDEST PUSH2 0x608 PUSH8 0xDA1F515F6BB3D5BD PUSH1 0xC0 SHL PUSH2 0x24D JUMP JUMPDEST PUSH2 0x61C PUSH8 0x44BA9C0DA172DD3C PUSH1 0xC0 SHL PUSH2 0x24D JUMP JUMPDEST DUP1 PUSH2 0x65C JUMPI PUSH1 0x40 MLOAD PUSH32 0x8C379A000000000000000000000000000000000000000000000000000000000 DUP2 MSTORE PUSH1 0x4 ADD PUSH2 0x653 SWAP1 PUSH2 0x1390 JUMP JUMPDEST PUSH1 0x40 MLOAD DUP1 SWAP2 SUB SWAP1 REVERT JUMPDEST PUSH2 0x670 PUSH8 0xC18CE6CA9F558137 PUSH1 0xC0 SHL PUSH2 0x24D JUMP JUMPDEST POP JUMP JUMPDEST PUSH2 0x687 PUSH8 0xF9FEFA3DC26B05DC PUSH1 0xC0 SHL PUSH2 0x24D JUMP JUMPDEST PUSH2 0x69B PUSH8 0x266EB5582FC38377 PUSH1 0xC0 SHL PUSH2 0x24D JUMP JUMPDEST PUSH2 0x6AF PUSH8 0x39A4FD05097899F8 PUSH1 0xC0 SHL PUSH2 0x24D JUMP JUMPDEST PUSH2 0x6C3 PUSH8 0x538C0C3529BEC8B7 PUSH1 0xC0 SHL PUSH2 0x24D JUMP JUMPDEST PUSH1 0x2 PUSH1 0x0 SWAP1 SLOAD SWAP1 PUSH2 0x100 EXP SWAP1 DIV PUSH20 0xFFFFFFFFFFFFFFFFFFFFFFFFFFFFFFFFFFFFFFFF AND PUSH20 0xFFFFFFFFFFFFFFFFFFFFFFFFFFFFFFFFFFFFFFFF AND CALLER PUSH20 0xFFFFFFFFFFFFFFFFFFFFFFFFFFFFFFFFFFFFFFFF AND EQ PUSH2 0x75E JUMPI PUSH2 0x72C PUSH8 0xA9D071DC93898E33 PUSH1 0xC0 SHL PUSH2 0x24D JUMP JUMPDEST PUSH1 0x40 MLOAD PUSH32 0x579610DB00000000000000000000000000000000000000000000000000000000 DUP2 MSTORE PUSH1 0x4 ADD PUSH1 0x40 MLOAD DUP1 SWAP2 SUB SWAP1 REVERT JUMPDEST PUSH2 0x772 PUSH8 0xD64138BBAC1B371E PUSH1 0xC0 SHL PUSH2 0x24D JUMP JUMPDEST PUSH2 0x786 PUSH8 0xFCD1CADC98B527E8 PUSH1 0xC0 SHL PUSH2 0x24D JUMP JUMPDEST PUSH2 0x79A PUSH8 0xC6EBAC703ED19C33 PUSH1 0xC0 SHL PUSH2 0x24D JUMP JUMPDEST PUSH2 0x7AE PUSH8 0xC9EBF578B769A90D PUSH1 0xC0 SHL PUSH2 0x24D JUMP JUMPDEST PUSH2 0x7C2 PUSH8 0x63797D43F21356AE PUSH1 0xC0 SHL PUSH2 0x24D JUMP JUMPDEST PUSH2 0x7D6 PUSH8 0x1F432F6BDFFD00FC PUSH1 0xC0 SHL PUSH2 0x24D JUMP JUMPDEST PUSH1 0x0 PUSH1 0x1 DUP1 SLOAD DUP1 PUSH1 0x20 MUL PUSH1 0x20 ADD PUSH1 0x40 MLOAD SWAP1 DUP2 ADD PUSH1 0x40 MSTORE DUP1 SWAP3 SWAP2 SWAP1 DUP2 DUP2 MSTORE PUSH1 0x20 ADD DUP3 DUP1 SLOAD DUP1 ISZERO PUSH2 0x85A JUMPI PUSH1 0x20 MUL DUP3 ADD SWAP2 SWAP1 PUSH1 0x0 MSTORE PUSH1 0x20 PUSH1 0x0 KECCAK256 SWAP1 JUMPDEST DUP2 PUSH1 0x0 SWAP1 SLOAD SWAP1 PUSH2 0x100 EXP SWAP1 DIV PUSH20 0xFFFFFFFFFFFFFFFFFFFFFFFFFFFFFFFFFFFFFFFF AND PUSH20 0xFFFFFFFFFFFFFFFFFFFFFFFFFFFFFFFFFFFFFFFF AND DUP2 MSTORE PUSH1 0x20 ADD SWAP1 PUSH1 0x1 ADD SWAP1 DUP1 DUP4 GT PUSH2 0x810 JUMPI JUMPDEST POP POP POP POP POP SWAP1 POP PUSH2 0x875 PUSH8 0x85ECC379ACB84E98 PUSH1 0xC0 SHL PUSH2 0x24D JUMP JUMPDEST PUSH2 0x889 PUSH8 0x116E77297FB77284 PUSH1 0xC0 SHL PUSH2 0x24D JUMP JUMPDEST PUSH1 0x0 JUMPDEST DUP2 MLOAD DUP2 LT ISZERO PUSH2 0x948 JUMPI PUSH2 0x8A9 PUSH8 0x8200BA1EEFD9B43C PUSH1 0xC0 SHL PUSH2 0x24D JUMP JUMPDEST PUSH2 0x8BD PUSH8 0x74AB8604E6180386 PUSH1 0xC0 SHL PUSH2 0x24D JUMP JUMPDEST PUSH1 0x0 DUP3 DUP3 DUP2 MLOAD DUP2 LT PUSH2 0x8D2 JUMPI PUSH2 0x8D1 PUSH2 0x1218 JUMP JUMPDEST JUMPDEST PUSH1 0x20 MUL PUSH1 0x20 ADD ADD MLOAD SWAP1 POP PUSH2 0x8F0 PUSH8 0x7E655868CB8909D8 PUSH1 0xC0 SHL PUSH2 0x24D JUMP JUMPDEST PUSH1 0x0 DUP1 PUSH1 0x0 DUP4 PUSH20 0xFFFFFFFFFFFFFFFFFFFFFFFFFFFFFFFFFFFFFFFF AND PUSH20 0xFFFFFFFFFFFFFFFFFFFFFFFFFFFFFFFFFFFFFFFF AND DUP2 MSTORE PUSH1 0x20 ADD SWAP1 DUP2 MSTORE PUSH1 0x20 ADD PUSH1 0x0 KECCAK256 DUP2 SWAP1 SSTORE POP POP DUP1 DUP1 PUSH2 0x940 SWAP1 PUSH2 0x1276 JUMP JUMPDEST SWAP2 POP POP PUSH2 0x88C JUMP JUMPDEST POP PUSH2 0x95D PUSH8 0x6F45E21281735326 PUSH1 0xC0 SHL PUSH2 0x24D JUMP JUMPDEST PUSH1 0x0 PUSH8 0xFFFFFFFFFFFFFFFF DUP2 GT ISZERO PUSH2 0x978 JUMPI PUSH2 0x977 PUSH2 0x12BE JUMP JUMPDEST JUMPDEST PUSH1 0x40 MLOAD SWAP1 DUP1 DUP3 MSTORE DUP1 PUSH1 0x20 MUL PUSH1 0x20 ADD DUP3 ADD PUSH1 0x40 MSTORE DUP1 ISZERO PUSH2 0x9A6 JUMPI DUP2 PUSH1 0x20 ADD PUSH1 0x20 DUP3 MUL DUP1 CALLDATASIZE DUP4 CALLDATACOPY DUP1 DUP3 ADD SWAP2 POP POP SWAP1 POP JUMPDEST POP PUSH1 0x1 SWAP1 DUP1 MLOAD SWAP1 PUSH1 0x20 ADD SWAP1 PUSH2 0x9BC SWAP3 SWAP2 SWAP1 PUSH2 0xFB0 JUMP JUMPDEST POP PUSH2 0x9D1 PUSH8 0xEF80E0C3F1468D87 PUSH1 0xC0 SHL PUSH2 0x24D JUMP JUMPDEST PUSH2 0x9E5 PUSH8 0xB8BFE5BEEDFA8F30 PUSH1 0xC0 SHL PUSH2 0x24D JUMP JUMPDEST PUSH1 0x0 CALLER PUSH20 0xFFFFFFFFFFFFFFFFFFFFFFFFFFFFFFFFFFFFFFFF AND SELFBALANCE PUSH1 0x40 MLOAD PUSH2 0xA0B SWAP1 PUSH2 0x131E JUMP JUMPDEST PUSH1 0x0 PUSH1 0x40 MLOAD DUP1 DUP4 SUB DUP2 DUP6 DUP8 GAS CALL SWAP3 POP POP POP RETURNDATASIZE DUP1 PUSH1 0x0 DUP2 EQ PUSH2 0xA48 JUMPI PUSH1 0x40 MLOAD SWAP2 POP PUSH1 0x1F NOT PUSH1 0x3F RETURNDATASIZE ADD AND DUP3 ADD PUSH1 0x40 MSTORE RETURNDATASIZE DUP3 MSTORE RETURNDATASIZE PUSH1 0x0 PUSH1 0x20 DUP5 ADD RETURNDATACOPY PUSH2 0xA4D JUMP JUMPDEST PUSH1 0x60 SWAP2 POP JUMPDEST POP POP SWAP1 POP PUSH2 0xA65 PUSH8 0xB96EB43424BADB87 PUSH1 0xC0 SHL PUSH2 0x24D JUMP JUMPDEST PUSH2 0xA79 PUSH8 0xA5970817F347DF25 PUSH1 0xC0 SHL PUSH2 0x24D JUMP JUMPDEST PUSH2 0xA8D PUSH8 0x169CF0EF43BC63CA PUSH1 0xC0 SHL PUSH2 0x24D JUMP JUMPDEST DUP1 PUSH2 0xACD JUMPI PUSH1 0x40 MLOAD PUSH32 0x8C379A000000000000000000000000000000000000000000000000000000000 DUP2 MSTORE PUSH1 0x4 ADD PUSH2 0xAC4 SWAP1 PUSH2 0x1390 JUMP JUMPDEST PUSH1 0x40 MLOAD DUP1 SWAP2 SUB SWAP1 REVERT JUMPDEST PUSH2 0xAE1 PUSH8 0x2BB07FD2DBA97F9D PUSH1 0xC0 SHL PUSH2 0x24D JUMP JUMPDEST POP POP JUMP JUMPDEST PUSH1 0x1 DUP2 DUP2 SLOAD DUP2 LT PUSH2 0xAF5 JUMPI PUSH1 0x0 DUP1 REVERT JUMPDEST SWAP1 PUSH1 0x0 MSTORE PUSH1 0x20 PUSH1 0x0 KECCAK256 ADD PUSH1 0x0 SWAP2 POP SLOAD SWAP1 PUSH2 0x100 EXP SWAP1 DIV PUSH20 0xFFFFFFFFFFFFFFFFFFFFFFFFFFFFFFFFFFFFFFFF AND DUP2 JUMP JUMPDEST PUSH1 0x0 PUSH2 0xB3A PUSH8 0x85C98C72E6F4DC42 PUSH1 0xC0 SHL PUSH2 0x24D JUMP JUMPDEST PUSH2 0xB4E PUSH8 0x545551FD41418A7A PUSH1 0xC0 SHL PUSH2 0x24D JUMP JUMPDEST PUSH2 0xB62 PUSH8 0x503163DB0866536B PUSH1 0xC0 SHL PUSH2 0x24D JUMP JUMPDEST PUSH1 0x0 DUP1 DUP4 PUSH20 0xFFFFFFFFFFFFFFFFFFFFFFFFFFFFFFFFFFFFFFFF AND PUSH20 0xFFFFFFFFFFFFFFFFFFFFFFFFFFFFFFFFFFFFFFFF AND DUP2 MSTORE PUSH1 0x20 ADD SWAP1 DUP2 MSTORE PUSH1 0x20 ADD PUSH1 0x0 KECCAK256 SLOAD SWAP1 POP SWAP2 SWAP1 POP JUMP JUMPDEST PUSH1 0x32 DUP2 JUMP JUMPDEST PUSH2 0xBC1 PUSH8 0x857CAEBD28228E8B PUSH1 0xC0 SHL PUSH2 0x24D JUMP JUMPDEST PUSH2 0xBD5 PUSH8 0x5C80D6349A0BB51D PUSH1 0xC0 SHL PUSH2 0x24D JUMP JUMPDEST PUSH2 0xBE9 PUSH8 0x49AD1AC8FD2A70D9 PUSH1 0xC0 SHL PUSH2 0x24D JUMP JUMPDEST PUSH2 0xBFD PUSH8 0x7CE4F212C6FD1610 PUSH1 0xC0 SHL PUSH2 0x24D JUMP JUMPDEST PUSH1 0x32 PUSH2 0xC34 PUSH1 0x3 PUSH1 0x0 SWAP1 SLOAD SWAP1 PUSH2 0x100 EXP SWAP1 DIV PUSH20 0xFFFFFFFFFFFFFFFFFFFFFFFFFFFFFFFFFFFFFFFF AND CALLVALUE PUSH2 0xDEE SWAP1 SWAP2 SWAP1 PUSH4 0xFFFFFFFF AND JUMP JUMPDEST LT ISZERO PUSH2 0xC75 JUMPI PUSH1 0x40 MLOAD PUSH32 0x8C379A000000000000000000000000000000000000000000000000000000000 DUP2 MSTORE PUSH1 0x4 ADD PUSH2 0xC6C SWAP1 PUSH2 0x13FC JUMP JUMPDEST PUSH1 0x40 MLOAD DUP1 SWAP2 SUB SWAP1 REVERT JUMPDEST PUSH2 0xC89 PUSH8 0xE664317FD4F83677 PUSH1 0xC0 SHL PUSH2 0x24D JUMP JUMPDEST PUSH2 0xC9D PUSH8 0x55B912A05ECEDE8 PUSH1 0xC0 SHL PUSH2 0x24D JUMP JUMPDEST CALLVALUE PUSH1 0x0 DUP1 CALLER PUSH20 0xFFFFFFFFFFFFFFFFFFFFFFFFFFFFFFFFFFFFFFFF AND PUSH20 0xFFFFFFFFFFFFFFFFFFFFFFFFFFFFFFFFFFFFFFFF AND DUP2 MSTORE PUSH1 0x20 ADD SWAP1 DUP2 MSTORE PUSH1 0x20 ADD PUSH1 0x0 KECCAK256 PUSH1 0x0 DUP3 DUP3 SLOAD PUSH2 0xCEB SWAP2 SWAP1 PUSH2 0x141C JUMP JUMPDEST SWAP3 POP POP DUP2 SWAP1 SSTORE POP PUSH2 0xD06 PUSH8 0x455A8550B51A011B PUSH1 0xC0 SHL PUSH2 0x24D JUMP JUMPDEST PUSH2 0xD1A PUSH8 0xA0AC60C2C283211D PUSH1 0xC0 SHL PUSH2 0x24D JUMP JUMPDEST PUSH1 0x1 CALLER SWAP1 DUP1 PUSH1 0x1 DUP2 SLOAD ADD DUP1 DUP3 SSTORE DUP1 SWAP2 POP POP PUSH1 0x1 SWAP1 SUB SWAP1 PUSH1 0x0 MSTORE PUSH1 0x20 PUSH1 0x0 KECCAK256 ADD PUSH1 0x0 SWAP1 SWAP2 SWAP1 SWAP2 SWAP1 SWAP2 PUSH2 0x100 EXP DUP2 SLOAD DUP2 PUSH20 0xFFFFFFFFFFFFFFFFFFFFFFFFFFFFFFFFFFFFFFFF MUL NOT AND SWAP1 DUP4 PUSH20 0xFFFFFFFFFFFFFFFFFFFFFFFFFFFFFFFFFFFFFFFF AND MUL OR SWAP1 SSTORE POP JUMP JUMPDEST PUSH1 0x0 PUSH2 0xD95 PUSH8 0xC561A3C088F46A7B PUSH1 0xC0 SHL PUSH2 0x24D JUMP JUMPDEST PUSH2 0xDA9 PUSH8 0xFA8C5BA8E02FE5BC PUSH1 0xC0 SHL PUSH2 0x24D JUMP JUMPDEST PUSH2 0xDBD PUSH8 0xFFC66C4E922A8B80 PUSH1 0xC0 SHL PUSH2 0x24D JUMP JUMPDEST PUSH1 0x1 DUP1 SLOAD SWAP1 POP SWAP1 POP SWAP1 JUMP JUMPDEST PUSH1 0x2 PUSH1 0x0 SWAP1 SLOAD SWAP1 PUSH2 0x100 EXP SWAP1 DIV PUSH20 0xFFFFFFFFFFFFFFFFFFFFFFFFFFFFFFFFFFFFFFFF AND DUP2 JUMP JUMPDEST PUSH1 0x0 PUSH2 0xE04 PUSH8 0x414EA1BC79157066 PUSH1 0xC0 SHL PUSH2 0xEB7 JUMP JUMPDEST PUSH2 0xE18 PUSH8 0xF0053203B64C42F4 PUSH1 0xC0 SHL PUSH2 0xEB7 JUMP JUMPDEST PUSH2 0xE2C PUSH8 0x71EF9770629731EF PUSH1 0xC0 SHL PUSH2 0xEB7 JUMP JUMPDEST PUSH1 0x0 PUSH2 0xE37 DUP4 PUSH2 0xEBA JUMP JUMPDEST SWAP1 POP PUSH2 0xE4D PUSH8 0x77AB262B065B3CEC PUSH1 0xC0 SHL PUSH2 0xEB7 JUMP JUMPDEST PUSH2 0xE61 PUSH8 0xDE4C4E43A1149A47 PUSH1 0xC0 SHL PUSH2 0xEB7 JUMP JUMPDEST PUSH1 0x0 PUSH8 0xDE0B6B3A7640000 DUP6 DUP4 PUSH2 0xE78 SWAP2 SWAP1 PUSH2 0x1450 JUMP JUMPDEST PUSH2 0xE82 SWAP2 SWAP1 PUSH2 0x14C1 JUMP JUMPDEST SWAP1 POP PUSH2 0xE98 PUSH8 0x4A58E0CC080F926C PUSH1 0xC0 SHL PUSH2 0xEB7 JUMP JUMPDEST PUSH2 0xEAC PUSH8 0xC74EC6677F2ADEBF PUSH1 0xC0 SHL PUSH2 0xEB7 JUMP JUMPDEST DUP1 SWAP3 POP POP POP SWAP3 SWAP2 POP POP JUMP JUMPDEST POP JUMP JUMPDEST PUSH1 0x0 PUSH2 0xED0 PUSH8 0x4FD91B31A4AB5F36 PUSH1 0xC0 SHL PUSH2 0xEB7 JUMP JUMPDEST PUSH2 0xEE4 PUSH8 0xE1CB3EA677EDC74F PUSH1 0xC0 SHL PUSH2 0xEB7 JUMP JUMPDEST PUSH2 0xEF8 PUSH8 0x1F98178F94A988C4 PUSH1 0xC0 SHL PUSH2 0xEB7 JUMP JUMPDEST PUSH1 0x0 DUP3 PUSH20 0xFFFFFFFFFFFFFFFFFFFFFFFFFFFFFFFFFFFFFFFF AND PUSH4 0xFEAF968C PUSH1 0x40 MLOAD DUP2 PUSH4 0xFFFFFFFF AND PUSH1 0xE0 SHL DUP2 MSTORE PUSH1 0x4 ADD PUSH1 0xA0 PUSH1 0x40 MLOAD DUP1 DUP4 SUB DUP2 DUP7 GAS STATICCALL ISZERO DUP1 ISZERO PUSH2 0xF45 JUMPI RETURNDATASIZE PUSH1 0x0 DUP1 RETURNDATACOPY RETURNDATASIZE PUSH1 0x0 REVERT JUMPDEST POP POP POP POP PUSH1 0x40 MLOAD RETURNDATASIZE PUSH1 0x1F NOT PUSH1 0x1F DUP3 ADD AND DUP3 ADD DUP1 PUSH1 0x40 MSTORE POP DUP2 ADD SWAP1 PUSH2 0xF69 SWAP2 SWAP1 PUSH2 0x157F JUMP JUMPDEST POP POP POP SWAP2 POP POP PUSH2 0xF83 PUSH8 0xCE51A00EB0AA02E1 PUSH1 0xC0 SHL PUSH2 0xEB7 JUMP JUMPDEST PUSH2 0xF97 PUSH8 0x18C6F17071973D5E PUSH1 0xC0 SHL PUSH2 0xEB7 JUMP JUMPDEST PUSH5 0x2540BE400 DUP2 PUSH2 0xFA8 SWAP2 SWAP1 PUSH2 0x15FA JUMP JUMPDEST SWAP2 POP POP SWAP2 SWAP1 POP JUMP JUMPDEST DUP3 DUP1 SLOAD DUP3 DUP3 SSTORE SWAP1 PUSH1 0x0 MSTORE PUSH1 0x20 PUSH1 0x0 KECCAK256 SWAP1 DUP2 ADD SWAP3 DUP3 ISZERO PUSH2 0x1029 JUMPI SWAP2 PUSH1 0x20 MUL DUP3 ADD JUMPDEST DUP3 DUP2 GT ISZERO PUSH2 0x1028 JUMPI DUP3 MLOAD DUP3 PUSH1 0x0 PUSH2 0x100 EXP DUP2 SLOAD DUP2 PUSH20 0xFFFFFFFFFFFFFFFFFFFFFFFFFFFFFFFFFFFFFFFF MUL NOT AND SWAP1 DUP4 PUSH20 0xFFFFFFFFFFFFFFFFFFFFFFFFFFFFFFFFFFFFFFFF AND MUL OR SWAP1 SSTORE POP SWAP2 PUSH1 0x20 ADD SWAP2 SWAP1 PUSH1 0x1 ADD SWAP1 PUSH2 0xFD0 JUMP JUMPDEST JUMPDEST POP SWAP1 POP PUSH2 0x1036 SWAP2 SWAP1 PUSH2 0x103A JUMP JUMPDEST POP SWAP1 JUMP JUMPDEST JUMPDEST DUP1 DUP3 GT ISZERO PUSH2 0x1053 JUMPI PUSH1 0x0 DUP2 PUSH1 0x0 SWAP1 SSTORE POP PUSH1 0x1 ADD PUSH2 0x103B JUMP JUMPDEST POP SWAP1 JUMP JUMPDEST PUSH1 0x0 PUSH20 0xFFFFFFFFFFFFFFFFFFFFFFFFFFFFFFFFFFFFFFFF DUP3 AND SWAP1 POP SWAP2 SWAP1 POP JUMP JUMPDEST PUSH1 0x0 DUP2 SWAP1 POP SWAP2 SWAP1 POP JUMP JUMPDEST PUSH1 0x0 PUSH2 0x109C PUSH2 0x1097 PUSH2 0x1092 DUP5 PUSH2 0x1057 JUMP JUMPDEST PUSH2 0x1077 JUMP JUMPDEST PUSH2 0x1057 JUMP JUMPDEST SWAP1 POP SWAP2 SWAP1 POP JUMP JUMPDEST PUSH1 0x0 PUSH2 0x10AE DUP3 PUSH2 0x1081 JUMP JUMPDEST SWAP1 POP SWAP2 SWAP1 POP JUMP JUMPDEST PUSH1 0x0 PUSH2 0x10C0 DUP3 PUSH2 0x10A3 JUMP JUMPDEST SWAP1 POP SWAP2 SWAP1 POP JUMP JUMPDEST PUSH2 0x10D0 DUP2 PUSH2 0x10B5 JUMP JUMPDEST DUP3 MSTORE POP POP JUMP JUMPDEST PUSH1 0x0 PUSH1 0x20 DUP3 ADD SWAP1 POP PUSH2 0x10EB PUSH1 0x0 DUP4 ADD DUP5 PUSH2 0x10C7 JUMP JUMPDEST SWAP3 SWAP2 POP POP JUMP JUMPDEST PUSH1 0x0 DUP1 REVERT JUMPDEST PUSH1 0x0 PUSH2 0x1101 DUP3 PUSH2 0x1057 JUMP JUMPDEST SWAP1 POP SWAP2 SWAP1 POP JUMP JUMPDEST PUSH2 0x1111 DUP2 PUSH2 0x10F6 JUMP JUMPDEST DUP2 EQ PUSH2 0x111C JUMPI PUSH1 0x0 DUP1 REVERT JUMPDEST POP JUMP JUMPDEST PUSH1 0x0 DUP2 CALLDATALOAD SWAP1 POP PUSH2 0x112E DUP2 PUSH2 0x1108 JUMP JUMPDEST SWAP3 SWAP2 POP POP JUMP JUMPDEST PUSH1 0x0 PUSH1 0x20 DUP3 DUP5 SUB SLT ISZERO PUSH2 0x114A JUMPI PUSH2 0x1149 PUSH2 0x10F1 JUMP JUMPDEST JUMPDEST PUSH1 0x0 PUSH2 0x1158 DUP5 DUP3 DUP6 ADD PUSH2 0x111F JUMP JUMPDEST SWAP2 POP POP SWAP3 SWAP2 POP POP JUMP JUMPDEST PUSH1 0x0 DUP2 SWAP1 POP SWAP2 SWAP1 POP JUMP JUMPDEST PUSH2 0x1174 DUP2 PUSH2 0x1161 JUMP JUMPDEST DUP3 MSTORE POP POP JUMP JUMPDEST PUSH1 0x0 PUSH1 0x20 DUP3 ADD SWAP1 POP PUSH2 0x118F PUSH1 0x0 DUP4 ADD DUP5 PUSH2 0x116B JUMP JUMPDEST SWAP3 SWAP2 POP POP JUMP JUMPDEST PUSH2 0x119E DUP2 PUSH2 0x1161 JUMP JUMPDEST DUP2 EQ PUSH2 0x11A9 JUMPI PUSH1 0x0 DUP1 REVERT JUMPDEST POP JUMP JUMPDEST PUSH1 0x0 DUP2 CALLDATALOAD SWAP1 POP PUSH2 0x11BB DUP2 PUSH2 0x1195 JUMP JUMPDEST SWAP3 SWAP2 POP POP JUMP JUMPDEST PUSH1 0x0 PUSH1 0x20 DUP3 DUP5 SUB SLT ISZERO PUSH2 0x11D7 JUMPI PUSH2 0x11D6 PUSH2 0x10F1 JUMP JUMPDEST JUMPDEST PUSH1 0x0 PUSH2 0x11E5 DUP5 DUP3 DUP6 ADD PUSH2 0x11AC JUMP JUMPDEST SWAP2 POP POP SWAP3 SWAP2 POP POP JUMP JUMPDEST PUSH2 0x11F7 DUP2 PUSH2 0x10F6 JUMP JUMPDEST DUP3 MSTORE POP POP JUMP JUMPDEST PUSH1 0x0 PUSH1 0x20 DUP3 ADD SWAP1 POP PUSH2 0x1212 PUSH1 0x0 DUP4 ADD DUP5 PUSH2 0x11EE JUMP JUMPDEST SWAP3 SWAP2 POP POP JUMP JUMPDEST PUSH32 0x4E487B7100000000000000000000000000000000000000000000000000000000 PUSH1 0x0 MSTORE PUSH1 0x32 PUSH1 0x4 MSTORE PUSH1 0x24 PUSH1 0x0 REVERT JUMPDEST PUSH32 0x4E487B7100000000000000000000000000000000000000000000000000000000 PUSH1 0x0 MSTORE PUSH1 0x11 PUSH1 0x4 MSTORE PUSH1 0x24 PUSH1 0x0 REVERT JUMPDEST PUSH1 0x0 PUSH2 0x1281 DUP3 PUSH2 0x1161 JUMP JUMPDEST SWAP2 POP PUSH32 0xFFFFFFFFFFFFFFFFFFFFFFFFFFFFFFFFFFFFFFFFFFFFFFFFFFFFFFFFFFFFFFFF DUP3 SUB PUSH2 0x12B3 JUMPI PUSH2 0x12B2 PUSH2 0x1247 JUMP JUMPDEST JUMPDEST PUSH1 0x1 DUP3 ADD SWAP1 POP SWAP2 SWAP1 POP JUMP JUMPDEST PUSH32 0x4E487B7100000000000000000000000000000000000000000000000000000000 PUSH1 0x0 MSTORE PUSH1 0x41 PUSH1 0x4 MSTORE PUSH1 0x24 PUSH1 0x0 REVERT JUMPDEST PUSH1 0x0 DUP2 SWAP1 POP SWAP3 SWAP2 POP POP JUMP JUMPDEST POP JUMP JUMPDEST PUSH1 0x0 PUSH2 0x1308 PUSH1 0x0 DUP4 PUSH2 0x12ED JUMP JUMPDEST SWAP2 POP PUSH2 0x1313 DUP3 PUSH2 0x12F8 JUMP JUMPDEST PUSH1 0x0 DUP3 ADD SWAP1 POP SWAP2 SWAP1 POP JUMP JUMPDEST PUSH1 0x0 PUSH2 0x1329 DUP3 PUSH2 0x12FB JUMP JUMPDEST SWAP2 POP DUP2 SWAP1 POP SWAP2 SWAP1 POP JUMP JUMPDEST PUSH1 0x0 DUP3 DUP3 MSTORE PUSH1 0x20 DUP3 ADD SWAP1 POP SWAP3 SWAP2 POP POP JUMP JUMPDEST PUSH32 0x43616C6C206661696C6564000000000000000000000000000000000000000000 PUSH1 0x0 DUP3 ADD MSTORE POP JUMP JUMPDEST PUSH1 0x0 PUSH2 0x137A PUSH1 0xB DUP4 PUSH2 0x1333 JUMP JUMPDEST SWAP2 POP PUSH2 0x1385 DUP3 PUSH2 0x1344 JUMP JUMPDEST PUSH1 0x20 DUP3 ADD SWAP1 POP SWAP2 SWAP1 POP JUMP JUMPDEST PUSH1 0x0 PUSH1 0x20 DUP3 ADD SWAP1 POP DUP2 DUP2 SUB PUSH1 0x0 DUP4 ADD MSTORE PUSH2 0x13A9 DUP2 PUSH2 0x136D JUMP JUMPDEST SWAP1 POP SWAP2 SWAP1 POP JUMP JUMPDEST PUSH32 0x596F75206E65656420746F207370656E64206D6F726520455448210000000000 PUSH1 0x0 DUP3 ADD MSTORE POP JUMP JUMPDEST PUSH1 0x0 PUSH2 0x13E6 PUSH1 0x1B DUP4 PUSH2 0x1333 JUMP JUMPDEST SWAP2 POP PUSH2 0x13F1 DUP3 PUSH2 0x13B0 JUMP JUMPDEST PUSH1 0x20 DUP3 ADD SWAP1 POP SWAP2 SWAP1 POP JUMP JUMPDEST PUSH1 0x0 PUSH1 0x20 DUP3 ADD SWAP1 POP DUP2 DUP2 SUB PUSH1 0x0 DUP4 ADD MSTORE PUSH2 0x1415 DUP2 PUSH2 0x13D9 JUMP JUMPDEST SWAP1 POP SWAP2 SWAP1 POP JUMP JUMPDEST PUSH1 0x0 PUSH2 0x1427 DUP3 PUSH2 0x1161 JUMP JUMPDEST SWAP2 POP PUSH2 0x1432 DUP4 PUSH2 0x1161 JUMP JUMPDEST SWAP3 POP DUP3 DUP3 ADD SWAP1 POP DUP1 DUP3 GT ISZERO PUSH2 0x144A JUMPI PUSH2 0x1449 PUSH2 0x1247 JUMP JUMPDEST JUMPDEST SWAP3 SWAP2 POP POP JUMP JUMPDEST PUSH1 0x0 PUSH2 0x145B DUP3 PUSH2 0x1161 JUMP JUMPDEST SWAP2 POP PUSH2 0x1466 DUP4 PUSH2 0x1161 JUMP JUMPDEST SWAP3 POP DUP3 DUP3 MUL PUSH2 0x1474 DUP2 PUSH2 0x1161 JUMP JUMPDEST SWAP2 POP DUP3 DUP3 DIV DUP5 EQ DUP4 ISZERO OR PUSH2 0x148B JUMPI PUSH2 0x148A PUSH2 0x1247 JUMP JUMPDEST JUMPDEST POP SWAP3 SWAP2 POP POP JUMP JUMPDEST PUSH32 0x4E487B7100000000000000000000000000000000000000000000000000000000 PUSH1 0x0 MSTORE PUSH1 0x12 PUSH1 0x4 MSTORE PUSH1 0x24 PUSH1 0x0 REVERT JUMPDEST PUSH1 0x0 PUSH2 0x14CC DUP3 PUSH2 0x1161 JUMP JUMPDEST SWAP2 POP PUSH2 0x14D7 DUP4 PUSH2 0x1161 JUMP JUMPDEST SWAP3 POP DUP3 PUSH2 0x14E7 JUMPI PUSH2 0x14E6 PUSH2 0x1492 JUMP JUMPDEST JUMPDEST DUP3 DUP3 DIV SWAP1 POP SWAP3 SWAP2 POP POP JUMP JUMPDEST PUSH1 0x0 PUSH10 0xFFFFFFFFFFFFFFFFFFFF DUP3 AND SWAP1 POP SWAP2 SWAP1 POP JUMP JUMPDEST PUSH2 0x1511 DUP2 PUSH2 0x14F2 JUMP JUMPDEST DUP2 EQ PUSH2 0x151C JUMPI PUSH1 0x0 DUP1 REVERT JUMPDEST POP JUMP JUMPDEST PUSH1 0x0 DUP2 MLOAD SWAP1 POP PUSH2 0x152E DUP2 PUSH2 0x1508 JUMP JUMPDEST SWAP3 SWAP2 POP POP JUMP JUMPDEST PUSH1 0x0 DUP2 SWAP1 POP SWAP2 SWAP1 POP JUMP JUMPDEST PUSH2 0x1547 DUP2 PUSH2 0x1534 JUMP JUMPDEST DUP2 EQ PUSH2 0x1552 JUMPI PUSH1 0x0 DUP1 REVERT JUMPDEST POP JUMP JUMPDEST PUSH1 0x0 DUP2 MLOAD SWAP1 POP PUSH2 0x1564 DUP2 PUSH2 0x153E JUMP JUMPDEST SWAP3 SWAP2 POP POP JUMP JUMPDEST PUSH1 0x0 DUP2 MLOAD SWAP1 POP PUSH2 0x1579 DUP2 PUSH2 0x1195 JUMP JUMPDEST SWAP3 SWAP2 POP POP JUMP JUMPDEST PUSH1 0x0 DUP1 PUSH1 0x0 DUP1 PUSH1 0x0 PUSH1 0xA0 DUP7 DUP9 SUB SLT ISZERO PUSH2 0x159B JUMPI PUSH2 0x159A PUSH2 0x10F1 JUMP JUMPDEST JUMPDEST PUSH1 0x0 PUSH2 0x15A9 DUP9 DUP3 DUP10 ADD PUSH2 0x151F JUMP JUMPDEST SWAP6 POP POP PUSH1 0x20 PUSH2 0x15BA DUP9 DUP3 DUP10 ADD PUSH2 0x1555 JUMP JUMPDEST SWAP5 POP POP PUSH1 0x40 PUSH2 0x15CB DUP9 DUP3 DUP10 ADD PUSH2 0x156A JUMP JUMPDEST SWAP4 POP POP PUSH1 0x60 PUSH2 0x15DC DUP9 DUP3 DUP10 ADD PUSH2 0x156A JUMP JUMPDEST SWAP3 POP POP PUSH1 0x80 PUSH2 0x15ED DUP9 DUP3 DUP10 ADD PUSH2 0x151F JUMP JUMPDEST SWAP2 POP POP SWAP3 SWAP6 POP SWAP3 SWAP6 SWAP1 SWAP4 POP JUMP JUMPDEST PUSH1 0x0 PUSH2 0x1605 DUP3 PUSH2 0x1534 JUMP JUMPDEST SWAP2 POP PUSH2 0x1610 DUP4 PUSH2 0x1534 JUMP JUMPDEST SWAP3 POP DUP3 DUP3 MUL PUSH2 0x161E DUP2 PUSH2 0x1534 JUMP JUMPDEST SWAP2 POP PUSH32 0x8000000000000000000000000000000000000000000000000000000000000000 DUP5 EQ PUSH1 0x0 DUP5 SLT AND ISZERO PUSH2 0x1656 JUMPI PUSH2 0x1655 PUSH2 0x1247 JUMP JUMPDEST JUMPDEST DUP3 DUP3 SDIV DUP5 EQ DUP4 ISZERO OR PUSH2 0x166B JUMPI PUSH2 0x166A PUSH2 0x1247 JUMP JUMPDEST JUMPDEST POP SWAP3 SWAP2 POP POP JUMP INVALID LOG2 PUSH5 0x6970667358 0x22 SLT KECCAK256 0xE1 DUP4 0xCD MSTORE 0xB0 0xC9 LT PUSH24 0x5CAA02139DE8847F018CB8E096C434CD02ADBDEEB26106C6 PUSH5 0x736F6C6343 STOP ADDMOD SLT STOP CALLER "},"methodIdentifiers":{"MINIMUM_USD()":"6b69a592","cheaper_withdraw()":"51a26fdc","fund()":"b60d4288","getFundAmount(address)":"60d727b2","getLength()":"be1c766b","i_owner()":"dba6335f","s_addressToAmountFunded(address)":"1bf6132d","s_funders(uint256)":"54861af7","s_priceFeed()":"0ec3b027","withdraw()":"3ccfd60b"}}}}}