{"contracts/VotingSystem.sol":{"Voting":{"abi":[{"inputs":[],"stateMutability":"nonpayable","type":"constructor"},{"inputs":[],"name":"Voting_alreadyVoted","type":"error"},{"inputs":[],"name":"Voting_stillopen","type":"error"},{"inputs":[],"name":"Voting_votingclosed","type":"error"},{"anonymous":false,"inputs":[{"indexed":true,"internalType":"uint256","name":"id","type":"uint256"}],"name":"pollCreated","type":"event"},{"anonymous":false,"inputs":[{"indexed":true,"internalType":"uint256","name":"id","type":"uint256"},{"indexed":false,"internalType":"address","name":"name","type":"address"}],"name":"voteadded","type":"event"},{"anonymous":false,"inputs":[{"indexed":true,"internalType":"uint256","name":"id","type":"uint256"},{"indexed":true,"internalType":"string","name":"name","type":"string"}],"name":"winnerAttained","type":"event"},{"inputs":[{"internalType":"uint256","name":"id","type":"uint256"},{"internalType":"string","name":"tovote","type":"string"}],"name":"addVote","outputs":[],"stateMutability":"nonpayable","type":"function"},{"inputs":[{"internalType":"uint256","name":"id","type":"uint256"},{"internalType":"string[]","name":"_options","type":"string[]"},{"internalType":"uint256","name":"interval","type":"uint256"}],"name":"createPoll","outputs":[],"stateMutability":"nonpayable","type":"function"},{"inputs":[{"internalType":"uint256","name":"id","type":"uint256"}],"name":"getNumberOfVoters","outputs":[{"internalType":"uint256","name":"","type":"uint256"}],"stateMutability":"view","type":"function"},{"inputs":[{"internalType":"uint256","name":"id","type":"uint256"},{"internalType":"string","name":"name","type":"string"}],"name":"getNumberOfVotes","outputs":[{"internalType":"uint256","name":"","type":"uint256"}],"stateMutability":"view","type":"function"},{"inputs":[{"internalType":"uint256","name":"id","type":"uint256"}],"name":"getWinner","outputs":[{"internalType":"string[]","name":"","type":"string[]"}],"stateMutability":"nonpayable","type":"function"},{"inputs":[{"internalType":"uint256","name":"id","type":"uint256"}],"name":"getWinnerWithoutStateChange","outputs":[{"internalType":"string","name":"winner","type":"string"}],"stateMutability":"view","type":"function"},{"inputs":[],"name":"i_owner","outputs":[{"internalType":"address","name":"","type":"address"}],"stateMutability":"view","type":"function"},{"inputs":[{"internalType":"uint256","name":"id","type":"uint256"}],"name":"isTimePassed","outputs":[{"internalType":"bool","name":"","type":"bool"}],"stateMutability":"view","type":"function"},{"inputs":[{"internalType":"address","name":"voter","type":"address"},{"internalType":"uint256","name":"id","type":"uint256"}],"name":"isVoted","outputs":[{"internalType":"bool","name":"","type":"bool"}],"stateMutability":"view","type":"function"},{"inputs":[{"internalType":"uint256","name":"","type":"uint256"}],"name":"pollidtovote","outputs":[{"internalType":"uint256","name":"votingtime","type":"uint256"},{"internalType":"uint256","name":"createdtime","type":"uint256"}],"stateMutability":"view","type":"function"},{"inputs":[{"internalType":"uint256","name":"","type":"uint256"}],"name":"pollidtowinner","outputs":[{"internalType":"string","name":"","type":"string"}],"stateMutability":"view","type":"function"},{"inputs":[{"internalType":"uint256","name":"","type":"uint256"},{"internalType":"string","name":"","type":"string"}],"name":"votecount","outputs":[{"internalType":"uint256","name":"","type":"uint256"}],"stateMutability":"view","type":"function"}],"evm":{"bytecode":{"linkReferences":{},"object":"60a060405234801561001057600080fd5b5061002b6717c70658cca0da0060c01b61007e60201b60201c565b61004567e212a08a379629bb60c01b61007e60201b60201c565b3373ffffffffffffffffffffffffffffffffffffffff1660808173ffffffffffffffffffffffffffffffffffffffff1681525050610081565b50565b6080516124a0620000a46000396000818161063a015261153601526124a06000f3fe608060405234801561001057600080fd5b50600436106100b45760003560e01c80638cda802d116100715780638cda802d146101b15780638ee36f05146101e1578063b5f3784614610211578063dba6335f14610242578063df87889f14610260578063e07fddcc14610290576100b4565b80630fcaac1b146100b957806312a29f12146100d557806326f34782146100f15780634129b2c91461012157806346f6dadc1461015157806384f241f414610181575b600080fd5b6100d360048036038101906100ce9190611950565b6102c0565b005b6100ef60048036038101906100ea9190611bd2565b6105d4565b005b61010b60048036038101906101069190611c41565b6107de565b6040516101189190611c7d565b60405180910390f35b61013b60048036038101906101369190611c41565b610839565b6040516101489190611dd9565b60405180910390f35b61016b60048036038101906101669190611c41565b610e59565b6040516101789190611e45565b60405180910390f35b61019b60048036038101906101969190611c41565b6111f6565b6040516101a89190611e82565b60405180910390f35b6101cb60048036038101906101c69190611e9d565b6112fe565b6040516101d89190611c7d565b60405180910390f35b6101fb60048036038101906101f69190611f57565b611339565b6040516102089190611e82565b60405180910390f35b61022b60048036038101906102269190611c41565b611510565b604051610239929190611f97565b60405180910390f35b61024a611534565b6040516102579190611fcf565b60405180910390f35b61027a60048036038101906102759190611e9d565b611558565b6040516102879190611c7d565b60405180910390f35b6102aa60048036038101906102a59190611c41565b6115ce565b6040516102b79190611e45565b60405180910390f35b6102d467b754daac3fec44ca60c01b61166e565b6102e867343ceaa2c9aab9d760c01b61166e565b6102fc671d09c8a5d881dcc360c01b61166e565b60006103083385611339565b905061031e67c409f0e0b8350ce960c01b61166e565b610332678400655db39aa26360c01b61166e565b80156103925761034c67e76aebf88aeb496860c01b61166e565b61036067f1b2aa77028dbbd960c01b61166e565b6040517f0ac87b1c00000000000000000000000000000000000000000000000000000000815260040160405180910390fd5b6103a6672c7a68d990ff4a6b60c01b61166e565b6103ba6759e37c9ef484a79960c01b61166e565b6103ce67d4ccf143559722f060c01b61166e565b60006103d9856111f6565b90506103ef674a98b144cf251b2e60c01b61166e565b610403674d8650ac161d755a60c01b61166e565b80156104635761041d67d866b39d02480bb860c01b61166e565b6104316733049e6c149f443c60c01b61166e565b6040517f1268f9a600000000000000000000000000000000000000000000000000000000815260040160405180910390fd5b610477673271825c667f0b4b60c01b61166e565b61048b67c6ab3b44eaa695a760c01b61166e565b6001600086815260200190815260200160002084846040516104ae92919061201a565b908152602001604051809103902060008154809291906104cd90612062565b91905055506104e66785dbe8edb2682b3860c01b61166e565b6104fa67528a1506948db99960c01b61166e565b600080868152602001908152602001600020339080600181540180825580915050600190039060005260206000200160009091909190916101000a81548173ffffffffffffffffffffffffffffffffffffffff021916908373ffffffffffffffffffffffffffffffffffffffff16021790555061058167df5aaf766c5e53e160c01b61166e565b6105956765e05fd8de0601f760c01b61166e565b847fa084b505cb17cb66654f1eb02dde5aa286712c76c694f81e700c25e82d32d1ec336040516105c59190611fcf565b60405180910390a25050505050565b6105e867739336e9969d6fd660c01b61166e565b6105fc671b0571d88cd50dc260c01b61166e565b61061067b7f7e369c02569ef60c01b61166e565b61062467f3ae9fb9477e4c4460c01b61166e565b610638674272c6dc4dc23cb860c01b61166e565b7f000000000000000000000000000000000000000000000000000000000000000073ffffffffffffffffffffffffffffffffffffffff163373ffffffffffffffffffffffffffffffffffffffff161461069057600080fd5b6106a467a1d38f3730969a6260c01b61166e565b6106b867e364842fd7cb94f360c01b61166e565b6106cc6787b235abeb51589060c01b61166e565b6106e0675c2877fd9437109b60c01b61166e565b6106f467d2d6f42cd65c0f0360c01b61166e565b6107086750dd639e6cf87a4060c01b61166e565b6000604051806060016040528084815260200183815260200142815250905061073b67f0482e5c08b85fd760c01b61166e565b8060026000868152602001908152602001600020600082015181600001908051906020019061076b9291906117c7565b5060208201518160010155604082015181600201559050506107976729fab41b1d4ec23a60c01b61166e565b6107ab6750b14cd9aa5ac20460c01b61166e565b837f3e8e3d753052c785eaa664810323ba37e786d5e5f11716c0767824c6ad6b8bf460405160405180910390a250505050565b60006107f467b540377284de2a0160c01b61166e565b610808671c61058012997e8360c01b61166e565b61081c67263dbeb097364c5360c01b61166e565b600080838152602001908152602001600020805490509050919050565b606061084f67a168394d9ea598fa60c01b61166e565b610863673104aaa01e31f37b60c01b61166e565b610877674b41fb02c9cde96860c01b61166e565b6000600267ffffffffffffffff811115610894576108936119c1565b5b6040519080825280602002602001820160405280156108c757816020015b60608152602001906001900390816108b25790505b5090506108de67ee285aec88b0aadb60c01b61166e565b6040518060400160405280600381526020017f444d4b000000000000000000000000000000000000000000000000000000000081525081600081518110610928576109276120aa565b5b6020026020010181905250610947676d32c1bf2ff6b95760c01b61166e565b6040518060400160405280600481526020017f41444d4b0000000000000000000000000000000000000000000000000000000081525081600181518110610991576109906120aa565b5b60200260200101819052506109b0679b72853f013d35b460c01b61166e565b6109c46781d6c8cd4f9dbc5b60c01b61166e565b60606109da67b2ce64aad708685b60c01b61166e565b6109ee673075fa28e1e962c660c01b61166e565b60006109f9856111f6565b9050610a0f67d1e9366017a86b2860c01b61166e565b610a2367b375a0ff4c1fd5f160c01b61166e565b80610a8257610a3c67d4e9288ff88f60c360c01b61166e565b610a50670a8bb86dd9f1d51860c01b61166e565b6040517f20c87c7f00000000000000000000000000000000000000000000000000000000815260040160405180910390fd5b610a9667b093b88cff8454b160c01b61166e565b610aaa67757adc2861a491b860c01b61166e565b610abe6790ddfe03a2f8555e60c01b61166e565b6000610ad467190ecf8848dbe9d560c01b61166e565b610ae867ae51dae23474a12b60c01b61166e565b600060026000888152602001908152602001600020600001805490509050610b1a679a77f5bfab73959e60c01b61166e565b610b2e673f25c9c015b125b860c01b61166e565b60005b81811015610d1d57610b4d674aac1a37c49701a260c01b61166e565b610b61674c5b4f44f31ffed160c01b61166e565b6000600260008a81526020019081526020016000206000018281548110610b8b57610b8a6120aa565b5b906000526020600020018054610ba090612108565b80601f0160208091040260200160405190810160405280929190818152602001828054610bcc90612108565b8015610c195780601f10610bee57610100808354040283529160200191610c19565b820191906000526020600020905b815481529060010190602001808311610bfc57829003601f168201915b50505050509050610c34673d488fbb6647e38d60c01b61166e565b610c4867e6f25582675f4aaf60c01b61166e565b6000600160008b815260200190815260200160002082604051610c6b919061216a565b9081526020016040518091039020549050610c9067b2ee8c4a99e23c4c60c01b61166e565b610ca467a66beeb10802a76a60c01b61166e565b84811115610cf357610cc067d3755bc00782442760c01b61166e565b610cd4679216c6835aa7a16960c01b61166e565b809450610ceb67d9f419156daeb04d60c01b61166e565b819650610d08565b610d07671b81a946fe15d78060c01b61166e565b5b50508080610d1590612062565b915050610b31565b50610d326731116ab9dcce3bef60c01b61166e565b610d4667dc280377f5581d5560c01b61166e565b610d846040518060400160405280600581526020017f48656c6c6f000000000000000000000000000000000000000000000000000000815250611671565b610d9867e283e2c174c2826560c01b61166e565b610dac677c945dd92dc1a79f60c01b61166e565b83604051610dba919061216a565b6040518091039020877f7865a5b87ed8ddc185f397432e64dd75749327ff500fef134ba9319d910654b960405160405180910390a3610e0367bab885eb1371b54560c01b61166e565b83600360008981526020019081526020016000209081610e23919061232d565b50610e3867721ba938497c79ea60c01b61166e565b610e4c67a8a16f7ae1729dc360c01b61166e565b8495505050505050919050565b6060610e6f672587b8949791399060c01b61166e565b610e83671dc8b8a03b8f024f60c01b61166e565b610e9767e65eda1c4383c18660c01b61166e565b6000610ea2836111f6565b9050610eb867072f062cc398984560c01b61166e565b610ecc6762e5356f9685555760c01b61166e565b80610eea57610ee567ffaec8c1656dfba260c01b61166e565b610eff565b610efe671cfc5c3f957ac69b60c01b61166e565b5b610f1367386a86b23f357e1860c01b61166e565b610f2767aa4a282041f84f9660c01b61166e565b6000610f3d6734890eb3c4dc848a60c01b61166e565b610f51670c4ec6f3014509d860c01b61166e565b600060026000868152602001908152602001600020600001805490509050610f8367f67da6f08c1f286260c01b61166e565b610f976766c6dd4c6b63ac5c60c01b61166e565b60005b8181101561118657610fb667c8ad1fecf81a401260c01b61166e565b610fca67ec9ca23ec877bc7660c01b61166e565b6000600260008881526020019081526020016000206000018281548110610ff457610ff36120aa565b5b90600052602060002001805461100990612108565b80601f016020809104026020016040519081016040528092919081815260200182805461103590612108565b80156110825780601f1061105757610100808354040283529160200191611082565b820191906000526020600020905b81548152906001019060200180831161106557829003601f168201915b5050505050905061109d67d663f230bbf2733960c01b61166e565b6110b1677365504391af79b460c01b61166e565b600060016000898152602001908152602001600020826040516110d4919061216a565b90815260200160405180910390205490506110f967f0ad6e533f8645e860c01b61166e565b61110d678a95e8156049891460c01b61166e565b8481111561115c57611129672b29151e913fd87560c01b61166e565b61113d67fc661afddf14cd6160c01b61166e565b80945061115467fede3bc76f6b77fc60c01b61166e565b819650611171565b61117067cd5f6769505d5e2260c01b61166e565b5b5050808061117e90612062565b915050610f9a565b5061119b67c4355eda60fdb51460c01b61166e565b6111af679ba5df39bec8d6c460c01b61166e565b6111ee846040518060400160405280600981526020017f206864626a646b6a6b000000000000000000000000000000000000000000000081525061170a565b505050919050565b600061120c6765b756607f5b528560c01b61166e565b61122067d9aeaee52ec2da9060c01b61166e565b611234679c44299124cbafa260c01b61166e565b600260008381526020019081526020016000206001015460026000848152602001908152602001600020600201544261126d91906123ff565b11156112b857611287670c5b032000a249fb60c01b61166e565b61129b67ad4eaf286cc7c8b460c01b61166e565b6112af675890198d82504d7960c01b61166e565b600190506112f9565b6112cc67e796eb2598ed3a8e60c01b61166e565b6112e06751077ffc26eee6ad60c01b61166e565b6112f46790402e7057fa569260c01b61166e565b600090505b919050565b600160205281600052604060002081805160208101820180518482526020830160208501208183528095505050505050600091509150505481565b600061134f6785af48e66e2eb88f60c01b61166e565b61136367d4a690158a7fa1d360c01b61166e565b61137767f8db1e0df538969c60c01b61166e565b60008060008481526020019081526020016000208054905090506113a56716073a9c8149120260c01b61166e565b6113b9675570ba388da5cfd860c01b61166e565b60005b818110156114db576113d867ef7c07f68b52b96160c01b61166e565b6113ec67b9e14d6cb4fa1f7460c01b61166e565b8473ffffffffffffffffffffffffffffffffffffffff166000808681526020019081526020016000208281548110611427576114266120aa565b5b9060005260206000200160009054906101000a900473ffffffffffffffffffffffffffffffffffffffff1673ffffffffffffffffffffffffffffffffffffffff16036114b457611481676907b7a2bae84e5560c01b61166e565b611495671ecbe3c6aa1e33af60c01b61166e565b6114a967182001b4eda8eb1060c01b61166e565b60019250505061150a565b6114c867997551d252fd3a5460c01b61166e565b80806114d390612062565b9150506113bc565b506114f0673f4e11c12378974a60c01b61166e565b611504673722ae049768b6d460c01b61166e565b60009150505b92915050565b60026020528060005260406000206000915090508060010154908060020154905082565b7f000000000000000000000000000000000000000000000000000000000000000081565b600061156e6760db11595df071c160c01b61166e565b611582674129fea17450d03a60c01b61166e565b611596675550c30667ae49d860c01b61166e565b60016000848152602001908152602001600020826040516115b7919061216a565b908152602001604051809103902054905092915050565b600360205280600052604060002060009150905080546115ed90612108565b80601f016020809104026020016040519081016040528092919081815260200182805461161990612108565b80156116665780601f1061163b57610100808354040283529160200191611666565b820191906000526020600020905b81548152906001019060200180831161164957829003601f168201915b505050505081565b50565b611707816040516024016116859190611e45565b6040516020818303038152906040527f41304fac000000000000000000000000000000000000000000000000000000007bffffffffffffffffffffffffffffffffffffffffffffffffffffffff19166020820180517bffffffffffffffffffffffffffffffffffffffffffffffffffffffff83818316178352505050506117a6565b50565b6117a28282604051602401611720929190612433565b6040516020818303038152906040527f4b5c4277000000000000000000000000000000000000000000000000000000007bffffffffffffffffffffffffffffffffffffffffffffffffffffffff19166020820180517bffffffffffffffffffffffffffffffffffffffffffffffffffffffff83818316178352505050506117a6565b5050565b60006a636f6e736f6c652e6c6f679050600080835160208501845afa505050565b82805482825590600052602060002090810192821561180f579160200282015b8281111561180e5782518290816117fe919061232d565b50916020019190600101906117e7565b5b50905061181c9190611820565b5090565b5b8082111561184057600081816118379190611844565b50600101611821565b5090565b50805461185090612108565b6000825580601f106118625750611881565b601f0160209004906000526020600020908101906118809190611884565b5b50565b5b8082111561189d576000816000905550600101611885565b5090565b6000604051905090565b600080fd5b600080fd5b6000819050919050565b6118c8816118b5565b81146118d357600080fd5b50565b6000813590506118e5816118bf565b92915050565b600080fd5b600080fd5b600080fd5b60008083601f8401126119105761190f6118eb565b5b8235905067ffffffffffffffff81111561192d5761192c6118f0565b5b602083019150836001820283011115611949576119486118f5565b5b9250929050565b600080600060408486031215611969576119686118ab565b5b6000611977868287016118d6565b935050602084013567ffffffffffffffff811115611998576119976118b0565b5b6119a4868287016118fa565b92509250509250925092565b6000601f19601f8301169050919050565b7f4e487b7100000000000000000000000000000000000000000000000000000000600052604160045260246000fd5b6119f9826119b0565b810181811067ffffffffffffffff82111715611a1857611a176119c1565b5b80604052505050565b6000611a2b6118a1565b9050611a3782826119f0565b919050565b600067ffffffffffffffff821115611a5757611a566119c1565b5b602082029050602081019050919050565b600080fd5b600067ffffffffffffffff821115611a8857611a876119c1565b5b611a91826119b0565b9050602081019050919050565b82818337600083830152505050565b6000611ac0611abb84611a6d565b611a21565b905082815260208101848484011115611adc57611adb611a68565b5b611ae7848285611a9e565b509392505050565b600082601f830112611b0457611b036118eb565b5b8135611b14848260208601611aad565b91505092915050565b6000611b30611b2b84611a3c565b611a21565b90508083825260208201905060208402830185811115611b5357611b526118f5565b5b835b81811015611b9a57803567ffffffffffffffff811115611b7857611b776118eb565b5b808601611b858982611aef565b85526020850194505050602081019050611b55565b5050509392505050565b600082601f830112611bb957611bb86118eb565b5b8135611bc9848260208601611b1d565b91505092915050565b600080600060608486031215611beb57611bea6118ab565b5b6000611bf9868287016118d6565b935050602084013567ffffffffffffffff811115611c1a57611c196118b0565b5b611c2686828701611ba4565b9250506040611c37868287016118d6565b9150509250925092565b600060208284031215611c5757611c566118ab565b5b6000611c65848285016118d6565b91505092915050565b611c77816118b5565b82525050565b6000602082019050611c926000830184611c6e565b92915050565b600081519050919050565b600082825260208201905092915050565b6000819050602082019050919050565b600081519050919050565b600082825260208201905092915050565b60005b83811015611cfe578082015181840152602081019050611ce3565b60008484015250505050565b6000611d1582611cc4565b611d1f8185611ccf565b9350611d2f818560208601611ce0565b611d38816119b0565b840191505092915050565b6000611d4f8383611d0a565b905092915050565b6000602082019050919050565b6000611d6f82611c98565b611d798185611ca3565b935083602082028501611d8b85611cb4565b8060005b85811015611dc75784840389528151611da88582611d43565b9450611db383611d57565b925060208a01995050600181019050611d8f565b50829750879550505050505092915050565b60006020820190508181036000830152611df38184611d64565b905092915050565b600082825260208201905092915050565b6000611e1782611cc4565b611e218185611dfb565b9350611e31818560208601611ce0565b611e3a816119b0565b840191505092915050565b60006020820190508181036000830152611e5f8184611e0c565b905092915050565b60008115159050919050565b611e7c81611e67565b82525050565b6000602082019050611e976000830184611e73565b92915050565b60008060408385031215611eb457611eb36118ab565b5b6000611ec2858286016118d6565b925050602083013567ffffffffffffffff811115611ee357611ee26118b0565b5b611eef85828601611aef565b9150509250929050565b600073ffffffffffffffffffffffffffffffffffffffff82169050919050565b6000611f2482611ef9565b9050919050565b611f3481611f19565b8114611f3f57600080fd5b50565b600081359050611f5181611f2b565b92915050565b60008060408385031215611f6e57611f6d6118ab565b5b6000611f7c85828601611f42565b9250506020611f8d858286016118d6565b9150509250929050565b6000604082019050611fac6000830185611c6e565b611fb96020830184611c6e565b9392505050565b611fc981611f19565b82525050565b6000602082019050611fe46000830184611fc0565b92915050565b600081905092915050565b60006120018385611fea565b935061200e838584611a9e565b82840190509392505050565b6000612027828486611ff5565b91508190509392505050565b7f4e487b7100000000000000000000000000000000000000000000000000000000600052601160045260246000fd5b600061206d826118b5565b91507fffffffffffffffffffffffffffffffffffffffffffffffffffffffffffffffff820361209f5761209e612033565b5b600182019050919050565b7f4e487b7100000000000000000000000000000000000000000000000000000000600052603260045260246000fd5b7f4e487b7100000000000000000000000000000000000000000000000000000000600052602260045260246000fd5b6000600282049050600182168061212057607f821691505b602082108103612133576121326120d9565b5b50919050565b600061214482611cc4565b61214e8185611fea565b935061215e818560208601611ce0565b80840191505092915050565b60006121768284612139565b915081905092915050565b60008190508160005260206000209050919050565b60006020601f8301049050919050565b600082821b905092915050565b6000600883026121e37fffffffffffffffffffffffffffffffffffffffffffffffffffffffffffffffff826121a6565b6121ed86836121a6565b95508019841693508086168417925050509392505050565b6000819050919050565b600061222a612225612220846118b5565b612205565b6118b5565b9050919050565b6000819050919050565b6122448361220f565b61225861225082612231565b8484546121b3565b825550505050565b600090565b61226d612260565b61227881848461223b565b505050565b5b8181101561229c57612291600082612265565b60018101905061227e565b5050565b601f8211156122e1576122b281612181565b6122bb84612196565b810160208510156122ca578190505b6122de6122d685612196565b83018261227d565b50505b505050565b600082821c905092915050565b6000612304600019846008026122e6565b1980831691505092915050565b600061231d83836122f3565b9150826002028217905092915050565b61233682611cc4565b67ffffffffffffffff81111561234f5761234e6119c1565b5b6123598254612108565b6123648282856122a0565b600060209050601f8311600181146123975760008415612385578287015190505b61238f8582612311565b8655506123f7565b601f1984166123a586612181565b60005b828110156123cd578489015182556001820191506020850194506020810190506123a8565b868310156123ea57848901516123e6601f8916826122f3565b8355505b6001600288020188555050505b505050505050565b600061240a826118b5565b9150612415836118b5565b925082820390508181111561242d5761242c612033565b5b92915050565b6000604082019050818103600083015261244d8185611e0c565b905081810360208301526124618184611e0c565b9050939250505056fea2646970667358221220abe058314c6137a7ba778730afa75a4910c61fccb53125dd9a163ba6a9ea848964736f6c63430008120033","opcodes":"PUSH1 0xA0 PUSH1 0x40 MSTORE CALLVALUE DUP1 ISZERO PUSH2 0x10 JUMPI PUSH1 0x0 DUP1 REVERT JUMPDEST POP PUSH2 0x2B PUSH8 0x17C70658CCA0DA00 PUSH1 0xC0 SHL PUSH2 0x7E PUSH1 0x20 SHL PUSH1 0x20 SHR JUMP JUMPDEST PUSH2 0x45 PUSH8 0xE212A08A379629BB PUSH1 0xC0 SHL PUSH2 0x7E PUSH1 0x20 SHL PUSH1 0x20 SHR JUMP JUMPDEST CALLER PUSH20 0xFFFFFFFFFFFFFFFFFFFFFFFFFFFFFFFFFFFFFFFF AND PUSH1 0x80 DUP2 PUSH20 0xFFFFFFFFFFFFFFFFFFFFFFFFFFFFFFFFFFFFFFFF AND DUP2 MSTORE POP POP PUSH2 0x81 JUMP JUMPDEST POP JUMP JUMPDEST PUSH1 0x80 MLOAD PUSH2 0x24A0 PUSH3 0xA4 PUSH1 0x0 CODECOPY PUSH1 0x0 DUP2 DUP2 PUSH2 0x63A ADD MSTORE PUSH2 0x1536 ADD MSTORE PUSH2 0x24A0 PUSH1 0x0 RETURN INVALID PUSH1 0x80 PUSH1 0x40 MSTORE CALLVALUE DUP1 ISZERO PUSH2 0x10 JUMPI PUSH1 0x0 DUP1 REVERT JUMPDEST POP PUSH1 0x4 CALLDATASIZE LT PUSH2 0xB4 JUMPI PUSH1 0x0 CALLDATALOAD PUSH1 0xE0 SHR DUP1 PUSH4 0x8CDA802D GT PUSH2 0x71 JUMPI DUP1 PUSH4 0x8CDA802D EQ PUSH2 0x1B1 JUMPI DUP1 PUSH4 0x8EE36F05 EQ PUSH2 0x1E1 JUMPI DUP1 PUSH4 0xB5F37846 EQ PUSH2 0x211 JUMPI DUP1 PUSH4 0xDBA6335F EQ PUSH2 0x242 JUMPI DUP1 PUSH4 0xDF87889F EQ PUSH2 0x260 JUMPI DUP1 PUSH4 0xE07FDDCC EQ PUSH2 0x290 JUMPI PUSH2 0xB4 JUMP JUMPDEST DUP1 PUSH4 0xFCAAC1B EQ PUSH2 0xB9 JUMPI DUP1 PUSH4 0x12A29F12 EQ PUSH2 0xD5 JUMPI DUP1 PUSH4 0x26F34782 EQ PUSH2 0xF1 JUMPI DUP1 PUSH4 0x4129B2C9 EQ PUSH2 0x121 JUMPI DUP1 PUSH4 0x46F6DADC EQ PUSH2 0x151 JUMPI DUP1 PUSH4 0x84F241F4 EQ PUSH2 0x181 JUMPI JUMPDEST PUSH1 0x0 DUP1 REVERT JUMPDEST PUSH2 0xD3 PUSH1 0x4 DUP1 CALLDATASIZE SUB DUP2 ADD SWAP1 PUSH2 0xCE SWAP2 SWAP1 PUSH2 0x1950 JUMP JUMPDEST PUSH2 0x2C0 JUMP JUMPDEST STOP JUMPDEST PUSH2 0xEF PUSH1 0x4 DUP1 CALLDATASIZE SUB DUP2 ADD SWAP1 PUSH2 0xEA SWAP2 SWAP1 PUSH2 0x1BD2 JUMP JUMPDEST PUSH2 0x5D4 JUMP JUMPDEST STOP JUMPDEST PUSH2 0x10B PUSH1 0x4 DUP1 CALLDATASIZE SUB DUP2 ADD SWAP1 PUSH2 0x106 SWAP2 SWAP1 PUSH2 0x1C41 JUMP JUMPDEST PUSH2 0x7DE JUMP JUMPDEST PUSH1 0x40 MLOAD PUSH2 0x118 SWAP2 SWAP1 PUSH2 0x1C7D JUMP JUMPDEST PUSH1 0x40 MLOAD DUP1 SWAP2 SUB SWAP1 RETURN JUMPDEST PUSH2 0x13B PUSH1 0x4 DUP1 CALLDATASIZE SUB DUP2 ADD SWAP1 PUSH2 0x136 SWAP2 SWAP1 PUSH2 0x1C41 JUMP JUMPDEST PUSH2 0x839 JUMP JUMPDEST PUSH1 0x40 MLOAD PUSH2 0x148 SWAP2 SWAP1 PUSH2 0x1DD9 JUMP JUMPDEST PUSH1 0x40 MLOAD DUP1 SWAP2 SUB SWAP1 RETURN JUMPDEST PUSH2 0x16B PUSH1 0x4 DUP1 CALLDATASIZE SUB DUP2 ADD SWAP1 PUSH2 0x166 SWAP2 SWAP1 PUSH2 0x1C41 JUMP JUMPDEST PUSH2 0xE59 JUMP JUMPDEST PUSH1 0x40 MLOAD PUSH2 0x178 SWAP2 SWAP1 PUSH2 0x1E45 JUMP JUMPDEST PUSH1 0x40 MLOAD DUP1 SWAP2 SUB SWAP1 RETURN JUMPDEST PUSH2 0x19B PUSH1 0x4 DUP1 CALLDATASIZE SUB DUP2 ADD SWAP1 PUSH2 0x196 SWAP2 SWAP1 PUSH2 0x1C41 JUMP JUMPDEST PUSH2 0x11F6 JUMP JUMPDEST PUSH1 0x40 MLOAD PUSH2 0x1A8 SWAP2 SWAP1 PUSH2 0x1E82 JUMP JUMPDEST PUSH1 0x40 MLOAD DUP1 SWAP2 SUB SWAP1 RETURN JUMPDEST PUSH2 0x1CB PUSH1 0x4 DUP1 CALLDATASIZE SUB DUP2 ADD SWAP1 PUSH2 0x1C6 SWAP2 SWAP1 PUSH2 0x1E9D JUMP JUMPDEST PUSH2 0x12FE JUMP JUMPDEST PUSH1 0x40 MLOAD PUSH2 0x1D8 SWAP2 SWAP1 PUSH2 0x1C7D JUMP JUMPDEST PUSH1 0x40 MLOAD DUP1 SWAP2 SUB SWAP1 RETURN JUMPDEST PUSH2 0x1FB PUSH1 0x4 DUP1 CALLDATASIZE SUB DUP2 ADD SWAP1 PUSH2 0x1F6 SWAP2 SWAP1 PUSH2 0x1F57 JUMP JUMPDEST PUSH2 0x1339 JUMP JUMPDEST PUSH1 0x40 MLOAD PUSH2 0x208 SWAP2 SWAP1 PUSH2 0x1E82 JUMP JUMPDEST PUSH1 0x40 MLOAD DUP1 SWAP2 SUB SWAP1 RETURN JUMPDEST PUSH2 0x22B PUSH1 0x4 DUP1 CALLDATASIZE SUB DUP2 ADD SWAP1 PUSH2 0x226 SWAP2 SWAP1 PUSH2 0x1C41 JUMP JUMPDEST PUSH2 0x1510 JUMP JUMPDEST PUSH1 0x40 MLOAD PUSH2 0x239 SWAP3 SWAP2 SWAP1 PUSH2 0x1F97 JUMP JUMPDEST PUSH1 0x40 MLOAD DUP1 SWAP2 SUB SWAP1 RETURN JUMPDEST PUSH2 0x24A PUSH2 0x1534 JUMP JUMPDEST PUSH1 0x40 MLOAD PUSH2 0x257 SWAP2 SWAP1 PUSH2 0x1FCF JUMP JUMPDEST PUSH1 0x40 MLOAD DUP1 SWAP2 SUB SWAP1 RETURN JUMPDEST PUSH2 0x27A PUSH1 0x4 DUP1 CALLDATASIZE SUB DUP2 ADD SWAP1 PUSH2 0x275 SWAP2 SWAP1 PUSH2 0x1E9D JUMP JUMPDEST PUSH2 0x1558 JUMP JUMPDEST PUSH1 0x40 MLOAD PUSH2 0x287 SWAP2 SWAP1 PUSH2 0x1C7D JUMP JUMPDEST PUSH1 0x40 MLOAD DUP1 SWAP2 SUB SWAP1 RETURN JUMPDEST PUSH2 0x2AA PUSH1 0x4 DUP1 CALLDATASIZE SUB DUP2 ADD SWAP1 PUSH2 0x2A5 SWAP2 SWAP1 PUSH2 0x1C41 JUMP JUMPDEST PUSH2 0x15CE JUMP JUMPDEST PUSH1 0x40 MLOAD PUSH2 0x2B7 SWAP2 SWAP1 PUSH2 0x1E45 JUMP JUMPDEST PUSH1 0x40 MLOAD DUP1 SWAP2 SUB SWAP1 RETURN JUMPDEST PUSH2 0x2D4 PUSH8 0xB754DAAC3FEC44CA PUSH1 0xC0 SHL PUSH2 0x166E JUMP JUMPDEST PUSH2 0x2E8 PUSH8 0x343CEAA2C9AAB9D7 PUSH1 0xC0 SHL PUSH2 0x166E JUMP JUMPDEST PUSH2 0x2FC PUSH8 0x1D09C8A5D881DCC3 PUSH1 0xC0 SHL PUSH2 0x166E JUMP JUMPDEST PUSH1 0x0 PUSH2 0x308 CALLER DUP6 PUSH2 0x1339 JUMP JUMPDEST SWAP1 POP PUSH2 0x31E PUSH8 0xC409F0E0B8350CE9 PUSH1 0xC0 SHL PUSH2 0x166E JUMP JUMPDEST PUSH2 0x332 PUSH8 0x8400655DB39AA263 PUSH1 0xC0 SHL PUSH2 0x166E JUMP JUMPDEST DUP1 ISZERO PUSH2 0x392 JUMPI PUSH2 0x34C PUSH8 0xE76AEBF88AEB4968 PUSH1 0xC0 SHL PUSH2 0x166E JUMP JUMPDEST PUSH2 0x360 PUSH8 0xF1B2AA77028DBBD9 PUSH1 0xC0 SHL PUSH2 0x166E JUMP JUMPDEST PUSH1 0x40 MLOAD PUSH32 0xAC87B1C00000000000000000000000000000000000000000000000000000000 DUP2 MSTORE PUSH1 0x4 ADD PUSH1 0x40 MLOAD DUP1 SWAP2 SUB SWAP1 REVERT JUMPDEST PUSH2 0x3A6 PUSH8 0x2C7A68D990FF4A6B PUSH1 0xC0 SHL PUSH2 0x166E JUMP JUMPDEST PUSH2 0x3BA PUSH8 0x59E37C9EF484A799 PUSH1 0xC0 SHL PUSH2 0x166E JUMP JUMPDEST PUSH2 0x3CE PUSH8 0xD4CCF143559722F0 PUSH1 0xC0 SHL PUSH2 0x166E JUMP JUMPDEST PUSH1 0x0 PUSH2 0x3D9 DUP6 PUSH2 0x11F6 JUMP JUMPDEST SWAP1 POP PUSH2 0x3EF PUSH8 0x4A98B144CF251B2E PUSH1 0xC0 SHL PUSH2 0x166E JUMP JUMPDEST PUSH2 0x403 PUSH8 0x4D8650AC161D755A PUSH1 0xC0 SHL PUSH2 0x166E JUMP JUMPDEST DUP1 ISZERO PUSH2 0x463 JUMPI PUSH2 0x41D PUSH8 0xD866B39D02480BB8 PUSH1 0xC0 SHL PUSH2 0x166E JUMP JUMPDEST PUSH2 0x431 PUSH8 0x33049E6C149F443C PUSH1 0xC0 SHL PUSH2 0x166E JUMP JUMPDEST PUSH1 0x40 MLOAD PUSH32 0x1268F9A600000000000000000000000000000000000000000000000000000000 DUP2 MSTORE PUSH1 0x4 ADD PUSH1 0x40 MLOAD DUP1 SWAP2 SUB SWAP1 REVERT JUMPDEST PUSH2 0x477 PUSH8 0x3271825C667F0B4B PUSH1 0xC0 SHL PUSH2 0x166E JUMP JUMPDEST PUSH2 0x48B PUSH8 0xC6AB3B44EAA695A7 PUSH1 0xC0 SHL PUSH2 0x166E JUMP JUMPDEST PUSH1 0x1 PUSH1 0x0 DUP7 DUP2 MSTORE PUSH1 0x20 ADD SWAP1 DUP2 MSTORE PUSH1 0x20 ADD PUSH1 0x0 KECCAK256 DUP5 DUP5 PUSH1 0x40 MLOAD PUSH2 0x4AE SWAP3 SWAP2 SWAP1 PUSH2 0x201A JUMP JUMPDEST SWAP1 DUP2 MSTORE PUSH1 0x20 ADD PUSH1 0x40 MLOAD DUP1 SWAP2 SUB SWAP1 KECCAK256 PUSH1 0x0 DUP2 SLOAD DUP1 SWAP3 SWAP2 SWAP1 PUSH2 0x4CD SWAP1 PUSH2 0x2062 JUMP JUMPDEST SWAP2 SWAP1 POP SSTORE POP PUSH2 0x4E6 PUSH8 0x85DBE8EDB2682B38 PUSH1 0xC0 SHL PUSH2 0x166E JUMP JUMPDEST PUSH2 0x4FA PUSH8 0x528A1506948DB999 PUSH1 0xC0 SHL PUSH2 0x166E JUMP JUMPDEST PUSH1 0x0 DUP1 DUP7 DUP2 MSTORE PUSH1 0x20 ADD SWAP1 DUP2 MSTORE PUSH1 0x20 ADD PUSH1 0x0 KECCAK256 CALLER SWAP1 DUP1 PUSH1 0x1 DUP2 SLOAD ADD DUP1 DUP3 SSTORE DUP1 SWAP2 POP POP PUSH1 0x1 SWAP1 SUB SWAP1 PUSH1 0x0 MSTORE PUSH1 0x20 PUSH1 0x0 KECCAK256 ADD PUSH1 0x0 SWAP1 SWAP2 SWAP1 SWAP2 SWAP1 SWAP2 PUSH2 0x100 EXP DUP2 SLOAD DUP2 PUSH20 0xFFFFFFFFFFFFFFFFFFFFFFFFFFFFFFFFFFFFFFFF MUL NOT AND SWAP1 DUP4 PUSH20 0xFFFFFFFFFFFFFFFFFFFFFFFFFFFFFFFFFFFFFFFF AND MUL OR SWAP1 SSTORE POP PUSH2 0x581 PUSH8 0xDF5AAF766C5E53E1 PUSH1 0xC0 SHL PUSH2 0x166E JUMP JUMPDEST PUSH2 0x595 PUSH8 0x65E05FD8DE0601F7 PUSH1 0xC0 SHL PUSH2 0x166E JUMP JUMPDEST DUP5 PUSH32 0xA084B505CB17CB66654F1EB02DDE5AA286712C76C694F81E700C25E82D32D1EC CALLER PUSH1 0x40 MLOAD PUSH2 0x5C5 SWAP2 SWAP1 PUSH2 0x1FCF JUMP JUMPDEST PUSH1 0x40 MLOAD DUP1 SWAP2 SUB SWAP1 LOG2 POP POP POP POP POP JUMP JUMPDEST PUSH2 0x5E8 PUSH8 0x739336E9969D6FD6 PUSH1 0xC0 SHL PUSH2 0x166E JUMP JUMPDEST PUSH2 0x5FC PUSH8 0x1B0571D88CD50DC2 PUSH1 0xC0 SHL PUSH2 0x166E JUMP JUMPDEST PUSH2 0x610 PUSH8 0xB7F7E369C02569EF PUSH1 0xC0 SHL PUSH2 0x166E JUMP JUMPDEST PUSH2 0x624 PUSH8 0xF3AE9FB9477E4C44 PUSH1 0xC0 SHL PUSH2 0x166E JUMP JUMPDEST PUSH2 0x638 PUSH8 0x4272C6DC4DC23CB8 PUSH1 0xC0 SHL PUSH2 0x166E JUMP JUMPDEST PUSH32 0x0 PUSH20 0xFFFFFFFFFFFFFFFFFFFFFFFFFFFFFFFFFFFFFFFF AND CALLER PUSH20 0xFFFFFFFFFFFFFFFFFFFFFFFFFFFFFFFFFFFFFFFF AND EQ PUSH2 0x690 JUMPI PUSH1 0x0 DUP1 REVERT JUMPDEST PUSH2 0x6A4 PUSH8 0xA1D38F3730969A62 PUSH1 0xC0 SHL PUSH2 0x166E JUMP JUMPDEST PUSH2 0x6B8 PUSH8 0xE364842FD7CB94F3 PUSH1 0xC0 SHL PUSH2 0x166E JUMP JUMPDEST PUSH2 0x6CC PUSH8 0x87B235ABEB515890 PUSH1 0xC0 SHL PUSH2 0x166E JUMP JUMPDEST PUSH2 0x6E0 PUSH8 0x5C2877FD9437109B PUSH1 0xC0 SHL PUSH2 0x166E JUMP JUMPDEST PUSH2 0x6F4 PUSH8 0xD2D6F42CD65C0F03 PUSH1 0xC0 SHL PUSH2 0x166E JUMP JUMPDEST PUSH2 0x708 PUSH8 0x50DD639E6CF87A40 PUSH1 0xC0 SHL PUSH2 0x166E JUMP JUMPDEST PUSH1 0x0 PUSH1 0x40 MLOAD DUP1 PUSH1 0x60 ADD PUSH1 0x40 MSTORE DUP1 DUP5 DUP2 MSTORE PUSH1 0x20 ADD DUP4 DUP2 MSTORE PUSH1 0x20 ADD TIMESTAMP DUP2 MSTORE POP SWAP1 POP PUSH2 0x73B PUSH8 0xF0482E5C08B85FD7 PUSH1 0xC0 SHL PUSH2 0x166E JUMP JUMPDEST DUP1 PUSH1 0x2 PUSH1 0x0 DUP7 DUP2 MSTORE PUSH1 0x20 ADD SWAP1 DUP2 MSTORE PUSH1 0x20 ADD PUSH1 0x0 KECCAK256 PUSH1 0x0 DUP3 ADD MLOAD DUP2 PUSH1 0x0 ADD SWAP1 DUP1 MLOAD SWAP1 PUSH1 0x20 ADD SWAP1 PUSH2 0x76B SWAP3 SWAP2 SWAP1 PUSH2 0x17C7 JUMP JUMPDEST POP PUSH1 0x20 DUP3 ADD MLOAD DUP2 PUSH1 0x1 ADD SSTORE PUSH1 0x40 DUP3 ADD MLOAD DUP2 PUSH1 0x2 ADD SSTORE SWAP1 POP POP PUSH2 0x797 PUSH8 0x29FAB41B1D4EC23A PUSH1 0xC0 SHL PUSH2 0x166E JUMP JUMPDEST PUSH2 0x7AB PUSH8 0x50B14CD9AA5AC204 PUSH1 0xC0 SHL PUSH2 0x166E JUMP JUMPDEST DUP4 PUSH32 0x3E8E3D753052C785EAA664810323BA37E786D5E5F11716C0767824C6AD6B8BF4 PUSH1 0x40 MLOAD PUSH1 0x40 MLOAD DUP1 SWAP2 SUB SWAP1 LOG2 POP POP POP POP JUMP JUMPDEST PUSH1 0x0 PUSH2 0x7F4 PUSH8 0xB540377284DE2A01 PUSH1 0xC0 SHL PUSH2 0x166E JUMP JUMPDEST PUSH2 0x808 PUSH8 0x1C61058012997E83 PUSH1 0xC0 SHL PUSH2 0x166E JUMP JUMPDEST PUSH2 0x81C PUSH8 0x263DBEB097364C53 PUSH1 0xC0 SHL PUSH2 0x166E JUMP JUMPDEST PUSH1 0x0 DUP1 DUP4 DUP2 MSTORE PUSH1 0x20 ADD SWAP1 DUP2 MSTORE PUSH1 0x20 ADD PUSH1 0x0 KECCAK256 DUP1 SLOAD SWAP1 POP SWAP1 POP SWAP2 SWAP1 POP JUMP JUMPDEST PUSH1 0x60 PUSH2 0x84F PUSH8 0xA168394D9EA598FA PUSH1 0xC0 SHL PUSH2 0x166E JUMP JUMPDEST PUSH2 0x863 PUSH8 0x3104AAA01E31F37B PUSH1 0xC0 SHL PUSH2 0x166E JUMP JUMPDEST PUSH2 0x877 PUSH8 0x4B41FB02C9CDE968 PUSH1 0xC0 SHL PUSH2 0x166E JUMP JUMPDEST PUSH1 0x0 PUSH1 0x2 PUSH8 0xFFFFFFFFFFFFFFFF DUP2 GT ISZERO PUSH2 0x894 JUMPI PUSH2 0x893 PUSH2 0x19C1 JUMP JUMPDEST JUMPDEST PUSH1 0x40 MLOAD SWAP1 DUP1 DUP3 MSTORE DUP1 PUSH1 0x20 MUL PUSH1 0x20 ADD DUP3 ADD PUSH1 0x40 MSTORE DUP1 ISZERO PUSH2 0x8C7 JUMPI DUP2 PUSH1 0x20 ADD JUMPDEST PUSH1 0x60 DUP2 MSTORE PUSH1 0x20 ADD SWAP1 PUSH1 0x1 SWAP1 SUB SWAP1 DUP2 PUSH2 0x8B2 JUMPI SWAP1 POP JUMPDEST POP SWAP1 POP PUSH2 0x8DE PUSH8 0xEE285AEC88B0AADB PUSH1 0xC0 SHL PUSH2 0x166E JUMP JUMPDEST PUSH1 0x40 MLOAD DUP1 PUSH1 0x40 ADD PUSH1 0x40 MSTORE DUP1 PUSH1 0x3 DUP2 MSTORE PUSH1 0x20 ADD PUSH32 0x444D4B0000000000000000000000000000000000000000000000000000000000 DUP2 MSTORE POP DUP2 PUSH1 0x0 DUP2 MLOAD DUP2 LT PUSH2 0x928 JUMPI PUSH2 0x927 PUSH2 0x20AA JUMP JUMPDEST JUMPDEST PUSH1 0x20 MUL PUSH1 0x20 ADD ADD DUP2 SWAP1 MSTORE POP PUSH2 0x947 PUSH8 0x6D32C1BF2FF6B957 PUSH1 0xC0 SHL PUSH2 0x166E JUMP JUMPDEST PUSH1 0x40 MLOAD DUP1 PUSH1 0x40 ADD PUSH1 0x40 MSTORE DUP1 PUSH1 0x4 DUP2 MSTORE PUSH1 0x20 ADD PUSH32 0x41444D4B00000000000000000000000000000000000000000000000000000000 DUP2 MSTORE POP DUP2 PUSH1 0x1 DUP2 MLOAD DUP2 LT PUSH2 0x991 JUMPI PUSH2 0x990 PUSH2 0x20AA JUMP JUMPDEST JUMPDEST PUSH1 0x20 MUL PUSH1 0x20 ADD ADD DUP2 SWAP1 MSTORE POP PUSH2 0x9B0 PUSH8 0x9B72853F013D35B4 PUSH1 0xC0 SHL PUSH2 0x166E JUMP JUMPDEST PUSH2 0x9C4 PUSH8 0x81D6C8CD4F9DBC5B PUSH1 0xC0 SHL PUSH2 0x166E JUMP JUMPDEST PUSH1 0x60 PUSH2 0x9DA PUSH8 0xB2CE64AAD708685B PUSH1 0xC0 SHL PUSH2 0x166E JUMP JUMPDEST PUSH2 0x9EE PUSH8 0x3075FA28E1E962C6 PUSH1 0xC0 SHL PUSH2 0x166E JUMP JUMPDEST PUSH1 0x0 PUSH2 0x9F9 DUP6 PUSH2 0x11F6 JUMP JUMPDEST SWAP1 POP PUSH2 0xA0F PUSH8 0xD1E9366017A86B28 PUSH1 0xC0 SHL PUSH2 0x166E JUMP JUMPDEST PUSH2 0xA23 PUSH8 0xB375A0FF4C1FD5F1 PUSH1 0xC0 SHL PUSH2 0x166E JUMP JUMPDEST DUP1 PUSH2 0xA82 JUMPI PUSH2 0xA3C PUSH8 0xD4E9288FF88F60C3 PUSH1 0xC0 SHL PUSH2 0x166E JUMP JUMPDEST PUSH2 0xA50 PUSH8 0xA8BB86DD9F1D518 PUSH1 0xC0 SHL PUSH2 0x166E JUMP JUMPDEST PUSH1 0x40 MLOAD PUSH32 0x20C87C7F00000000000000000000000000000000000000000000000000000000 DUP2 MSTORE PUSH1 0x4 ADD PUSH1 0x40 MLOAD DUP1 SWAP2 SUB SWAP1 REVERT JUMPDEST PUSH2 0xA96 PUSH8 0xB093B88CFF8454B1 PUSH1 0xC0 SHL PUSH2 0x166E JUMP JUMPDEST PUSH2 0xAAA PUSH8 0x757ADC2861A491B8 PUSH1 0xC0 SHL PUSH2 0x166E JUMP JUMPDEST PUSH2 0xABE PUSH8 0x90DDFE03A2F8555E PUSH1 0xC0 SHL PUSH2 0x166E JUMP JUMPDEST PUSH1 0x0 PUSH2 0xAD4 PUSH8 0x190ECF8848DBE9D5 PUSH1 0xC0 SHL PUSH2 0x166E JUMP JUMPDEST PUSH2 0xAE8 PUSH8 0xAE51DAE23474A12B PUSH1 0xC0 SHL PUSH2 0x166E JUMP JUMPDEST PUSH1 0x0 PUSH1 0x2 PUSH1 0x0 DUP9 DUP2 MSTORE PUSH1 0x20 ADD SWAP1 DUP2 MSTORE PUSH1 0x20 ADD PUSH1 0x0 KECCAK256 PUSH1 0x0 ADD DUP1 SLOAD SWAP1 POP SWAP1 POP PUSH2 0xB1A PUSH8 0x9A77F5BFAB73959E PUSH1 0xC0 SHL PUSH2 0x166E JUMP JUMPDEST PUSH2 0xB2E PUSH8 0x3F25C9C015B125B8 PUSH1 0xC0 SHL PUSH2 0x166E JUMP JUMPDEST PUSH1 0x0 JUMPDEST DUP2 DUP2 LT ISZERO PUSH2 0xD1D JUMPI PUSH2 0xB4D PUSH8 0x4AAC1A37C49701A2 PUSH1 0xC0 SHL PUSH2 0x166E JUMP JUMPDEST PUSH2 0xB61 PUSH8 0x4C5B4F44F31FFED1 PUSH1 0xC0 SHL PUSH2 0x166E JUMP JUMPDEST PUSH1 0x0 PUSH1 0x2 PUSH1 0x0 DUP11 DUP2 MSTORE PUSH1 0x20 ADD SWAP1 DUP2 MSTORE PUSH1 0x20 ADD PUSH1 0x0 KECCAK256 PUSH1 0x0 ADD DUP3 DUP2 SLOAD DUP2 LT PUSH2 0xB8B JUMPI PUSH2 0xB8A PUSH2 0x20AA JUMP JUMPDEST JUMPDEST SWAP1 PUSH1 0x0 MSTORE PUSH1 0x20 PUSH1 0x0 KECCAK256 ADD DUP1 SLOAD PUSH2 0xBA0 SWAP1 PUSH2 0x2108 JUMP JUMPDEST DUP1 PUSH1 0x1F ADD PUSH1 0x20 DUP1 SWAP2 DIV MUL PUSH1 0x20 ADD PUSH1 0x40 MLOAD SWAP1 DUP2 ADD PUSH1 0x40 MSTORE DUP1 SWAP3 SWAP2 SWAP1 DUP2 DUP2 MSTORE PUSH1 0x20 ADD DUP3 DUP1 SLOAD PUSH2 0xBCC SWAP1 PUSH2 0x2108 JUMP JUMPDEST DUP1 ISZERO PUSH2 0xC19 JUMPI DUP1 PUSH1 0x1F LT PUSH2 0xBEE JUMPI PUSH2 0x100 DUP1 DUP4 SLOAD DIV MUL DUP4 MSTORE SWAP2 PUSH1 0x20 ADD SWAP2 PUSH2 0xC19 JUMP JUMPDEST DUP3 ADD SWAP2 SWAP1 PUSH1 0x0 MSTORE PUSH1 0x20 PUSH1 0x0 KECCAK256 SWAP1 JUMPDEST DUP2 SLOAD DUP2 MSTORE SWAP1 PUSH1 0x1 ADD SWAP1 PUSH1 0x20 ADD DUP1 DUP4 GT PUSH2 0xBFC JUMPI DUP3 SWAP1 SUB PUSH1 0x1F AND DUP3 ADD SWAP2 JUMPDEST POP POP POP POP POP SWAP1 POP PUSH2 0xC34 PUSH8 0x3D488FBB6647E38D PUSH1 0xC0 SHL PUSH2 0x166E JUMP JUMPDEST PUSH2 0xC48 PUSH8 0xE6F25582675F4AAF PUSH1 0xC0 SHL PUSH2 0x166E JUMP JUMPDEST PUSH1 0x0 PUSH1 0x1 PUSH1 0x0 DUP12 DUP2 MSTORE PUSH1 0x20 ADD SWAP1 DUP2 MSTORE PUSH1 0x20 ADD PUSH1 0x0 KECCAK256 DUP3 PUSH1 0x40 MLOAD PUSH2 0xC6B SWAP2 SWAP1 PUSH2 0x216A JUMP JUMPDEST SWAP1 DUP2 MSTORE PUSH1 0x20 ADD PUSH1 0x40 MLOAD DUP1 SWAP2 SUB SWAP1 KECCAK256 SLOAD SWAP1 POP PUSH2 0xC90 PUSH8 0xB2EE8C4A99E23C4C PUSH1 0xC0 SHL PUSH2 0x166E JUMP JUMPDEST PUSH2 0xCA4 PUSH8 0xA66BEEB10802A76A PUSH1 0xC0 SHL PUSH2 0x166E JUMP JUMPDEST DUP5 DUP2 GT ISZERO PUSH2 0xCF3 JUMPI PUSH2 0xCC0 PUSH8 0xD3755BC007824427 PUSH1 0xC0 SHL PUSH2 0x166E JUMP JUMPDEST PUSH2 0xCD4 PUSH8 0x9216C6835AA7A169 PUSH1 0xC0 SHL PUSH2 0x166E JUMP JUMPDEST DUP1 SWAP5 POP PUSH2 0xCEB PUSH8 0xD9F419156DAEB04D PUSH1 0xC0 SHL PUSH2 0x166E JUMP JUMPDEST DUP2 SWAP7 POP PUSH2 0xD08 JUMP JUMPDEST PUSH2 0xD07 PUSH8 0x1B81A946FE15D780 PUSH1 0xC0 SHL PUSH2 0x166E JUMP JUMPDEST JUMPDEST POP POP DUP1 DUP1 PUSH2 0xD15 SWAP1 PUSH2 0x2062 JUMP JUMPDEST SWAP2 POP POP PUSH2 0xB31 JUMP JUMPDEST POP PUSH2 0xD32 PUSH8 0x31116AB9DCCE3BEF PUSH1 0xC0 SHL PUSH2 0x166E JUMP JUMPDEST PUSH2 0xD46 PUSH8 0xDC280377F5581D55 PUSH1 0xC0 SHL PUSH2 0x166E JUMP JUMPDEST PUSH2 0xD84 PUSH1 0x40 MLOAD DUP1 PUSH1 0x40 ADD PUSH1 0x40 MSTORE DUP1 PUSH1 0x5 DUP2 MSTORE PUSH1 0x20 ADD PUSH32 0x48656C6C6F000000000000000000000000000000000000000000000000000000 DUP2 MSTORE POP PUSH2 0x1671 JUMP JUMPDEST PUSH2 0xD98 PUSH8 0xE283E2C174C28265 PUSH1 0xC0 SHL PUSH2 0x166E JUMP JUMPDEST PUSH2 0xDAC PUSH8 0x7C945DD92DC1A79F PUSH1 0xC0 SHL PUSH2 0x166E JUMP JUMPDEST DUP4 PUSH1 0x40 MLOAD PUSH2 0xDBA SWAP2 SWAP1 PUSH2 0x216A JUMP JUMPDEST PUSH1 0x40 MLOAD DUP1 SWAP2 SUB SWAP1 KECCAK256 DUP8 PUSH32 0x7865A5B87ED8DDC185F397432E64DD75749327FF500FEF134BA9319D910654B9 PUSH1 0x40 MLOAD PUSH1 0x40 MLOAD DUP1 SWAP2 SUB SWAP1 LOG3 PUSH2 0xE03 PUSH8 0xBAB885EB1371B545 PUSH1 0xC0 SHL PUSH2 0x166E JUMP JUMPDEST DUP4 PUSH1 0x3 PUSH1 0x0 DUP10 DUP2 MSTORE PUSH1 0x20 ADD SWAP1 DUP2 MSTORE PUSH1 0x20 ADD PUSH1 0x0 KECCAK256 SWAP1 DUP2 PUSH2 0xE23 SWAP2 SWAP1 PUSH2 0x232D JUMP JUMPDEST POP PUSH2 0xE38 PUSH8 0x721BA938497C79EA PUSH1 0xC0 SHL PUSH2 0x166E JUMP JUMPDEST PUSH2 0xE4C PUSH8 0xA8A16F7AE1729DC3 PUSH1 0xC0 SHL PUSH2 0x166E JUMP JUMPDEST DUP5 SWAP6 POP POP POP POP POP POP SWAP2 SWAP1 POP JUMP JUMPDEST PUSH1 0x60 PUSH2 0xE6F PUSH8 0x2587B89497913990 PUSH1 0xC0 SHL PUSH2 0x166E JUMP JUMPDEST PUSH2 0xE83 PUSH8 0x1DC8B8A03B8F024F PUSH1 0xC0 SHL PUSH2 0x166E JUMP JUMPDEST PUSH2 0xE97 PUSH8 0xE65EDA1C4383C186 PUSH1 0xC0 SHL PUSH2 0x166E JUMP JUMPDEST PUSH1 0x0 PUSH2 0xEA2 DUP4 PUSH2 0x11F6 JUMP JUMPDEST SWAP1 POP PUSH2 0xEB8 PUSH8 0x72F062CC3989845 PUSH1 0xC0 SHL PUSH2 0x166E JUMP JUMPDEST PUSH2 0xECC PUSH8 0x62E5356F96855557 PUSH1 0xC0 SHL PUSH2 0x166E JUMP JUMPDEST DUP1 PUSH2 0xEEA JUMPI PUSH2 0xEE5 PUSH8 0xFFAEC8C1656DFBA2 PUSH1 0xC0 SHL PUSH2 0x166E JUMP JUMPDEST PUSH2 0xEFF JUMP JUMPDEST PUSH2 0xEFE PUSH8 0x1CFC5C3F957AC69B PUSH1 0xC0 SHL PUSH2 0x166E JUMP JUMPDEST JUMPDEST PUSH2 0xF13 PUSH8 0x386A86B23F357E18 PUSH1 0xC0 SHL PUSH2 0x166E JUMP JUMPDEST PUSH2 0xF27 PUSH8 0xAA4A282041F84F96 PUSH1 0xC0 SHL PUSH2 0x166E JUMP JUMPDEST PUSH1 0x0 PUSH2 0xF3D PUSH8 0x34890EB3C4DC848A PUSH1 0xC0 SHL PUSH2 0x166E JUMP JUMPDEST PUSH2 0xF51 PUSH8 0xC4EC6F3014509D8 PUSH1 0xC0 SHL PUSH2 0x166E JUMP JUMPDEST PUSH1 0x0 PUSH1 0x2 PUSH1 0x0 DUP7 DUP2 MSTORE PUSH1 0x20 ADD SWAP1 DUP2 MSTORE PUSH1 0x20 ADD PUSH1 0x0 KECCAK256 PUSH1 0x0 ADD DUP1 SLOAD SWAP1 POP SWAP1 POP PUSH2 0xF83 PUSH8 0xF67DA6F08C1F2862 PUSH1 0xC0 SHL PUSH2 0x166E JUMP JUMPDEST PUSH2 0xF97 PUSH8 0x66C6DD4C6B63AC5C PUSH1 0xC0 SHL PUSH2 0x166E JUMP JUMPDEST PUSH1 0x0 JUMPDEST DUP2 DUP2 LT ISZERO PUSH2 0x1186 JUMPI PUSH2 0xFB6 PUSH8 0xC8AD1FECF81A4012 PUSH1 0xC0 SHL PUSH2 0x166E JUMP JUMPDEST PUSH2 0xFCA PUSH8 0xEC9CA23EC877BC76 PUSH1 0xC0 SHL PUSH2 0x166E JUMP JUMPDEST PUSH1 0x0 PUSH1 0x2 PUSH1 0x0 DUP9 DUP2 MSTORE PUSH1 0x20 ADD SWAP1 DUP2 MSTORE PUSH1 0x20 ADD PUSH1 0x0 KECCAK256 PUSH1 0x0 ADD DUP3 DUP2 SLOAD DUP2 LT PUSH2 0xFF4 JUMPI PUSH2 0xFF3 PUSH2 0x20AA JUMP JUMPDEST JUMPDEST SWAP1 PUSH1 0x0 MSTORE PUSH1 0x20 PUSH1 0x0 KECCAK256 ADD DUP1 SLOAD PUSH2 0x1009 SWAP1 PUSH2 0x2108 JUMP JUMPDEST DUP1 PUSH1 0x1F ADD PUSH1 0x20 DUP1 SWAP2 DIV MUL PUSH1 0x20 ADD PUSH1 0x40 MLOAD SWAP1 DUP2 ADD PUSH1 0x40 MSTORE DUP1 SWAP3 SWAP2 SWAP1 DUP2 DUP2 MSTORE PUSH1 0x20 ADD DUP3 DUP1 SLOAD PUSH2 0x1035 SWAP1 PUSH2 0x2108 JUMP JUMPDEST DUP1 ISZERO PUSH2 0x1082 JUMPI DUP1 PUSH1 0x1F LT PUSH2 0x1057 JUMPI PUSH2 0x100 DUP1 DUP4 SLOAD DIV MUL DUP4 MSTORE SWAP2 PUSH1 0x20 ADD SWAP2 PUSH2 0x1082 JUMP JUMPDEST DUP3 ADD SWAP2 SWAP1 PUSH1 0x0 MSTORE PUSH1 0x20 PUSH1 0x0 KECCAK256 SWAP1 JUMPDEST DUP2 SLOAD DUP2 MSTORE SWAP1 PUSH1 0x1 ADD SWAP1 PUSH1 0x20 ADD DUP1 DUP4 GT PUSH2 0x1065 JUMPI DUP3 SWAP1 SUB PUSH1 0x1F AND DUP3 ADD SWAP2 JUMPDEST POP POP POP POP POP SWAP1 POP PUSH2 0x109D PUSH8 0xD663F230BBF27339 PUSH1 0xC0 SHL PUSH2 0x166E JUMP JUMPDEST PUSH2 0x10B1 PUSH8 0x7365504391AF79B4 PUSH1 0xC0 SHL PUSH2 0x166E JUMP JUMPDEST PUSH1 0x0 PUSH1 0x1 PUSH1 0x0 DUP10 DUP2 MSTORE PUSH1 0x20 ADD SWAP1 DUP2 MSTORE PUSH1 0x20 ADD PUSH1 0x0 KECCAK256 DUP3 PUSH1 0x40 MLOAD PUSH2 0x10D4 SWAP2 SWAP1 PUSH2 0x216A JUMP JUMPDEST SWAP1 DUP2 MSTORE PUSH1 0x20 ADD PUSH1 0x40 MLOAD DUP1 SWAP2 SUB SWAP1 KECCAK256 SLOAD SWAP1 POP PUSH2 0x10F9 PUSH8 0xF0AD6E533F8645E8 PUSH1 0xC0 SHL PUSH2 0x166E JUMP JUMPDEST PUSH2 0x110D PUSH8 0x8A95E81560498914 PUSH1 0xC0 SHL PUSH2 0x166E JUMP JUMPDEST DUP5 DUP2 GT ISZERO PUSH2 0x115C JUMPI PUSH2 0x1129 PUSH8 0x2B29151E913FD875 PUSH1 0xC0 SHL PUSH2 0x166E JUMP JUMPDEST PUSH2 0x113D PUSH8 0xFC661AFDDF14CD61 PUSH1 0xC0 SHL PUSH2 0x166E JUMP JUMPDEST DUP1 SWAP5 POP PUSH2 0x1154 PUSH8 0xFEDE3BC76F6B77FC PUSH1 0xC0 SHL PUSH2 0x166E JUMP JUMPDEST DUP2 SWAP7 POP PUSH2 0x1171 JUMP JUMPDEST PUSH2 0x1170 PUSH8 0xCD5F6769505D5E22 PUSH1 0xC0 SHL PUSH2 0x166E JUMP JUMPDEST JUMPDEST POP POP DUP1 DUP1 PUSH2 0x117E SWAP1 PUSH2 0x2062 JUMP JUMPDEST SWAP2 POP POP PUSH2 0xF9A JUMP JUMPDEST POP PUSH2 0x119B PUSH8 0xC4355EDA60FDB514 PUSH1 0xC0 SHL PUSH2 0x166E JUMP JUMPDEST PUSH2 0x11AF PUSH8 0x9BA5DF39BEC8D6C4 PUSH1 0xC0 SHL PUSH2 0x166E JUMP JUMPDEST PUSH2 0x11EE DUP5 PUSH1 0x40 MLOAD DUP1 PUSH1 0x40 ADD PUSH1 0x40 MSTORE DUP1 PUSH1 0x9 DUP2 MSTORE PUSH1 0x20 ADD PUSH32 0x206864626A646B6A6B0000000000000000000000000000000000000000000000 DUP2 MSTORE POP PUSH2 0x170A JUMP JUMPDEST POP POP POP SWAP2 SWAP1 POP JUMP JUMPDEST PUSH1 0x0 PUSH2 0x120C PUSH8 0x65B756607F5B5285 PUSH1 0xC0 SHL PUSH2 0x166E JUMP JUMPDEST PUSH2 0x1220 PUSH8 0xD9AEAEE52EC2DA90 PUSH1 0xC0 SHL PUSH2 0x166E JUMP JUMPDEST PUSH2 0x1234 PUSH8 0x9C44299124CBAFA2 PUSH1 0xC0 SHL PUSH2 0x166E JUMP JUMPDEST PUSH1 0x2 PUSH1 0x0 DUP4 DUP2 MSTORE PUSH1 0x20 ADD SWAP1 DUP2 MSTORE PUSH1 0x20 ADD PUSH1 0x0 KECCAK256 PUSH1 0x1 ADD SLOAD PUSH1 0x2 PUSH1 0x0 DUP5 DUP2 MSTORE PUSH1 0x20 ADD SWAP1 DUP2 MSTORE PUSH1 0x20 ADD PUSH1 0x0 KECCAK256 PUSH1 0x2 ADD SLOAD TIMESTAMP PUSH2 0x126D SWAP2 SWAP1 PUSH2 0x23FF JUMP JUMPDEST GT ISZERO PUSH2 0x12B8 JUMPI PUSH2 0x1287 PUSH8 0xC5B032000A249FB PUSH1 0xC0 SHL PUSH2 0x166E JUMP JUMPDEST PUSH2 0x129B PUSH8 0xAD4EAF286CC7C8B4 PUSH1 0xC0 SHL PUSH2 0x166E JUMP JUMPDEST PUSH2 0x12AF PUSH8 0x5890198D82504D79 PUSH1 0xC0 SHL PUSH2 0x166E JUMP JUMPDEST PUSH1 0x1 SWAP1 POP PUSH2 0x12F9 JUMP JUMPDEST PUSH2 0x12CC PUSH8 0xE796EB2598ED3A8E PUSH1 0xC0 SHL PUSH2 0x166E JUMP JUMPDEST PUSH2 0x12E0 PUSH8 0x51077FFC26EEE6AD PUSH1 0xC0 SHL PUSH2 0x166E JUMP JUMPDEST PUSH2 0x12F4 PUSH8 0x90402E7057FA5692 PUSH1 0xC0 SHL PUSH2 0x166E JUMP JUMPDEST PUSH1 0x0 SWAP1 POP JUMPDEST SWAP2 SWAP1 POP JUMP JUMPDEST PUSH1 0x1 PUSH1 0x20 MSTORE DUP2 PUSH1 0x0 MSTORE PUSH1 0x40 PUSH1 0x0 KECCAK256 DUP2 DUP1 MLOAD PUSH1 0x20 DUP2 ADD DUP3 ADD DUP1 MLOAD DUP5 DUP3 MSTORE PUSH1 0x20 DUP4 ADD PUSH1 0x20 DUP6 ADD KECCAK256 DUP2 DUP4 MSTORE DUP1 SWAP6 POP POP POP POP POP POP PUSH1 0x0 SWAP2 POP SWAP2 POP POP SLOAD DUP2 JUMP JUMPDEST PUSH1 0x0 PUSH2 0x134F PUSH8 0x85AF48E66E2EB88F PUSH1 0xC0 SHL PUSH2 0x166E JUMP JUMPDEST PUSH2 0x1363 PUSH8 0xD4A690158A7FA1D3 PUSH1 0xC0 SHL PUSH2 0x166E JUMP JUMPDEST PUSH2 0x1377 PUSH8 0xF8DB1E0DF538969C PUSH1 0xC0 SHL PUSH2 0x166E JUMP JUMPDEST PUSH1 0x0 DUP1 PUSH1 0x0 DUP5 DUP2 MSTORE PUSH1 0x20 ADD SWAP1 DUP2 MSTORE PUSH1 0x20 ADD PUSH1 0x0 KECCAK256 DUP1 SLOAD SWAP1 POP SWAP1 POP PUSH2 0x13A5 PUSH8 0x16073A9C81491202 PUSH1 0xC0 SHL PUSH2 0x166E JUMP JUMPDEST PUSH2 0x13B9 PUSH8 0x5570BA388DA5CFD8 PUSH1 0xC0 SHL PUSH2 0x166E JUMP JUMPDEST PUSH1 0x0 JUMPDEST DUP2 DUP2 LT ISZERO PUSH2 0x14DB JUMPI PUSH2 0x13D8 PUSH8 0xEF7C07F68B52B961 PUSH1 0xC0 SHL PUSH2 0x166E JUMP JUMPDEST PUSH2 0x13EC PUSH8 0xB9E14D6CB4FA1F74 PUSH1 0xC0 SHL PUSH2 0x166E JUMP JUMPDEST DUP5 PUSH20 0xFFFFFFFFFFFFFFFFFFFFFFFFFFFFFFFFFFFFFFFF AND PUSH1 0x0 DUP1 DUP7 DUP2 MSTORE PUSH1 0x20 ADD SWAP1 DUP2 MSTORE PUSH1 0x20 ADD PUSH1 0x0 KECCAK256 DUP3 DUP2 SLOAD DUP2 LT PUSH2 0x1427 JUMPI PUSH2 0x1426 PUSH2 0x20AA JUMP JUMPDEST JUMPDEST SWAP1 PUSH1 0x0 MSTORE PUSH1 0x20 PUSH1 0x0 KECCAK256 ADD PUSH1 0x0 SWAP1 SLOAD SWAP1 PUSH2 0x100 EXP SWAP1 DIV PUSH20 0xFFFFFFFFFFFFFFFFFFFFFFFFFFFFFFFFFFFFFFFF AND PUSH20 0xFFFFFFFFFFFFFFFFFFFFFFFFFFFFFFFFFFFFFFFF AND SUB PUSH2 0x14B4 JUMPI PUSH2 0x1481 PUSH8 0x6907B7A2BAE84E55 PUSH1 0xC0 SHL PUSH2 0x166E JUMP JUMPDEST PUSH2 0x1495 PUSH8 0x1ECBE3C6AA1E33AF PUSH1 0xC0 SHL PUSH2 0x166E JUMP JUMPDEST PUSH2 0x14A9 PUSH8 0x182001B4EDA8EB10 PUSH1 0xC0 SHL PUSH2 0x166E JUMP JUMPDEST PUSH1 0x1 SWAP3 POP POP POP PUSH2 0x150A JUMP JUMPDEST PUSH2 0x14C8 PUSH8 0x997551D252FD3A54 PUSH1 0xC0 SHL PUSH2 0x166E JUMP JUMPDEST DUP1 DUP1 PUSH2 0x14D3 SWAP1 PUSH2 0x2062 JUMP JUMPDEST SWAP2 POP POP PUSH2 0x13BC JUMP JUMPDEST POP PUSH2 0x14F0 PUSH8 0x3F4E11C12378974A PUSH1 0xC0 SHL PUSH2 0x166E JUMP JUMPDEST PUSH2 0x1504 PUSH8 0x3722AE049768B6D4 PUSH1 0xC0 SHL PUSH2 0x166E JUMP JUMPDEST PUSH1 0x0 SWAP2 POP POP JUMPDEST SWAP3 SWAP2 POP POP JUMP JUMPDEST PUSH1 0x2 PUSH1 0x20 MSTORE DUP1 PUSH1 0x0 MSTORE PUSH1 0x40 PUSH1 0x0 KECCAK256 PUSH1 0x0 SWAP2 POP SWAP1 POP DUP1 PUSH1 0x1 ADD SLOAD SWAP1 DUP1 PUSH1 0x2 ADD SLOAD SWAP1 POP DUP3 JUMP JUMPDEST PUSH32 0x0 DUP2 JUMP JUMPDEST PUSH1 0x0 PUSH2 0x156E PUSH8 0x60DB11595DF071C1 PUSH1 0xC0 SHL PUSH2 0x166E JUMP JUMPDEST PUSH2 0x1582 PUSH8 0x4129FEA17450D03A PUSH1 0xC0 SHL PUSH2 0x166E JUMP JUMPDEST PUSH2 0x1596 PUSH8 0x5550C30667AE49D8 PUSH1 0xC0 SHL PUSH2 0x166E JUMP JUMPDEST PUSH1 0x1 PUSH1 0x0 DUP5 DUP2 MSTORE PUSH1 0x20 ADD SWAP1 DUP2 MSTORE PUSH1 0x20 ADD PUSH1 0x0 KECCAK256 DUP3 PUSH1 0x40 MLOAD PUSH2 0x15B7 SWAP2 SWAP1 PUSH2 0x216A JUMP JUMPDEST SWAP1 DUP2 MSTORE PUSH1 0x20 ADD PUSH1 0x40 MLOAD DUP1 SWAP2 SUB SWAP1 KECCAK256 SLOAD SWAP1 POP SWAP3 SWAP2 POP POP JUMP JUMPDEST PUSH1 0x3 PUSH1 0x20 MSTORE DUP1 PUSH1 0x0 MSTORE PUSH1 0x40 PUSH1 0x0 KECCAK256 PUSH1 0x0 SWAP2 POP SWAP1 POP DUP1 SLOAD PUSH2 0x15ED SWAP1 PUSH2 0x2108 JUMP JUMPDEST DUP1 PUSH1 0x1F ADD PUSH1 0x20 DUP1 SWAP2 DIV MUL PUSH1 0x20 ADD PUSH1 0x40 MLOAD SWAP1 DUP2 ADD PUSH1 0x40 MSTORE DUP1 SWAP3 SWAP2 SWAP1 DUP2 DUP2 MSTORE PUSH1 0x20 ADD DUP3 DUP1 SLOAD PUSH2 0x1619 SWAP1 PUSH2 0x2108 JUMP JUMPDEST DUP1 ISZERO PUSH2 0x1666 JUMPI DUP1 PUSH1 0x1F LT PUSH2 0x163B JUMPI PUSH2 0x100 DUP1 DUP4 SLOAD DIV MUL DUP4 MSTORE SWAP2 PUSH1 0x20 ADD SWAP2 PUSH2 0x1666 JUMP JUMPDEST DUP3 ADD SWAP2 SWAP1 PUSH1 0x0 MSTORE PUSH1 0x20 PUSH1 0x0 KECCAK256 SWAP1 JUMPDEST DUP2 SLOAD DUP2 MSTORE SWAP1 PUSH1 0x1 ADD SWAP1 PUSH1 0x20 ADD DUP1 DUP4 GT PUSH2 0x1649 JUMPI DUP3 SWAP1 SUB PUSH1 0x1F AND DUP3 ADD SWAP2 JUMPDEST POP POP POP POP POP DUP2 JUMP JUMPDEST POP JUMP JUMPDEST PUSH2 0x1707 DUP2 PUSH1 0x40 MLOAD PUSH1 0x24 ADD PUSH2 0x1685 SWAP2 SWAP1 PUSH2 0x1E45 JUMP JUMPDEST PUSH1 0x40 MLOAD PUSH1 0x20 DUP2 DUP4 SUB SUB DUP2 MSTORE SWAP1 PUSH1 0x40 MSTORE PUSH32 0x41304FAC00000000000000000000000000000000000000000000000000000000 PUSH28 0xFFFFFFFFFFFFFFFFFFFFFFFFFFFFFFFFFFFFFFFFFFFFFFFFFFFFFFFF NOT AND PUSH1 0x20 DUP3 ADD DUP1 MLOAD PUSH28 0xFFFFFFFFFFFFFFFFFFFFFFFFFFFFFFFFFFFFFFFFFFFFFFFFFFFFFFFF DUP4 DUP2 DUP4 AND OR DUP4 MSTORE POP POP POP POP PUSH2 0x17A6 JUMP JUMPDEST POP JUMP JUMPDEST PUSH2 0x17A2 DUP3 DUP3 PUSH1 0x40 MLOAD PUSH1 0x24 ADD PUSH2 0x1720 SWAP3 SWAP2 SWAP1 PUSH2 0x2433 JUMP JUMPDEST PUSH1 0x40 MLOAD PUSH1 0x20 DUP2 DUP4 SUB SUB DUP2 MSTORE SWAP1 PUSH1 0x40 MSTORE PUSH32 0x4B5C427700000000000000000000000000000000000000000000000000000000 PUSH28 0xFFFFFFFFFFFFFFFFFFFFFFFFFFFFFFFFFFFFFFFFFFFFFFFFFFFFFFFF NOT AND PUSH1 0x20 DUP3 ADD DUP1 MLOAD PUSH28 0xFFFFFFFFFFFFFFFFFFFFFFFFFFFFFFFFFFFFFFFFFFFFFFFFFFFFFFFF DUP4 DUP2 DUP4 AND OR DUP4 MSTORE POP POP POP POP PUSH2 0x17A6 JUMP JUMPDEST POP POP JUMP JUMPDEST PUSH1 0x0 PUSH11 0x636F6E736F6C652E6C6F67 SWAP1 POP PUSH1 0x0 DUP1 DUP4 MLOAD PUSH1 0x20 DUP6 ADD DUP5 GAS STATICCALL POP POP POP JUMP JUMPDEST DUP3 DUP1 SLOAD DUP3 DUP3 SSTORE SWAP1 PUSH1 0x0 MSTORE PUSH1 0x20 PUSH1 0x0 KECCAK256 SWAP1 DUP2 ADD SWAP3 DUP3 ISZERO PUSH2 0x180F JUMPI SWAP2 PUSH1 0x20 MUL DUP3 ADD JUMPDEST DUP3 DUP2 GT ISZERO PUSH2 0x180E JUMPI DUP3 MLOAD DUP3 SWAP1 DUP2 PUSH2 0x17FE SWAP2 SWAP1 PUSH2 0x232D JUMP JUMPDEST POP SWAP2 PUSH1 0x20 ADD SWAP2 SWAP1 PUSH1 0x1 ADD SWAP1 PUSH2 0x17E7 JUMP JUMPDEST JUMPDEST POP SWAP1 POP PUSH2 0x181C SWAP2 SWAP1 PUSH2 0x1820 JUMP JUMPDEST POP SWAP1 JUMP JUMPDEST JUMPDEST DUP1 DUP3 GT ISZERO PUSH2 0x1840 JUMPI PUSH1 0x0 DUP2 DUP2 PUSH2 0x1837 SWAP2 SWAP1 PUSH2 0x1844 JUMP JUMPDEST POP PUSH1 0x1 ADD PUSH2 0x1821 JUMP JUMPDEST POP SWAP1 JUMP JUMPDEST POP DUP1 SLOAD PUSH2 0x1850 SWAP1 PUSH2 0x2108 JUMP JUMPDEST PUSH1 0x0 DUP3 SSTORE DUP1 PUSH1 0x1F LT PUSH2 0x1862 JUMPI POP PUSH2 0x1881 JUMP JUMPDEST PUSH1 0x1F ADD PUSH1 0x20 SWAP1 DIV SWAP1 PUSH1 0x0 MSTORE PUSH1 0x20 PUSH1 0x0 KECCAK256 SWAP1 DUP2 ADD SWAP1 PUSH2 0x1880 SWAP2 SWAP1 PUSH2 0x1884 JUMP JUMPDEST JUMPDEST POP JUMP JUMPDEST JUMPDEST DUP1 DUP3 GT ISZERO PUSH2 0x189D JUMPI PUSH1 0x0 DUP2 PUSH1 0x0 SWAP1 SSTORE POP PUSH1 0x1 ADD PUSH2 0x1885 JUMP JUMPDEST POP SWAP1 JUMP JUMPDEST PUSH1 0x0 PUSH1 0x40 MLOAD SWAP1 POP SWAP1 JUMP JUMPDEST PUSH1 0x0 DUP1 REVERT JUMPDEST PUSH1 0x0 DUP1 REVERT JUMPDEST PUSH1 0x0 DUP2 SWAP1 POP SWAP2 SWAP1 POP JUMP JUMPDEST PUSH2 0x18C8 DUP2 PUSH2 0x18B5 JUMP JUMPDEST DUP2 EQ PUSH2 0x18D3 JUMPI PUSH1 0x0 DUP1 REVERT JUMPDEST POP JUMP JUMPDEST PUSH1 0x0 DUP2 CALLDATALOAD SWAP1 POP PUSH2 0x18E5 DUP2 PUSH2 0x18BF JUMP JUMPDEST SWAP3 SWAP2 POP POP JUMP JUMPDEST PUSH1 0x0 DUP1 REVERT JUMPDEST PUSH1 0x0 DUP1 REVERT JUMPDEST PUSH1 0x0 DUP1 REVERT JUMPDEST PUSH1 0x0 DUP1 DUP4 PUSH1 0x1F DUP5 ADD SLT PUSH2 0x1910 JUMPI PUSH2 0x190F PUSH2 0x18EB JUMP JUMPDEST JUMPDEST DUP3 CALLDATALOAD SWAP1 POP PUSH8 0xFFFFFFFFFFFFFFFF DUP2 GT ISZERO PUSH2 0x192D JUMPI PUSH2 0x192C PUSH2 0x18F0 JUMP JUMPDEST JUMPDEST PUSH1 0x20 DUP4 ADD SWAP2 POP DUP4 PUSH1 0x1 DUP3 MUL DUP4 ADD GT ISZERO PUSH2 0x1949 JUMPI PUSH2 0x1948 PUSH2 0x18F5 JUMP JUMPDEST JUMPDEST SWAP3 POP SWAP3 SWAP1 POP JUMP JUMPDEST PUSH1 0x0 DUP1 PUSH1 0x0 PUSH1 0x40 DUP5 DUP7 SUB SLT ISZERO PUSH2 0x1969 JUMPI PUSH2 0x1968 PUSH2 0x18AB JUMP JUMPDEST JUMPDEST PUSH1 0x0 PUSH2 0x1977 DUP7 DUP3 DUP8 ADD PUSH2 0x18D6 JUMP JUMPDEST SWAP4 POP POP PUSH1 0x20 DUP5 ADD CALLDATALOAD PUSH8 0xFFFFFFFFFFFFFFFF DUP2 GT ISZERO PUSH2 0x1998 JUMPI PUSH2 0x1997 PUSH2 0x18B0 JUMP JUMPDEST JUMPDEST PUSH2 0x19A4 DUP7 DUP3 DUP8 ADD PUSH2 0x18FA JUMP JUMPDEST SWAP3 POP SWAP3 POP POP SWAP3 POP SWAP3 POP SWAP3 JUMP JUMPDEST PUSH1 0x0 PUSH1 0x1F NOT PUSH1 0x1F DUP4 ADD AND SWAP1 POP SWAP2 SWAP1 POP JUMP JUMPDEST PUSH32 0x4E487B7100000000000000000000000000000000000000000000000000000000 PUSH1 0x0 MSTORE PUSH1 0x41 PUSH1 0x4 MSTORE PUSH1 0x24 PUSH1 0x0 REVERT JUMPDEST PUSH2 0x19F9 DUP3 PUSH2 0x19B0 JUMP JUMPDEST DUP2 ADD DUP2 DUP2 LT PUSH8 0xFFFFFFFFFFFFFFFF DUP3 GT OR ISZERO PUSH2 0x1A18 JUMPI PUSH2 0x1A17 PUSH2 0x19C1 JUMP JUMPDEST JUMPDEST DUP1 PUSH1 0x40 MSTORE POP POP POP JUMP JUMPDEST PUSH1 0x0 PUSH2 0x1A2B PUSH2 0x18A1 JUMP JUMPDEST SWAP1 POP PUSH2 0x1A37 DUP3 DUP3 PUSH2 0x19F0 JUMP JUMPDEST SWAP2 SWAP1 POP JUMP JUMPDEST PUSH1 0x0 PUSH8 0xFFFFFFFFFFFFFFFF DUP3 GT ISZERO PUSH2 0x1A57 JUMPI PUSH2 0x1A56 PUSH2 0x19C1 JUMP JUMPDEST JUMPDEST PUSH1 0x20 DUP3 MUL SWAP1 POP PUSH1 0x20 DUP2 ADD SWAP1 POP SWAP2 SWAP1 POP JUMP JUMPDEST PUSH1 0x0 DUP1 REVERT JUMPDEST PUSH1 0x0 PUSH8 0xFFFFFFFFFFFFFFFF DUP3 GT ISZERO PUSH2 0x1A88 JUMPI PUSH2 0x1A87 PUSH2 0x19C1 JUMP JUMPDEST JUMPDEST PUSH2 0x1A91 DUP3 PUSH2 0x19B0 JUMP JUMPDEST SWAP1 POP PUSH1 0x20 DUP2 ADD SWAP1 POP SWAP2 SWAP1 POP JUMP JUMPDEST DUP3 DUP2 DUP4 CALLDATACOPY PUSH1 0x0 DUP4 DUP4 ADD MSTORE POP POP POP JUMP JUMPDEST PUSH1 0x0 PUSH2 0x1AC0 PUSH2 0x1ABB DUP5 PUSH2 0x1A6D JUMP JUMPDEST PUSH2 0x1A21 JUMP JUMPDEST SWAP1 POP DUP3 DUP2 MSTORE PUSH1 0x20 DUP2 ADD DUP5 DUP5 DUP5 ADD GT ISZERO PUSH2 0x1ADC JUMPI PUSH2 0x1ADB PUSH2 0x1A68 JUMP JUMPDEST JUMPDEST PUSH2 0x1AE7 DUP5 DUP3 DUP6 PUSH2 0x1A9E JUMP JUMPDEST POP SWAP4 SWAP3 POP POP POP JUMP JUMPDEST PUSH1 0x0 DUP3 PUSH1 0x1F DUP4 ADD SLT PUSH2 0x1B04 JUMPI PUSH2 0x1B03 PUSH2 0x18EB JUMP JUMPDEST JUMPDEST DUP2 CALLDATALOAD PUSH2 0x1B14 DUP5 DUP3 PUSH1 0x20 DUP7 ADD PUSH2 0x1AAD JUMP JUMPDEST SWAP2 POP POP SWAP3 SWAP2 POP POP JUMP JUMPDEST PUSH1 0x0 PUSH2 0x1B30 PUSH2 0x1B2B DUP5 PUSH2 0x1A3C JUMP JUMPDEST PUSH2 0x1A21 JUMP JUMPDEST SWAP1 POP DUP1 DUP4 DUP3 MSTORE PUSH1 0x20 DUP3 ADD SWAP1 POP PUSH1 0x20 DUP5 MUL DUP4 ADD DUP6 DUP2 GT ISZERO PUSH2 0x1B53 JUMPI PUSH2 0x1B52 PUSH2 0x18F5 JUMP JUMPDEST JUMPDEST DUP4 JUMPDEST DUP2 DUP2 LT ISZERO PUSH2 0x1B9A JUMPI DUP1 CALLDATALOAD PUSH8 0xFFFFFFFFFFFFFFFF DUP2 GT ISZERO PUSH2 0x1B78 JUMPI PUSH2 0x1B77 PUSH2 0x18EB JUMP JUMPDEST JUMPDEST DUP1 DUP7 ADD PUSH2 0x1B85 DUP10 DUP3 PUSH2 0x1AEF JUMP JUMPDEST DUP6 MSTORE PUSH1 0x20 DUP6 ADD SWAP5 POP POP POP PUSH1 0x20 DUP2 ADD SWAP1 POP PUSH2 0x1B55 JUMP JUMPDEST POP POP POP SWAP4 SWAP3 POP POP POP JUMP JUMPDEST PUSH1 0x0 DUP3 PUSH1 0x1F DUP4 ADD SLT PUSH2 0x1BB9 JUMPI PUSH2 0x1BB8 PUSH2 0x18EB JUMP JUMPDEST JUMPDEST DUP2 CALLDATALOAD PUSH2 0x1BC9 DUP5 DUP3 PUSH1 0x20 DUP7 ADD PUSH2 0x1B1D JUMP JUMPDEST SWAP2 POP POP SWAP3 SWAP2 POP POP JUMP JUMPDEST PUSH1 0x0 DUP1 PUSH1 0x0 PUSH1 0x60 DUP5 DUP7 SUB SLT ISZERO PUSH2 0x1BEB JUMPI PUSH2 0x1BEA PUSH2 0x18AB JUMP JUMPDEST JUMPDEST PUSH1 0x0 PUSH2 0x1BF9 DUP7 DUP3 DUP8 ADD PUSH2 0x18D6 JUMP JUMPDEST SWAP4 POP POP PUSH1 0x20 DUP5 ADD CALLDATALOAD PUSH8 0xFFFFFFFFFFFFFFFF DUP2 GT ISZERO PUSH2 0x1C1A JUMPI PUSH2 0x1C19 PUSH2 0x18B0 JUMP JUMPDEST JUMPDEST PUSH2 0x1C26 DUP7 DUP3 DUP8 ADD PUSH2 0x1BA4 JUMP JUMPDEST SWAP3 POP POP PUSH1 0x40 PUSH2 0x1C37 DUP7 DUP3 DUP8 ADD PUSH2 0x18D6 JUMP JUMPDEST SWAP2 POP POP SWAP3 POP SWAP3 POP SWAP3 JUMP JUMPDEST PUSH1 0x0 PUSH1 0x20 DUP3 DUP5 SUB SLT ISZERO PUSH2 0x1C57 JUMPI PUSH2 0x1C56 PUSH2 0x18AB JUMP JUMPDEST JUMPDEST PUSH1 0x0 PUSH2 0x1C65 DUP5 DUP3 DUP6 ADD PUSH2 0x18D6 JUMP JUMPDEST SWAP2 POP POP SWAP3 SWAP2 POP POP JUMP JUMPDEST PUSH2 0x1C77 DUP2 PUSH2 0x18B5 JUMP JUMPDEST DUP3 MSTORE POP POP JUMP JUMPDEST PUSH1 0x0 PUSH1 0x20 DUP3 ADD SWAP1 POP PUSH2 0x1C92 PUSH1 0x0 DUP4 ADD DUP5 PUSH2 0x1C6E JUMP JUMPDEST SWAP3 SWAP2 POP POP JUMP JUMPDEST PUSH1 0x0 DUP2 MLOAD SWAP1 POP SWAP2 SWAP1 POP JUMP JUMPDEST PUSH1 0x0 DUP3 DUP3 MSTORE PUSH1 0x20 DUP3 ADD SWAP1 POP SWAP3 SWAP2 POP POP JUMP JUMPDEST PUSH1 0x0 DUP2 SWAP1 POP PUSH1 0x20 DUP3 ADD SWAP1 POP SWAP2 SWAP1 POP JUMP JUMPDEST PUSH1 0x0 DUP2 MLOAD SWAP1 POP SWAP2 SWAP1 POP JUMP JUMPDEST PUSH1 0x0 DUP3 DUP3 MSTORE PUSH1 0x20 DUP3 ADD SWAP1 POP SWAP3 SWAP2 POP POP JUMP JUMPDEST PUSH1 0x0 JUMPDEST DUP4 DUP2 LT ISZERO PUSH2 0x1CFE JUMPI DUP1 DUP3 ADD MLOAD DUP2 DUP5 ADD MSTORE PUSH1 0x20 DUP2 ADD SWAP1 POP PUSH2 0x1CE3 JUMP JUMPDEST PUSH1 0x0 DUP5 DUP5 ADD MSTORE POP POP POP POP JUMP JUMPDEST PUSH1 0x0 PUSH2 0x1D15 DUP3 PUSH2 0x1CC4 JUMP JUMPDEST PUSH2 0x1D1F DUP2 DUP6 PUSH2 0x1CCF JUMP JUMPDEST SWAP4 POP PUSH2 0x1D2F DUP2 DUP6 PUSH1 0x20 DUP7 ADD PUSH2 0x1CE0 JUMP JUMPDEST PUSH2 0x1D38 DUP2 PUSH2 0x19B0 JUMP JUMPDEST DUP5 ADD SWAP2 POP POP SWAP3 SWAP2 POP POP JUMP JUMPDEST PUSH1 0x0 PUSH2 0x1D4F DUP4 DUP4 PUSH2 0x1D0A JUMP JUMPDEST SWAP1 POP SWAP3 SWAP2 POP POP JUMP JUMPDEST PUSH1 0x0 PUSH1 0x20 DUP3 ADD SWAP1 POP SWAP2 SWAP1 POP JUMP JUMPDEST PUSH1 0x0 PUSH2 0x1D6F DUP3 PUSH2 0x1C98 JUMP JUMPDEST PUSH2 0x1D79 DUP2 DUP6 PUSH2 0x1CA3 JUMP JUMPDEST SWAP4 POP DUP4 PUSH1 0x20 DUP3 MUL DUP6 ADD PUSH2 0x1D8B DUP6 PUSH2 0x1CB4 JUMP JUMPDEST DUP1 PUSH1 0x0 JUMPDEST DUP6 DUP2 LT ISZERO PUSH2 0x1DC7 JUMPI DUP5 DUP5 SUB DUP10 MSTORE DUP2 MLOAD PUSH2 0x1DA8 DUP6 DUP3 PUSH2 0x1D43 JUMP JUMPDEST SWAP5 POP PUSH2 0x1DB3 DUP4 PUSH2 0x1D57 JUMP JUMPDEST SWAP3 POP PUSH1 0x20 DUP11 ADD SWAP10 POP POP PUSH1 0x1 DUP2 ADD SWAP1 POP PUSH2 0x1D8F JUMP JUMPDEST POP DUP3 SWAP8 POP DUP8 SWAP6 POP POP POP POP POP POP SWAP3 SWAP2 POP POP JUMP JUMPDEST PUSH1 0x0 PUSH1 0x20 DUP3 ADD SWAP1 POP DUP2 DUP2 SUB PUSH1 0x0 DUP4 ADD MSTORE PUSH2 0x1DF3 DUP2 DUP5 PUSH2 0x1D64 JUMP JUMPDEST SWAP1 POP SWAP3 SWAP2 POP POP JUMP JUMPDEST PUSH1 0x0 DUP3 DUP3 MSTORE PUSH1 0x20 DUP3 ADD SWAP1 POP SWAP3 SWAP2 POP POP JUMP JUMPDEST PUSH1 0x0 PUSH2 0x1E17 DUP3 PUSH2 0x1CC4 JUMP JUMPDEST PUSH2 0x1E21 DUP2 DUP6 PUSH2 0x1DFB JUMP JUMPDEST SWAP4 POP PUSH2 0x1E31 DUP2 DUP6 PUSH1 0x20 DUP7 ADD PUSH2 0x1CE0 JUMP JUMPDEST PUSH2 0x1E3A DUP2 PUSH2 0x19B0 JUMP JUMPDEST DUP5 ADD SWAP2 POP POP SWAP3 SWAP2 POP POP JUMP JUMPDEST PUSH1 0x0 PUSH1 0x20 DUP3 ADD SWAP1 POP DUP2 DUP2 SUB PUSH1 0x0 DUP4 ADD MSTORE PUSH2 0x1E5F DUP2 DUP5 PUSH2 0x1E0C JUMP JUMPDEST SWAP1 POP SWAP3 SWAP2 POP POP JUMP JUMPDEST PUSH1 0x0 DUP2 ISZERO ISZERO SWAP1 POP SWAP2 SWAP1 POP JUMP JUMPDEST PUSH2 0x1E7C DUP2 PUSH2 0x1E67 JUMP JUMPDEST DUP3 MSTORE POP POP JUMP JUMPDEST PUSH1 0x0 PUSH1 0x20 DUP3 ADD SWAP1 POP PUSH2 0x1E97 PUSH1 0x0 DUP4 ADD DUP5 PUSH2 0x1E73 JUMP JUMPDEST SWAP3 SWAP2 POP POP JUMP JUMPDEST PUSH1 0x0 DUP1 PUSH1 0x40 DUP4 DUP6 SUB SLT ISZERO PUSH2 0x1EB4 JUMPI PUSH2 0x1EB3 PUSH2 0x18AB JUMP JUMPDEST JUMPDEST PUSH1 0x0 PUSH2 0x1EC2 DUP6 DUP3 DUP7 ADD PUSH2 0x18D6 JUMP JUMPDEST SWAP3 POP POP PUSH1 0x20 DUP4 ADD CALLDATALOAD PUSH8 0xFFFFFFFFFFFFFFFF DUP2 GT ISZERO PUSH2 0x1EE3 JUMPI PUSH2 0x1EE2 PUSH2 0x18B0 JUMP JUMPDEST JUMPDEST PUSH2 0x1EEF DUP6 DUP3 DUP7 ADD PUSH2 0x1AEF JUMP JUMPDEST SWAP2 POP POP SWAP3 POP SWAP3 SWAP1 POP JUMP JUMPDEST PUSH1 0x0 PUSH20 0xFFFFFFFFFFFFFFFFFFFFFFFFFFFFFFFFFFFFFFFF DUP3 AND SWAP1 POP SWAP2 SWAP1 POP JUMP JUMPDEST PUSH1 0x0 PUSH2 0x1F24 DUP3 PUSH2 0x1EF9 JUMP JUMPDEST SWAP1 POP SWAP2 SWAP1 POP JUMP JUMPDEST PUSH2 0x1F34 DUP2 PUSH2 0x1F19 JUMP JUMPDEST DUP2 EQ PUSH2 0x1F3F JUMPI PUSH1 0x0 DUP1 REVERT JUMPDEST POP JUMP JUMPDEST PUSH1 0x0 DUP2 CALLDATALOAD SWAP1 POP PUSH2 0x1F51 DUP2 PUSH2 0x1F2B JUMP JUMPDEST SWAP3 SWAP2 POP POP JUMP JUMPDEST PUSH1 0x0 DUP1 PUSH1 0x40 DUP4 DUP6 SUB SLT ISZERO PUSH2 0x1F6E JUMPI PUSH2 0x1F6D PUSH2 0x18AB JUMP JUMPDEST JUMPDEST PUSH1 0x0 PUSH2 0x1F7C DUP6 DUP3 DUP7 ADD PUSH2 0x1F42 JUMP JUMPDEST SWAP3 POP POP PUSH1 0x20 PUSH2 0x1F8D DUP6 DUP3 DUP7 ADD PUSH2 0x18D6 JUMP JUMPDEST SWAP2 POP POP SWAP3 POP SWAP3 SWAP1 POP JUMP JUMPDEST PUSH1 0x0 PUSH1 0x40 DUP3 ADD SWAP1 POP PUSH2 0x1FAC PUSH1 0x0 DUP4 ADD DUP6 PUSH2 0x1C6E JUMP JUMPDEST PUSH2 0x1FB9 PUSH1 0x20 DUP4 ADD DUP5 PUSH2 0x1C6E JUMP JUMPDEST SWAP4 SWAP3 POP POP POP JUMP JUMPDEST PUSH2 0x1FC9 DUP2 PUSH2 0x1F19 JUMP JUMPDEST DUP3 MSTORE POP POP JUMP JUMPDEST PUSH1 0x0 PUSH1 0x20 DUP3 ADD SWAP1 POP PUSH2 0x1FE4 PUSH1 0x0 DUP4 ADD DUP5 PUSH2 0x1FC0 JUMP JUMPDEST SWAP3 SWAP2 POP POP JUMP JUMPDEST PUSH1 0x0 DUP2 SWAP1 POP SWAP3 SWAP2 POP POP JUMP JUMPDEST PUSH1 0x0 PUSH2 0x2001 DUP4 DUP6 PUSH2 0x1FEA JUMP JUMPDEST SWAP4 POP PUSH2 0x200E DUP4 DUP6 DUP5 PUSH2 0x1A9E JUMP JUMPDEST DUP3 DUP5 ADD SWAP1 POP SWAP4 SWAP3 POP POP POP JUMP JUMPDEST PUSH1 0x0 PUSH2 0x2027 DUP3 DUP5 DUP7 PUSH2 0x1FF5 JUMP JUMPDEST SWAP2 POP DUP2 SWAP1 POP SWAP4 SWAP3 POP POP POP JUMP JUMPDEST PUSH32 0x4E487B7100000000000000000000000000000000000000000000000000000000 PUSH1 0x0 MSTORE PUSH1 0x11 PUSH1 0x4 MSTORE PUSH1 0x24 PUSH1 0x0 REVERT JUMPDEST PUSH1 0x0 PUSH2 0x206D DUP3 PUSH2 0x18B5 JUMP JUMPDEST SWAP2 POP PUSH32 0xFFFFFFFFFFFFFFFFFFFFFFFFFFFFFFFFFFFFFFFFFFFFFFFFFFFFFFFFFFFFFFFF DUP3 SUB PUSH2 0x209F JUMPI PUSH2 0x209E PUSH2 0x2033 JUMP JUMPDEST JUMPDEST PUSH1 0x1 DUP3 ADD SWAP1 POP SWAP2 SWAP1 POP JUMP JUMPDEST PUSH32 0x4E487B7100000000000000000000000000000000000000000000000000000000 PUSH1 0x0 MSTORE PUSH1 0x32 PUSH1 0x4 MSTORE PUSH1 0x24 PUSH1 0x0 REVERT JUMPDEST PUSH32 0x4E487B7100000000000000000000000000000000000000000000000000000000 PUSH1 0x0 MSTORE PUSH1 0x22 PUSH1 0x4 MSTORE PUSH1 0x24 PUSH1 0x0 REVERT JUMPDEST PUSH1 0x0 PUSH1 0x2 DUP3 DIV SWAP1 POP PUSH1 0x1 DUP3 AND DUP1 PUSH2 0x2120 JUMPI PUSH1 0x7F DUP3 AND SWAP2 POP JUMPDEST PUSH1 0x20 DUP3 LT DUP2 SUB PUSH2 0x2133 JUMPI PUSH2 0x2132 PUSH2 0x20D9 JUMP JUMPDEST JUMPDEST POP SWAP2 SWAP1 POP JUMP JUMPDEST PUSH1 0x0 PUSH2 0x2144 DUP3 PUSH2 0x1CC4 JUMP JUMPDEST PUSH2 0x214E DUP2 DUP6 PUSH2 0x1FEA JUMP JUMPDEST SWAP4 POP PUSH2 0x215E DUP2 DUP6 PUSH1 0x20 DUP7 ADD PUSH2 0x1CE0 JUMP JUMPDEST DUP1 DUP5 ADD SWAP2 POP POP SWAP3 SWAP2 POP POP JUMP JUMPDEST PUSH1 0x0 PUSH2 0x2176 DUP3 DUP5 PUSH2 0x2139 JUMP JUMPDEST SWAP2 POP DUP2 SWAP1 POP SWAP3 SWAP2 POP POP JUMP JUMPDEST PUSH1 0x0 DUP2 SWAP1 POP DUP2 PUSH1 0x0 MSTORE PUSH1 0x20 PUSH1 0x0 KECCAK256 SWAP1 POP SWAP2 SWAP1 POP JUMP JUMPDEST PUSH1 0x0 PUSH1 0x20 PUSH1 0x1F DUP4 ADD DIV SWAP1 POP SWAP2 SWAP1 POP JUMP JUMPDEST PUSH1 0x0 DUP3 DUP3 SHL SWAP1 POP SWAP3 SWAP2 POP POP JUMP JUMPDEST PUSH1 0x0 PUSH1 0x8 DUP4 MUL PUSH2 0x21E3 PUSH32 0xFFFFFFFFFFFFFFFFFFFFFFFFFFFFFFFFFFFFFFFFFFFFFFFFFFFFFFFFFFFFFFFF DUP3 PUSH2 0x21A6 JUMP JUMPDEST PUSH2 0x21ED DUP7 DUP4 PUSH2 0x21A6 JUMP JUMPDEST SWAP6 POP DUP1 NOT DUP5 AND SWAP4 POP DUP1 DUP7 AND DUP5 OR SWAP3 POP POP POP SWAP4 SWAP3 POP POP POP JUMP JUMPDEST PUSH1 0x0 DUP2 SWAP1 POP SWAP2 SWAP1 POP JUMP JUMPDEST PUSH1 0x0 PUSH2 0x222A PUSH2 0x2225 PUSH2 0x2220 DUP5 PUSH2 0x18B5 JUMP JUMPDEST PUSH2 0x2205 JUMP JUMPDEST PUSH2 0x18B5 JUMP JUMPDEST SWAP1 POP SWAP2 SWAP1 POP JUMP JUMPDEST PUSH1 0x0 DUP2 SWAP1 POP SWAP2 SWAP1 POP JUMP JUMPDEST PUSH2 0x2244 DUP4 PUSH2 0x220F JUMP JUMPDEST PUSH2 0x2258 PUSH2 0x2250 DUP3 PUSH2 0x2231 JUMP JUMPDEST DUP5 DUP5 SLOAD PUSH2 0x21B3 JUMP JUMPDEST DUP3 SSTORE POP POP POP POP JUMP JUMPDEST PUSH1 0x0 SWAP1 JUMP JUMPDEST PUSH2 0x226D PUSH2 0x2260 JUMP JUMPDEST PUSH2 0x2278 DUP2 DUP5 DUP5 PUSH2 0x223B JUMP JUMPDEST POP POP POP JUMP JUMPDEST JUMPDEST DUP2 DUP2 LT ISZERO PUSH2 0x229C JUMPI PUSH2 0x2291 PUSH1 0x0 DUP3 PUSH2 0x2265 JUMP JUMPDEST PUSH1 0x1 DUP2 ADD SWAP1 POP PUSH2 0x227E JUMP JUMPDEST POP POP JUMP JUMPDEST PUSH1 0x1F DUP3 GT ISZERO PUSH2 0x22E1 JUMPI PUSH2 0x22B2 DUP2 PUSH2 0x2181 JUMP JUMPDEST PUSH2 0x22BB DUP5 PUSH2 0x2196 JUMP JUMPDEST DUP2 ADD PUSH1 0x20 DUP6 LT ISZERO PUSH2 0x22CA JUMPI DUP2 SWAP1 POP JUMPDEST PUSH2 0x22DE PUSH2 0x22D6 DUP6 PUSH2 0x2196 JUMP JUMPDEST DUP4 ADD DUP3 PUSH2 0x227D JUMP JUMPDEST POP POP JUMPDEST POP POP POP JUMP JUMPDEST PUSH1 0x0 DUP3 DUP3 SHR SWAP1 POP SWAP3 SWAP2 POP POP JUMP JUMPDEST PUSH1 0x0 PUSH2 0x2304 PUSH1 0x0 NOT DUP5 PUSH1 0x8 MUL PUSH2 0x22E6 JUMP JUMPDEST NOT DUP1 DUP4 AND SWAP2 POP POP SWAP3 SWAP2 POP POP JUMP JUMPDEST PUSH1 0x0 PUSH2 0x231D DUP4 DUP4 PUSH2 0x22F3 JUMP JUMPDEST SWAP2 POP DUP3 PUSH1 0x2 MUL DUP3 OR SWAP1 POP SWAP3 SWAP2 POP POP JUMP JUMPDEST PUSH2 0x2336 DUP3 PUSH2 0x1CC4 JUMP JUMPDEST PUSH8 0xFFFFFFFFFFFFFFFF DUP2 GT ISZERO PUSH2 0x234F JUMPI PUSH2 0x234E PUSH2 0x19C1 JUMP JUMPDEST JUMPDEST PUSH2 0x2359 DUP3 SLOAD PUSH2 0x2108 JUMP JUMPDEST PUSH2 0x2364 DUP3 DUP3 DUP6 PUSH2 0x22A0 JUMP JUMPDEST PUSH1 0x0 PUSH1 0x20 SWAP1 POP PUSH1 0x1F DUP4 GT PUSH1 0x1 DUP2 EQ PUSH2 0x2397 JUMPI PUSH1 0x0 DUP5 ISZERO PUSH2 0x2385 JUMPI DUP3 DUP8 ADD MLOAD SWAP1 POP JUMPDEST PUSH2 0x238F DUP6 DUP3 PUSH2 0x2311 JUMP JUMPDEST DUP7 SSTORE POP PUSH2 0x23F7 JUMP JUMPDEST PUSH1 0x1F NOT DUP5 AND PUSH2 0x23A5 DUP7 PUSH2 0x2181 JUMP JUMPDEST PUSH1 0x0 JUMPDEST DUP3 DUP2 LT ISZERO PUSH2 0x23CD JUMPI DUP5 DUP10 ADD MLOAD DUP3 SSTORE PUSH1 0x1 DUP3 ADD SWAP2 POP PUSH1 0x20 DUP6 ADD SWAP5 POP PUSH1 0x20 DUP2 ADD SWAP1 POP PUSH2 0x23A8 JUMP JUMPDEST DUP7 DUP4 LT ISZERO PUSH2 0x23EA JUMPI DUP5 DUP10 ADD MLOAD PUSH2 0x23E6 PUSH1 0x1F DUP10 AND DUP3 PUSH2 0x22F3 JUMP JUMPDEST DUP4 SSTORE POP JUMPDEST PUSH1 0x1 PUSH1 0x2 DUP9 MUL ADD DUP9 SSTORE POP POP POP JUMPDEST POP POP POP POP POP POP JUMP JUMPDEST PUSH1 0x0 PUSH2 0x240A DUP3 PUSH2 0x18B5 JUMP JUMPDEST SWAP2 POP PUSH2 0x2415 DUP4 PUSH2 0x18B5 JUMP JUMPDEST SWAP3 POP DUP3 DUP3 SUB SWAP1 POP DUP2 DUP2 GT ISZERO PUSH2 0x242D JUMPI PUSH2 0x242C PUSH2 0x2033 JUMP JUMPDEST JUMPDEST SWAP3 SWAP2 POP POP JUMP JUMPDEST PUSH1 0x0 PUSH1 0x40 DUP3 ADD SWAP1 POP DUP2 DUP2 SUB PUSH1 0x0 DUP4 ADD MSTORE PUSH2 0x244D DUP2 DUP6 PUSH2 0x1E0C JUMP JUMPDEST SWAP1 POP DUP2 DUP2 SUB PUSH1 0x20 DUP4 ADD MSTORE PUSH2 0x2461 DUP2 DUP5 PUSH2 0x1E0C JUMP JUMPDEST SWAP1 POP SWAP4 SWAP3 POP POP POP JUMP INVALID LOG2 PUSH5 0x6970667358 0x22 SLT KECCAK256 0xAB 0xE0 PC BALANCE 0x4C PUSH2 0x37A7 0xBA PUSH24 0x8730AFA75A4910C61FCCB53125DD9A163BA6A9EA84896473 PUSH16 0x6C634300081200330000000000000000 "},"methodIdentifiers":{"addVote(uint256,string)":"0fcaac1b","createPoll(uint256,string[],uint256)":"12a29f12","getNumberOfVoters(uint256)":"26f34782","getNumberOfVotes(uint256,string)":"df87889f","getWinner(uint256)":"4129b2c9","getWinnerWithoutStateChange(uint256)":"46f6dadc","i_owner()":"dba6335f","isTimePassed(uint256)":"84f241f4","isVoted(address,uint256)":"8ee36f05","pollidtovote(uint256)":"b5f37846","pollidtowinner(uint256)":"e07fddcc","votecount(uint256,string)":"8cda802d"}}}}}