{"contracts/SimpleStorage.sol":{"SimpleStorage":{"abi":[{"inputs":[{"internalType":"string","name":"_name","type":"string"},{"internalType":"uint256","name":"_favoriteNumber","type":"uint256"}],"name":"addPerson","outputs":[],"stateMutability":"nonpayable","type":"function"},{"inputs":[],"name":"getLength","outputs":[{"internalType":"uint256","name":"","type":"uint256"}],"stateMutability":"view","type":"function"},{"inputs":[{"internalType":"string","name":"","type":"string"}],"name":"nameToFavoriteNumber","outputs":[{"internalType":"uint256","name":"","type":"uint256"}],"stateMutability":"view","type":"function"},{"inputs":[{"internalType":"uint256","name":"","type":"uint256"}],"name":"people","outputs":[{"internalType":"uint256","name":"favoriteNumber","type":"uint256"},{"internalType":"string","name":"name","type":"string"}],"stateMutability":"view","type":"function"},{"inputs":[],"name":"retrieve","outputs":[{"internalType":"uint256","name":"","type":"uint256"}],"stateMutability":"view","type":"function"},{"inputs":[{"internalType":"uint256","name":"_index","type":"uint256"}],"name":"retrievenumber","outputs":[{"internalType":"uint256","name":"","type":"uint256"}],"stateMutability":"view","type":"function"},{"inputs":[{"internalType":"uint256","name":"_index","type":"uint256"}],"name":"retrieveperson","outputs":[{"internalType":"string","name":"","type":"string"}],"stateMutability":"view","type":"function"},{"inputs":[{"internalType":"uint256","name":"_favoriteNumber","type":"uint256"}],"name":"store","outputs":[],"stateMutability":"nonpayable","type":"function"}],"evm":{"bytecode":{"linkReferences":{},"object":"608060405234801561001057600080fd5b50610cf6806100206000396000f3fe608060405234801561001057600080fd5b50600436106100885760003560e01c80638bab8dd51161005b5780638bab8dd5146101135780639e7a13ad14610143578063a6eafdfb14610174578063be1c766b146101a457610088565b80632e64cec11461008d5780636057361d146100ab5780636f760f41146100c75780638377e7b2146100e3575b600080fd5b6100956101c2565b6040516100a2919061061c565b60405180910390f35b6100c560048036038101906100c09190610677565b610208565b005b6100e160048036038101906100dc91906107ea565b61023a565b005b6100fd60048036038101906100f89190610677565b610313565b60405161010a919061061c565b60405180910390f35b61012d60048036038101906101289190610846565b6103ac565b60405161013a919061061c565b60405180910390f35b61015d60048036038101906101589190610677565b6103da565b60405161016b92919061090e565b60405180910390f35b61018e60048036038101906101899190610677565b610496565b60405161019b919061093e565b60405180910390f35b6101ac6105b7565b6040516101b9919061061c565b60405180910390f35b60006101d8677dce6232d3a6a27460c01b610600565b6101ec6709c21bfa84778a4760c01b610600565b610200677a820d9fd6200db560c01b610600565b600054905090565b61021c67c1ec393eef61492e60c01b610600565b6102306787eb47609f98961460c01b610600565b8060008190555050565b61024e67b25976e52fe68e8b60c01b610600565b610262672a070ba594f193d460c01b610600565b610276670fd9d8bbc1ca709f60c01b610600565b600160405180604001604052808381526020018481525090806001815401808255809150506001900390600052602060002090600202016000909190919091506000820151816000015560208201518160010190816102d59190610b6c565b5050506102ec67eb5228880eb2c7e860c01b610600565b806002836040516102fd9190610c7a565b9081526020016040518091039020819055505050565b600061032967e5d8a70e5b6ca7cd60c01b610600565b61033d67a47f20b13aa0b06b60c01b610600565b61035167362929a129ef7d9160c01b610600565b60006001838154811061036757610366610c91565b5b906000526020600020906002020160000154905061038f679932b276a415842e60c01b610600565b6103a3677293b70dd71b6a4460c01b610600565b80915050919050565b6002818051602081018201805184825260208301602085012081835280955050505050506000915090505481565b600181815481106103ea57600080fd5b90600052602060002090600202016000915090508060000154908060010180546104139061098f565b80601f016020809104026020016040519081016040528092919081815260200182805461043f9061098f565b801561048c5780601f106104615761010080835404028352916020019161048c565b820191906000526020600020905b81548152906001019060200180831161046f57829003601f168201915b5050505050905082565b60606104ac67a26c2c6b6af6ddcf60c01b610600565b6104c067b1b3903d6d418b3b60c01b610600565b6104d4671147a52b2ea7d56360c01b610600565b6000600183815481106104ea576104e9610c91565b5b906000526020600020906002020160010180546105069061098f565b80601f01602080910402602001604051908101604052809291908181526020018280546105329061098f565b801561057f5780601f106105545761010080835404028352916020019161057f565b820191906000526020600020905b81548152906001019060200180831161056257829003601f168201915b5050505050905061059a6741757fa4d50ad5f360c01b610600565b6105ae67dc9886519dc6511660c01b610600565b80915050919050565b60006105cd673d8f73d9aa4c75cc60c01b610600565b6105e167499bb5d0e22b2f8960c01b610600565b6105f5676f7411d4933b382660c01b610600565b600180549050905090565b50565b6000819050919050565b61061681610603565b82525050565b6000602082019050610631600083018461060d565b92915050565b6000604051905090565b600080fd5b600080fd5b61065481610603565b811461065f57600080fd5b50565b6000813590506106718161064b565b92915050565b60006020828403121561068d5761068c610641565b5b600061069b84828501610662565b91505092915050565b600080fd5b600080fd5b6000601f19601f8301169050919050565b7f4e487b7100000000000000000000000000000000000000000000000000000000600052604160045260246000fd5b6106f7826106ae565b810181811067ffffffffffffffff82111715610716576107156106bf565b5b80604052505050565b6000610729610637565b905061073582826106ee565b919050565b600067ffffffffffffffff821115610755576107546106bf565b5b61075e826106ae565b9050602081019050919050565b82818337600083830152505050565b600061078d6107888461073a565b61071f565b9050828152602081018484840111156107a9576107a86106a9565b5b6107b484828561076b565b509392505050565b600082601f8301126107d1576107d06106a4565b5b81356107e184826020860161077a565b91505092915050565b6000806040838503121561080157610800610641565b5b600083013567ffffffffffffffff81111561081f5761081e610646565b5b61082b858286016107bc565b925050602061083c85828601610662565b9150509250929050565b60006020828403121561085c5761085b610641565b5b600082013567ffffffffffffffff81111561087a57610879610646565b5b610886848285016107bc565b91505092915050565b600081519050919050565b600082825260208201905092915050565b60005b838110156108c95780820151818401526020810190506108ae565b60008484015250505050565b60006108e08261088f565b6108ea818561089a565b93506108fa8185602086016108ab565b610903816106ae565b840191505092915050565b6000604082019050610923600083018561060d565b818103602083015261093581846108d5565b90509392505050565b6000602082019050818103600083015261095881846108d5565b905092915050565b7f4e487b7100000000000000000000000000000000000000000000000000000000600052602260045260246000fd5b600060028204905060018216806109a757607f821691505b6020821081036109ba576109b9610960565b5b50919050565b60008190508160005260206000209050919050565b60006020601f8301049050919050565b600082821b905092915050565b600060088302610a227fffffffffffffffffffffffffffffffffffffffffffffffffffffffffffffffff826109e5565b610a2c86836109e5565b95508019841693508086168417925050509392505050565b6000819050919050565b6000610a69610a64610a5f84610603565b610a44565b610603565b9050919050565b6000819050919050565b610a8383610a4e565b610a97610a8f82610a70565b8484546109f2565b825550505050565b600090565b610aac610a9f565b610ab7818484610a7a565b505050565b5b81811015610adb57610ad0600082610aa4565b600181019050610abd565b5050565b601f821115610b2057610af1816109c0565b610afa846109d5565b81016020851015610b09578190505b610b1d610b15856109d5565b830182610abc565b50505b505050565b600082821c905092915050565b6000610b4360001984600802610b25565b1980831691505092915050565b6000610b5c8383610b32565b9150826002028217905092915050565b610b758261088f565b67ffffffffffffffff811115610b8e57610b8d6106bf565b5b610b98825461098f565b610ba3828285610adf565b600060209050601f831160018114610bd65760008415610bc4578287015190505b610bce8582610b50565b865550610c36565b601f198416610be4866109c0565b60005b82811015610c0c57848901518255600182019150602085019450602081019050610be7565b86831015610c295784890151610c25601f891682610b32565b8355505b6001600288020188555050505b505050505050565b600081905092915050565b6000610c548261088f565b610c5e8185610c3e565b9350610c6e8185602086016108ab565b80840191505092915050565b6000610c868284610c49565b915081905092915050565b7f4e487b7100000000000000000000000000000000000000000000000000000000600052603260045260246000fdfea264697066735822122043639864f6c3b9b4efb090359734d3c4708ec1f45b655116346f1a8e5b672afd64736f6c63430008120033","opcodes":"PUSH1 0x80 PUSH1 0x40 MSTORE CALLVALUE DUP1 ISZERO PUSH2 0x10 JUMPI PUSH1 0x0 DUP1 REVERT JUMPDEST POP PUSH2 0xCF6 DUP1 PUSH2 0x20 PUSH1 0x0 CODECOPY PUSH1 0x0 RETURN INVALID PUSH1 0x80 PUSH1 0x40 MSTORE CALLVALUE DUP1 ISZERO PUSH2 0x10 JUMPI PUSH1 0x0 DUP1 REVERT JUMPDEST POP PUSH1 0x4 CALLDATASIZE LT PUSH2 0x88 JUMPI PUSH1 0x0 CALLDATALOAD PUSH1 0xE0 SHR DUP1 PUSH4 0x8BAB8DD5 GT PUSH2 0x5B JUMPI DUP1 PUSH4 0x8BAB8DD5 EQ PUSH2 0x113 JUMPI DUP1 PUSH4 0x9E7A13AD EQ PUSH2 0x143 JUMPI DUP1 PUSH4 0xA6EAFDFB EQ PUSH2 0x174 JUMPI DUP1 PUSH4 0xBE1C766B EQ PUSH2 0x1A4 JUMPI PUSH2 0x88 JUMP JUMPDEST DUP1 PUSH4 0x2E64CEC1 EQ PUSH2 0x8D JUMPI DUP1 PUSH4 0x6057361D EQ PUSH2 0xAB JUMPI DUP1 PUSH4 0x6F760F41 EQ PUSH2 0xC7 JUMPI DUP1 PUSH4 0x8377E7B2 EQ PUSH2 0xE3 JUMPI JUMPDEST PUSH1 0x0 DUP1 REVERT JUMPDEST PUSH2 0x95 PUSH2 0x1C2 JUMP JUMPDEST PUSH1 0x40 MLOAD PUSH2 0xA2 SWAP2 SWAP1 PUSH2 0x61C JUMP JUMPDEST PUSH1 0x40 MLOAD DUP1 SWAP2 SUB SWAP1 RETURN JUMPDEST PUSH2 0xC5 PUSH1 0x4 DUP1 CALLDATASIZE SUB DUP2 ADD SWAP1 PUSH2 0xC0 SWAP2 SWAP1 PUSH2 0x677 JUMP JUMPDEST PUSH2 0x208 JUMP JUMPDEST STOP JUMPDEST PUSH2 0xE1 PUSH1 0x4 DUP1 CALLDATASIZE SUB DUP2 ADD SWAP1 PUSH2 0xDC SWAP2 SWAP1 PUSH2 0x7EA JUMP JUMPDEST PUSH2 0x23A JUMP JUMPDEST STOP JUMPDEST PUSH2 0xFD PUSH1 0x4 DUP1 CALLDATASIZE SUB DUP2 ADD SWAP1 PUSH2 0xF8 SWAP2 SWAP1 PUSH2 0x677 JUMP JUMPDEST PUSH2 0x313 JUMP JUMPDEST PUSH1 0x40 MLOAD PUSH2 0x10A SWAP2 SWAP1 PUSH2 0x61C JUMP JUMPDEST PUSH1 0x40 MLOAD DUP1 SWAP2 SUB SWAP1 RETURN JUMPDEST PUSH2 0x12D PUSH1 0x4 DUP1 CALLDATASIZE SUB DUP2 ADD SWAP1 PUSH2 0x128 SWAP2 SWAP1 PUSH2 0x846 JUMP JUMPDEST PUSH2 0x3AC JUMP JUMPDEST PUSH1 0x40 MLOAD PUSH2 0x13A SWAP2 SWAP1 PUSH2 0x61C JUMP JUMPDEST PUSH1 0x40 MLOAD DUP1 SWAP2 SUB SWAP1 RETURN JUMPDEST PUSH2 0x15D PUSH1 0x4 DUP1 CALLDATASIZE SUB DUP2 ADD SWAP1 PUSH2 0x158 SWAP2 SWAP1 PUSH2 0x677 JUMP JUMPDEST PUSH2 0x3DA JUMP JUMPDEST PUSH1 0x40 MLOAD PUSH2 0x16B SWAP3 SWAP2 SWAP1 PUSH2 0x90E JUMP JUMPDEST PUSH1 0x40 MLOAD DUP1 SWAP2 SUB SWAP1 RETURN JUMPDEST PUSH2 0x18E PUSH1 0x4 DUP1 CALLDATASIZE SUB DUP2 ADD SWAP1 PUSH2 0x189 SWAP2 SWAP1 PUSH2 0x677 JUMP JUMPDEST PUSH2 0x496 JUMP JUMPDEST PUSH1 0x40 MLOAD PUSH2 0x19B SWAP2 SWAP1 PUSH2 0x93E JUMP JUMPDEST PUSH1 0x40 MLOAD DUP1 SWAP2 SUB SWAP1 RETURN JUMPDEST PUSH2 0x1AC PUSH2 0x5B7 JUMP JUMPDEST PUSH1 0x40 MLOAD PUSH2 0x1B9 SWAP2 SWAP1 PUSH2 0x61C JUMP JUMPDEST PUSH1 0x40 MLOAD DUP1 SWAP2 SUB SWAP1 RETURN JUMPDEST PUSH1 0x0 PUSH2 0x1D8 PUSH8 0x7DCE6232D3A6A274 PUSH1 0xC0 SHL PUSH2 0x600 JUMP JUMPDEST PUSH2 0x1EC PUSH8 0x9C21BFA84778A47 PUSH1 0xC0 SHL PUSH2 0x600 JUMP JUMPDEST PUSH2 0x200 PUSH8 0x7A820D9FD6200DB5 PUSH1 0xC0 SHL PUSH2 0x600 JUMP JUMPDEST PUSH1 0x0 SLOAD SWAP1 POP SWAP1 JUMP JUMPDEST PUSH2 0x21C PUSH8 0xC1EC393EEF61492E PUSH1 0xC0 SHL PUSH2 0x600 JUMP JUMPDEST PUSH2 0x230 PUSH8 0x87EB47609F989614 PUSH1 0xC0 SHL PUSH2 0x600 JUMP JUMPDEST DUP1 PUSH1 0x0 DUP2 SWAP1 SSTORE POP POP JUMP JUMPDEST PUSH2 0x24E PUSH8 0xB25976E52FE68E8B PUSH1 0xC0 SHL PUSH2 0x600 JUMP JUMPDEST PUSH2 0x262 PUSH8 0x2A070BA594F193D4 PUSH1 0xC0 SHL PUSH2 0x600 JUMP JUMPDEST PUSH2 0x276 PUSH8 0xFD9D8BBC1CA709F PUSH1 0xC0 SHL PUSH2 0x600 JUMP JUMPDEST PUSH1 0x1 PUSH1 0x40 MLOAD DUP1 PUSH1 0x40 ADD PUSH1 0x40 MSTORE DUP1 DUP4 DUP2 MSTORE PUSH1 0x20 ADD DUP5 DUP2 MSTORE POP SWAP1 DUP1 PUSH1 0x1 DUP2 SLOAD ADD DUP1 DUP3 SSTORE DUP1 SWAP2 POP POP PUSH1 0x1 SWAP1 SUB SWAP1 PUSH1 0x0 MSTORE PUSH1 0x20 PUSH1 0x0 KECCAK256 SWAP1 PUSH1 0x2 MUL ADD PUSH1 0x0 SWAP1 SWAP2 SWAP1 SWAP2 SWAP1 SWAP2 POP PUSH1 0x0 DUP3 ADD MLOAD DUP2 PUSH1 0x0 ADD SSTORE PUSH1 0x20 DUP3 ADD MLOAD DUP2 PUSH1 0x1 ADD SWAP1 DUP2 PUSH2 0x2D5 SWAP2 SWAP1 PUSH2 0xB6C JUMP JUMPDEST POP POP POP PUSH2 0x2EC PUSH8 0xEB5228880EB2C7E8 PUSH1 0xC0 SHL PUSH2 0x600 JUMP JUMPDEST DUP1 PUSH1 0x2 DUP4 PUSH1 0x40 MLOAD PUSH2 0x2FD SWAP2 SWAP1 PUSH2 0xC7A JUMP JUMPDEST SWAP1 DUP2 MSTORE PUSH1 0x20 ADD PUSH1 0x40 MLOAD DUP1 SWAP2 SUB SWAP1 KECCAK256 DUP2 SWAP1 SSTORE POP POP POP JUMP JUMPDEST PUSH1 0x0 PUSH2 0x329 PUSH8 0xE5D8A70E5B6CA7CD PUSH1 0xC0 SHL PUSH2 0x600 JUMP JUMPDEST PUSH2 0x33D PUSH8 0xA47F20B13AA0B06B PUSH1 0xC0 SHL PUSH2 0x600 JUMP JUMPDEST PUSH2 0x351 PUSH8 0x362929A129EF7D91 PUSH1 0xC0 SHL PUSH2 0x600 JUMP JUMPDEST PUSH1 0x0 PUSH1 0x1 DUP4 DUP2 SLOAD DUP2 LT PUSH2 0x367 JUMPI PUSH2 0x366 PUSH2 0xC91 JUMP JUMPDEST JUMPDEST SWAP1 PUSH1 0x0 MSTORE PUSH1 0x20 PUSH1 0x0 KECCAK256 SWAP1 PUSH1 0x2 MUL ADD PUSH1 0x0 ADD SLOAD SWAP1 POP PUSH2 0x38F PUSH8 0x9932B276A415842E PUSH1 0xC0 SHL PUSH2 0x600 JUMP JUMPDEST PUSH2 0x3A3 PUSH8 0x7293B70DD71B6A44 PUSH1 0xC0 SHL PUSH2 0x600 JUMP JUMPDEST DUP1 SWAP2 POP POP SWAP2 SWAP1 POP JUMP JUMPDEST PUSH1 0x2 DUP2 DUP1 MLOAD PUSH1 0x20 DUP2 ADD DUP3 ADD DUP1 MLOAD DUP5 DUP3 MSTORE PUSH1 0x20 DUP4 ADD PUSH1 0x20 DUP6 ADD KECCAK256 DUP2 DUP4 MSTORE DUP1 SWAP6 POP POP POP POP POP POP PUSH1 0x0 SWAP2 POP SWAP1 POP SLOAD DUP2 JUMP JUMPDEST PUSH1 0x1 DUP2 DUP2 SLOAD DUP2 LT PUSH2 0x3EA JUMPI PUSH1 0x0 DUP1 REVERT JUMPDEST SWAP1 PUSH1 0x0 MSTORE PUSH1 0x20 PUSH1 0x0 KECCAK256 SWAP1 PUSH1 0x2 MUL ADD PUSH1 0x0 SWAP2 POP SWAP1 POP DUP1 PUSH1 0x0 ADD SLOAD SWAP1 DUP1 PUSH1 0x1 ADD DUP1 SLOAD PUSH2 0x413 SWAP1 PUSH2 0x98F JUMP JUMPDEST DUP1 PUSH1 0x1F ADD PUSH1 0x20 DUP1 SWAP2 DIV MUL PUSH1 0x20 ADD PUSH1 0x40 MLOAD SWAP1 DUP2 ADD PUSH1 0x40 MSTORE DUP1 SWAP3 SWAP2 SWAP1 DUP2 DUP2 MSTORE PUSH1 0x20 ADD DUP3 DUP1 SLOAD PUSH2 0x43F SWAP1 PUSH2 0x98F JUMP JUMPDEST DUP1 ISZERO PUSH2 0x48C JUMPI DUP1 PUSH1 0x1F LT PUSH2 0x461 JUMPI PUSH2 0x100 DUP1 DUP4 SLOAD DIV MUL DUP4 MSTORE SWAP2 PUSH1 0x20 ADD SWAP2 PUSH2 0x48C JUMP JUMPDEST DUP3 ADD SWAP2 SWAP1 PUSH1 0x0 MSTORE PUSH1 0x20 PUSH1 0x0 KECCAK256 SWAP1 JUMPDEST DUP2 SLOAD DUP2 MSTORE SWAP1 PUSH1 0x1 ADD SWAP1 PUSH1 0x20 ADD DUP1 DUP4 GT PUSH2 0x46F JUMPI DUP3 SWAP1 SUB PUSH1 0x1F AND DUP3 ADD SWAP2 JUMPDEST POP POP POP POP POP SWAP1 POP DUP3 JUMP JUMPDEST PUSH1 0x60 PUSH2 0x4AC PUSH8 0xA26C2C6B6AF6DDCF PUSH1 0xC0 SHL PUSH2 0x600 JUMP JUMPDEST PUSH2 0x4C0 PUSH8 0xB1B3903D6D418B3B PUSH1 0xC0 SHL PUSH2 0x600 JUMP JUMPDEST PUSH2 0x4D4 PUSH8 0x1147A52B2EA7D563 PUSH1 0xC0 SHL PUSH2 0x600 JUMP JUMPDEST PUSH1 0x0 PUSH1 0x1 DUP4 DUP2 SLOAD DUP2 LT PUSH2 0x4EA JUMPI PUSH2 0x4E9 PUSH2 0xC91 JUMP JUMPDEST JUMPDEST SWAP1 PUSH1 0x0 MSTORE PUSH1 0x20 PUSH1 0x0 KECCAK256 SWAP1 PUSH1 0x2 MUL ADD PUSH1 0x1 ADD DUP1 SLOAD PUSH2 0x506 SWAP1 PUSH2 0x98F JUMP JUMPDEST DUP1 PUSH1 0x1F ADD PUSH1 0x20 DUP1 SWAP2 DIV MUL PUSH1 0x20 ADD PUSH1 0x40 MLOAD SWAP1 DUP2 ADD PUSH1 0x40 MSTORE DUP1 SWAP3 SWAP2 SWAP1 DUP2 DUP2 MSTORE PUSH1 0x20 ADD DUP3 DUP1 SLOAD PUSH2 0x532 SWAP1 PUSH2 0x98F JUMP JUMPDEST DUP1 ISZERO PUSH2 0x57F JUMPI DUP1 PUSH1 0x1F LT PUSH2 0x554 JUMPI PUSH2 0x100 DUP1 DUP4 SLOAD DIV MUL DUP4 MSTORE SWAP2 PUSH1 0x20 ADD SWAP2 PUSH2 0x57F JUMP JUMPDEST DUP3 ADD SWAP2 SWAP1 PUSH1 0x0 MSTORE PUSH1 0x20 PUSH1 0x0 KECCAK256 SWAP1 JUMPDEST DUP2 SLOAD DUP2 MSTORE SWAP1 PUSH1 0x1 ADD SWAP1 PUSH1 0x20 ADD DUP1 DUP4 GT PUSH2 0x562 JUMPI DUP3 SWAP1 SUB PUSH1 0x1F AND DUP3 ADD SWAP2 JUMPDEST POP POP POP POP POP SWAP1 POP PUSH2 0x59A PUSH8 0x41757FA4D50AD5F3 PUSH1 0xC0 SHL PUSH2 0x600 JUMP JUMPDEST PUSH2 0x5AE PUSH8 0xDC9886519DC65116 PUSH1 0xC0 SHL PUSH2 0x600 JUMP JUMPDEST DUP1 SWAP2 POP POP SWAP2 SWAP1 POP JUMP JUMPDEST PUSH1 0x0 PUSH2 0x5CD PUSH8 0x3D8F73D9AA4C75CC PUSH1 0xC0 SHL PUSH2 0x600 JUMP JUMPDEST PUSH2 0x5E1 PUSH8 0x499BB5D0E22B2F89 PUSH1 0xC0 SHL PUSH2 0x600 JUMP JUMPDEST PUSH2 0x5F5 PUSH8 0x6F7411D4933B3826 PUSH1 0xC0 SHL PUSH2 0x600 JUMP JUMPDEST PUSH1 0x1 DUP1 SLOAD SWAP1 POP SWAP1 POP SWAP1 JUMP JUMPDEST POP JUMP JUMPDEST PUSH1 0x0 DUP2 SWAP1 POP SWAP2 SWAP1 POP JUMP JUMPDEST PUSH2 0x616 DUP2 PUSH2 0x603 JUMP JUMPDEST DUP3 MSTORE POP POP JUMP JUMPDEST PUSH1 0x0 PUSH1 0x20 DUP3 ADD SWAP1 POP PUSH2 0x631 PUSH1 0x0 DUP4 ADD DUP5 PUSH2 0x60D JUMP JUMPDEST SWAP3 SWAP2 POP POP JUMP JUMPDEST PUSH1 0x0 PUSH1 0x40 MLOAD SWAP1 POP SWAP1 JUMP JUMPDEST PUSH1 0x0 DUP1 REVERT JUMPDEST PUSH1 0x0 DUP1 REVERT JUMPDEST PUSH2 0x654 DUP2 PUSH2 0x603 JUMP JUMPDEST DUP2 EQ PUSH2 0x65F JUMPI PUSH1 0x0 DUP1 REVERT JUMPDEST POP JUMP JUMPDEST PUSH1 0x0 DUP2 CALLDATALOAD SWAP1 POP PUSH2 0x671 DUP2 PUSH2 0x64B JUMP JUMPDEST SWAP3 SWAP2 POP POP JUMP JUMPDEST PUSH1 0x0 PUSH1 0x20 DUP3 DUP5 SUB SLT ISZERO PUSH2 0x68D JUMPI PUSH2 0x68C PUSH2 0x641 JUMP JUMPDEST JUMPDEST PUSH1 0x0 PUSH2 0x69B DUP5 DUP3 DUP6 ADD PUSH2 0x662 JUMP JUMPDEST SWAP2 POP POP SWAP3 SWAP2 POP POP JUMP JUMPDEST PUSH1 0x0 DUP1 REVERT JUMPDEST PUSH1 0x0 DUP1 REVERT JUMPDEST PUSH1 0x0 PUSH1 0x1F NOT PUSH1 0x1F DUP4 ADD AND SWAP1 POP SWAP2 SWAP1 POP JUMP JUMPDEST PUSH32 0x4E487B7100000000000000000000000000000000000000000000000000000000 PUSH1 0x0 MSTORE PUSH1 0x41 PUSH1 0x4 MSTORE PUSH1 0x24 PUSH1 0x0 REVERT JUMPDEST PUSH2 0x6F7 DUP3 PUSH2 0x6AE JUMP JUMPDEST DUP2 ADD DUP2 DUP2 LT PUSH8 0xFFFFFFFFFFFFFFFF DUP3 GT OR ISZERO PUSH2 0x716 JUMPI PUSH2 0x715 PUSH2 0x6BF JUMP JUMPDEST JUMPDEST DUP1 PUSH1 0x40 MSTORE POP POP POP JUMP JUMPDEST PUSH1 0x0 PUSH2 0x729 PUSH2 0x637 JUMP JUMPDEST SWAP1 POP PUSH2 0x735 DUP3 DUP3 PUSH2 0x6EE JUMP JUMPDEST SWAP2 SWAP1 POP JUMP JUMPDEST PUSH1 0x0 PUSH8 0xFFFFFFFFFFFFFFFF DUP3 GT ISZERO PUSH2 0x755 JUMPI PUSH2 0x754 PUSH2 0x6BF JUMP JUMPDEST JUMPDEST PUSH2 0x75E DUP3 PUSH2 0x6AE JUMP JUMPDEST SWAP1 POP PUSH1 0x20 DUP2 ADD SWAP1 POP SWAP2 SWAP1 POP JUMP JUMPDEST DUP3 DUP2 DUP4 CALLDATACOPY PUSH1 0x0 DUP4 DUP4 ADD MSTORE POP POP POP JUMP JUMPDEST PUSH1 0x0 PUSH2 0x78D PUSH2 0x788 DUP5 PUSH2 0x73A JUMP JUMPDEST PUSH2 0x71F JUMP JUMPDEST SWAP1 POP DUP3 DUP2 MSTORE PUSH1 0x20 DUP2 ADD DUP5 DUP5 DUP5 ADD GT ISZERO PUSH2 0x7A9 JUMPI PUSH2 0x7A8 PUSH2 0x6A9 JUMP JUMPDEST JUMPDEST PUSH2 0x7B4 DUP5 DUP3 DUP6 PUSH2 0x76B JUMP JUMPDEST POP SWAP4 SWAP3 POP POP POP JUMP JUMPDEST PUSH1 0x0 DUP3 PUSH1 0x1F DUP4 ADD SLT PUSH2 0x7D1 JUMPI PUSH2 0x7D0 PUSH2 0x6A4 JUMP JUMPDEST JUMPDEST DUP2 CALLDATALOAD PUSH2 0x7E1 DUP5 DUP3 PUSH1 0x20 DUP7 ADD PUSH2 0x77A JUMP JUMPDEST SWAP2 POP POP SWAP3 SWAP2 POP POP JUMP JUMPDEST PUSH1 0x0 DUP1 PUSH1 0x40 DUP4 DUP6 SUB SLT ISZERO PUSH2 0x801 JUMPI PUSH2 0x800 PUSH2 0x641 JUMP JUMPDEST JUMPDEST PUSH1 0x0 DUP4 ADD CALLDATALOAD PUSH8 0xFFFFFFFFFFFFFFFF DUP2 GT ISZERO PUSH2 0x81F JUMPI PUSH2 0x81E PUSH2 0x646 JUMP JUMPDEST JUMPDEST PUSH2 0x82B DUP6 DUP3 DUP7 ADD PUSH2 0x7BC JUMP JUMPDEST SWAP3 POP POP PUSH1 0x20 PUSH2 0x83C DUP6 DUP3 DUP7 ADD PUSH2 0x662 JUMP JUMPDEST SWAP2 POP POP SWAP3 POP SWAP3 SWAP1 POP JUMP JUMPDEST PUSH1 0x0 PUSH1 0x20 DUP3 DUP5 SUB SLT ISZERO PUSH2 0x85C JUMPI PUSH2 0x85B PUSH2 0x641 JUMP JUMPDEST JUMPDEST PUSH1 0x0 DUP3 ADD CALLDATALOAD PUSH8 0xFFFFFFFFFFFFFFFF DUP2 GT ISZERO PUSH2 0x87A JUMPI PUSH2 0x879 PUSH2 0x646 JUMP JUMPDEST JUMPDEST PUSH2 0x886 DUP5 DUP3 DUP6 ADD PUSH2 0x7BC JUMP JUMPDEST SWAP2 POP POP SWAP3 SWAP2 POP POP JUMP JUMPDEST PUSH1 0x0 DUP2 MLOAD SWAP1 POP SWAP2 SWAP1 POP JUMP JUMPDEST PUSH1 0x0 DUP3 DUP3 MSTORE PUSH1 0x20 DUP3 ADD SWAP1 POP SWAP3 SWAP2 POP POP JUMP JUMPDEST PUSH1 0x0 JUMPDEST DUP4 DUP2 LT ISZERO PUSH2 0x8C9 JUMPI DUP1 DUP3 ADD MLOAD DUP2 DUP5 ADD MSTORE PUSH1 0x20 DUP2 ADD SWAP1 POP PUSH2 0x8AE JUMP JUMPDEST PUSH1 0x0 DUP5 DUP5 ADD MSTORE POP POP POP POP JUMP JUMPDEST PUSH1 0x0 PUSH2 0x8E0 DUP3 PUSH2 0x88F JUMP JUMPDEST PUSH2 0x8EA DUP2 DUP6 PUSH2 0x89A JUMP JUMPDEST SWAP4 POP PUSH2 0x8FA DUP2 DUP6 PUSH1 0x20 DUP7 ADD PUSH2 0x8AB JUMP JUMPDEST PUSH2 0x903 DUP2 PUSH2 0x6AE JUMP JUMPDEST DUP5 ADD SWAP2 POP POP SWAP3 SWAP2 POP POP JUMP JUMPDEST PUSH1 0x0 PUSH1 0x40 DUP3 ADD SWAP1 POP PUSH2 0x923 PUSH1 0x0 DUP4 ADD DUP6 PUSH2 0x60D JUMP JUMPDEST DUP2 DUP2 SUB PUSH1 0x20 DUP4 ADD MSTORE PUSH2 0x935 DUP2 DUP5 PUSH2 0x8D5 JUMP JUMPDEST SWAP1 POP SWAP4 SWAP3 POP POP POP JUMP JUMPDEST PUSH1 0x0 PUSH1 0x20 DUP3 ADD SWAP1 POP DUP2 DUP2 SUB PUSH1 0x0 DUP4 ADD MSTORE PUSH2 0x958 DUP2 DUP5 PUSH2 0x8D5 JUMP JUMPDEST SWAP1 POP SWAP3 SWAP2 POP POP JUMP JUMPDEST PUSH32 0x4E487B7100000000000000000000000000000000000000000000000000000000 PUSH1 0x0 MSTORE PUSH1 0x22 PUSH1 0x4 MSTORE PUSH1 0x24 PUSH1 0x0 REVERT JUMPDEST PUSH1 0x0 PUSH1 0x2 DUP3 DIV SWAP1 POP PUSH1 0x1 DUP3 AND DUP1 PUSH2 0x9A7 JUMPI PUSH1 0x7F DUP3 AND SWAP2 POP JUMPDEST PUSH1 0x20 DUP3 LT DUP2 SUB PUSH2 0x9BA JUMPI PUSH2 0x9B9 PUSH2 0x960 JUMP JUMPDEST JUMPDEST POP SWAP2 SWAP1 POP JUMP JUMPDEST PUSH1 0x0 DUP2 SWAP1 POP DUP2 PUSH1 0x0 MSTORE PUSH1 0x20 PUSH1 0x0 KECCAK256 SWAP1 POP SWAP2 SWAP1 POP JUMP JUMPDEST PUSH1 0x0 PUSH1 0x20 PUSH1 0x1F DUP4 ADD DIV SWAP1 POP SWAP2 SWAP1 POP JUMP JUMPDEST PUSH1 0x0 DUP3 DUP3 SHL SWAP1 POP SWAP3 SWAP2 POP POP JUMP JUMPDEST PUSH1 0x0 PUSH1 0x8 DUP4 MUL PUSH2 0xA22 PUSH32 0xFFFFFFFFFFFFFFFFFFFFFFFFFFFFFFFFFFFFFFFFFFFFFFFFFFFFFFFFFFFFFFFF DUP3 PUSH2 0x9E5 JUMP JUMPDEST PUSH2 0xA2C DUP7 DUP4 PUSH2 0x9E5 JUMP JUMPDEST SWAP6 POP DUP1 NOT DUP5 AND SWAP4 POP DUP1 DUP7 AND DUP5 OR SWAP3 POP POP POP SWAP4 SWAP3 POP POP POP JUMP JUMPDEST PUSH1 0x0 DUP2 SWAP1 POP SWAP2 SWAP1 POP JUMP JUMPDEST PUSH1 0x0 PUSH2 0xA69 PUSH2 0xA64 PUSH2 0xA5F DUP5 PUSH2 0x603 JUMP JUMPDEST PUSH2 0xA44 JUMP JUMPDEST PUSH2 0x603 JUMP JUMPDEST SWAP1 POP SWAP2 SWAP1 POP JUMP JUMPDEST PUSH1 0x0 DUP2 SWAP1 POP SWAP2 SWAP1 POP JUMP JUMPDEST PUSH2 0xA83 DUP4 PUSH2 0xA4E JUMP JUMPDEST PUSH2 0xA97 PUSH2 0xA8F DUP3 PUSH2 0xA70 JUMP JUMPDEST DUP5 DUP5 SLOAD PUSH2 0x9F2 JUMP JUMPDEST DUP3 SSTORE POP POP POP POP JUMP JUMPDEST PUSH1 0x0 SWAP1 JUMP JUMPDEST PUSH2 0xAAC PUSH2 0xA9F JUMP JUMPDEST PUSH2 0xAB7 DUP2 DUP5 DUP5 PUSH2 0xA7A JUMP JUMPDEST POP POP POP JUMP JUMPDEST JUMPDEST DUP2 DUP2 LT ISZERO PUSH2 0xADB JUMPI PUSH2 0xAD0 PUSH1 0x0 DUP3 PUSH2 0xAA4 JUMP JUMPDEST PUSH1 0x1 DUP2 ADD SWAP1 POP PUSH2 0xABD JUMP JUMPDEST POP POP JUMP JUMPDEST PUSH1 0x1F DUP3 GT ISZERO PUSH2 0xB20 JUMPI PUSH2 0xAF1 DUP2 PUSH2 0x9C0 JUMP JUMPDEST PUSH2 0xAFA DUP5 PUSH2 0x9D5 JUMP JUMPDEST DUP2 ADD PUSH1 0x20 DUP6 LT ISZERO PUSH2 0xB09 JUMPI DUP2 SWAP1 POP JUMPDEST PUSH2 0xB1D PUSH2 0xB15 DUP6 PUSH2 0x9D5 JUMP JUMPDEST DUP4 ADD DUP3 PUSH2 0xABC JUMP JUMPDEST POP POP JUMPDEST POP POP POP JUMP JUMPDEST PUSH1 0x0 DUP3 DUP3 SHR SWAP1 POP SWAP3 SWAP2 POP POP JUMP JUMPDEST PUSH1 0x0 PUSH2 0xB43 PUSH1 0x0 NOT DUP5 PUSH1 0x8 MUL PUSH2 0xB25 JUMP JUMPDEST NOT DUP1 DUP4 AND SWAP2 POP POP SWAP3 SWAP2 POP POP JUMP JUMPDEST PUSH1 0x0 PUSH2 0xB5C DUP4 DUP4 PUSH2 0xB32 JUMP JUMPDEST SWAP2 POP DUP3 PUSH1 0x2 MUL DUP3 OR SWAP1 POP SWAP3 SWAP2 POP POP JUMP JUMPDEST PUSH2 0xB75 DUP3 PUSH2 0x88F JUMP JUMPDEST PUSH8 0xFFFFFFFFFFFFFFFF DUP2 GT ISZERO PUSH2 0xB8E JUMPI PUSH2 0xB8D PUSH2 0x6BF JUMP JUMPDEST JUMPDEST PUSH2 0xB98 DUP3 SLOAD PUSH2 0x98F JUMP JUMPDEST PUSH2 0xBA3 DUP3 DUP3 DUP6 PUSH2 0xADF JUMP JUMPDEST PUSH1 0x0 PUSH1 0x20 SWAP1 POP PUSH1 0x1F DUP4 GT PUSH1 0x1 DUP2 EQ PUSH2 0xBD6 JUMPI PUSH1 0x0 DUP5 ISZERO PUSH2 0xBC4 JUMPI DUP3 DUP8 ADD MLOAD SWAP1 POP JUMPDEST PUSH2 0xBCE DUP6 DUP3 PUSH2 0xB50 JUMP JUMPDEST DUP7 SSTORE POP PUSH2 0xC36 JUMP JUMPDEST PUSH1 0x1F NOT DUP5 AND PUSH2 0xBE4 DUP7 PUSH2 0x9C0 JUMP JUMPDEST PUSH1 0x0 JUMPDEST DUP3 DUP2 LT ISZERO PUSH2 0xC0C JUMPI DUP5 DUP10 ADD MLOAD DUP3 SSTORE PUSH1 0x1 DUP3 ADD SWAP2 POP PUSH1 0x20 DUP6 ADD SWAP5 POP PUSH1 0x20 DUP2 ADD SWAP1 POP PUSH2 0xBE7 JUMP JUMPDEST DUP7 DUP4 LT ISZERO PUSH2 0xC29 JUMPI DUP5 DUP10 ADD MLOAD PUSH2 0xC25 PUSH1 0x1F DUP10 AND DUP3 PUSH2 0xB32 JUMP JUMPDEST DUP4 SSTORE POP JUMPDEST PUSH1 0x1 PUSH1 0x2 DUP9 MUL ADD DUP9 SSTORE POP POP POP JUMPDEST POP POP POP POP POP POP JUMP JUMPDEST PUSH1 0x0 DUP2 SWAP1 POP SWAP3 SWAP2 POP POP JUMP JUMPDEST PUSH1 0x0 PUSH2 0xC54 DUP3 PUSH2 0x88F JUMP JUMPDEST PUSH2 0xC5E DUP2 DUP6 PUSH2 0xC3E JUMP JUMPDEST SWAP4 POP PUSH2 0xC6E DUP2 DUP6 PUSH1 0x20 DUP7 ADD PUSH2 0x8AB JUMP JUMPDEST DUP1 DUP5 ADD SWAP2 POP POP SWAP3 SWAP2 POP POP JUMP JUMPDEST PUSH1 0x0 PUSH2 0xC86 DUP3 DUP5 PUSH2 0xC49 JUMP JUMPDEST SWAP2 POP DUP2 SWAP1 POP SWAP3 SWAP2 POP POP JUMP JUMPDEST PUSH32 0x4E487B7100000000000000000000000000000000000000000000000000000000 PUSH1 0x0 MSTORE PUSH1 0x32 PUSH1 0x4 MSTORE PUSH1 0x24 PUSH1 0x0 REVERT INVALID LOG2 PUSH5 0x6970667358 0x22 SLT KECCAK256 NUMBER PUSH4 0x9864F6C3 0xB9 0xB4 0xEF 0xB0 SWAP1 CALLDATALOAD SWAP8 CALLVALUE 0xD3 0xC4 PUSH17 0x8EC1F45B655116346F1A8E5B672AFD6473 PUSH16 0x6C634300081200330000000000000000 "},"methodIdentifiers":{"addPerson(string,uint256)":"6f760f41","getLength()":"be1c766b","nameToFavoriteNumber(string)":"8bab8dd5","people(uint256)":"9e7a13ad","retrieve()":"2e64cec1","retrievenumber(uint256)":"8377e7b2","retrieveperson(uint256)":"a6eafdfb","store(uint256)":"6057361d"}}}}}