{"contracts/Auction.sol":{"Auction":{"abi":[{"inputs":[{"internalType":"uint256","name":"durationInSeconds","type":"uint256"}],"stateMutability":"nonpayable","type":"constructor"},{"anonymous":false,"inputs":[{"indexed":false,"internalType":"address","name":"winner","type":"address"},{"indexed":false,"internalType":"uint256","name":"amount","type":"uint256"}],"name":"AuctionEnded","type":"event"},{"anonymous":false,"inputs":[{"indexed":true,"internalType":"address","name":"bidder","type":"address"},{"indexed":false,"internalType":"uint256","name":"amount","type":"uint256"}],"name":"BidPlaced","type":"event"},{"inputs":[],"name":"auctioneer","outputs":[{"internalType":"address","name":"","type":"address"}],"stateMutability":"view","type":"function"},{"inputs":[{"internalType":"address","name":"","type":"address"}],"name":"bids","outputs":[{"internalType":"uint256","name":"","type":"uint256"}],"stateMutability":"view","type":"function"},{"inputs":[],"name":"endAuction","outputs":[],"stateMutability":"nonpayable","type":"function"},{"inputs":[],"name":"endTime","outputs":[{"internalType":"uint256","name":"","type":"uint256"}],"stateMutability":"view","type":"function"},{"inputs":[],"name":"highestBid","outputs":[{"internalType":"uint256","name":"","type":"uint256"}],"stateMutability":"view","type":"function"},{"inputs":[],"name":"highestBidder","outputs":[{"internalType":"address","name":"","type":"address"}],"stateMutability":"view","type":"function"},{"inputs":[],"name":"placeBid","outputs":[],"stateMutability":"payable","type":"function"}],"evm":{"bytecode":{"linkReferences":{},"object":"60806040523480156200001157600080fd5b5060405162000fd938038062000fd9833981810160405281019062000037919062000129565b620000536794c246c446d380fb60c01b620000e660201b60201c565b6200006f67d4df05d504ddb29a60c01b620000e660201b60201c565b336000806101000a81548173ffffffffffffffffffffffffffffffffffffffff021916908373ffffffffffffffffffffffffffffffffffffffff160217905550620000cb67317593e6e67efffa60c01b620000e660201b60201c565b8042620000d991906200018a565b60018190555050620001c5565b50565b600080fd5b6000819050919050565b6200010381620000ee565b81146200010f57600080fd5b50565b6000815190506200012381620000f8565b92915050565b600060208284031215620001425762000141620000e9565b5b6000620001528482850162000112565b91505092915050565b7f4e487b7100000000000000000000000000000000000000000000000000000000600052601160045260246000fd5b60006200019782620000ee565b9150620001a483620000ee565b9250828201905080821115620001bf57620001be6200015b565b5b92915050565b610e0480620001d56000396000f3fe6080604052600436106100705760003560e01c806391f901571161004e57806391f9015714610108578063d57bde7914610133578063ecfc7ecc1461015e578063fe67a54b1461016857610070565b80633197cbb6146100755780635ec2c7bf146100a057806362ea82db146100cb575b600080fd5b34801561008157600080fd5b5061008a61017f565b6040516100979190610a31565b60405180910390f35b3480156100ac57600080fd5b506100b5610185565b6040516100c29190610a8d565b60405180910390f35b3480156100d757600080fd5b506100f260048036038101906100ed9190610ad9565b6101a9565b6040516100ff9190610a31565b60405180910390f35b34801561011457600080fd5b5061011d6101c1565b60405161012a9190610a8d565b60405180910390f35b34801561013f57600080fd5b506101486101e7565b6040516101559190610a31565b60405180910390f35b6101666101ed565b005b34801561017457600080fd5b5061017d6106d8565b005b60015481565b60008054906101000a900473ffffffffffffffffffffffffffffffffffffffff1681565b60046020528060005260406000206000915090505481565b600360009054906101000a900473ffffffffffffffffffffffffffffffffffffffff1681565b60025481565b610201672bee4a858838a70760c01b610a15565b6102156758fee9fc8bfdc87160c01b610a15565b6102296714928e8ed721555660c01b610a15565b61023d67426863e5b7bcc3f260c01b610a15565b6102516704fb322fcce5fb3c60c01b610a15565b6001544210610295576040517f08c379a000000000000000000000000000000000000000000000000000000000815260040161028c90610b63565b60405180910390fd5b6102a9671ae0e2883e94b24760c01b610a15565b6102bd674f3c03daf120ca8560c01b610a15565b6102d16723b023c20224376c60c01b610a15565b6102e567e34723badb7c933f60c01b610a15565b6102f9674d2aca0762efd42860c01b610a15565b61030d67969d5143c65dcad560c01b610a15565b6103216728a0eeecb1fc222260c01b610a15565b6002543411610365576040517f08c379a000000000000000000000000000000000000000000000000000000000815260040161035c90610bf5565b60405180910390fd5b610379674fb082f708d4456c60c01b610a15565b61038d675e7f99544dafd7e960c01b610a15565b6103a167ec5d3d2f4f00b7a560c01b610a15565b6103b5673457482577d8941060c01b610a15565b600360009054906101000a900473ffffffffffffffffffffffffffffffffffffffff1673ffffffffffffffffffffffffffffffffffffffff163373ffffffffffffffffffffffffffffffffffffffff1603610445576040517f08c379a000000000000000000000000000000000000000000000000000000000815260040161043c90610c87565b60405180910390fd5b61045967b2b89924325a927360c01b610a15565b61046d67d350d38eea9c8d1a60c01b610a15565b610481679f993a329b5199bf60c01b610a15565b600073ffffffffffffffffffffffffffffffffffffffff16600360009054906101000a900473ffffffffffffffffffffffffffffffffffffffff1673ffffffffffffffffffffffffffffffffffffffff1614610583576104eb6719678af158f8991560c01b610a15565b6104ff67a2ed0bf4da26ed1860c01b610a15565b61051367a683efe745bd461760c01b610a15565b600360009054906101000a900473ffffffffffffffffffffffffffffffffffffffff1673ffffffffffffffffffffffffffffffffffffffff166108fc6002549081150290604051600060405180830381858888f1935050505015801561057d573d6000803e3d6000fd5b50610598565b61059767c07bb0d810c9808b60c01b610a15565b5b6105ac671c3bf6a1e66efc4b60c01b610a15565b346002819055506105c767a469c861fa1e542760c01b610a15565b33600360006101000a81548173ffffffffffffffffffffffffffffffffffffffff021916908373ffffffffffffffffffffffffffffffffffffffff16021790555061061c6743d77b7baf60bddd60c01b610a15565b34600460003373ffffffffffffffffffffffffffffffffffffffff1673ffffffffffffffffffffffffffffffffffffffff1681526020019081526020016000208190555061067467418f4b269572014260c01b610a15565b61068867b34b2bf016525f1e60c01b610a15565b3373ffffffffffffffffffffffffffffffffffffffff167f3fabff0a9c3ecd6814702e247fa9733e5d0aa69e3a38590f92cb18f623a2254d346040516106ce9190610a31565b60405180910390a2565b6106ec6771edfe1a56cfe82d60c01b610a15565b6107006788c0921c22d2ecba60c01b610a15565b610714672e51682954d76fa960c01b610a15565b61072867298985b433e77baa60c01b610a15565b61073c6708205f6fa28b31a460c01b610a15565b60008054906101000a900473ffffffffffffffffffffffffffffffffffffffff1673ffffffffffffffffffffffffffffffffffffffff163373ffffffffffffffffffffffffffffffffffffffff16146107ca576040517f08c379a00000000000000000000000000000000000000000000000000000000081526004016107c190610d19565b60405180910390fd5b6107de67e0ae208c583f028560c01b610a15565b6107f267380417b2566cac5560c01b610a15565b61080667c194b82f0ce364cc60c01b610a15565b61081a670e13339b5d3c9eef60c01b610a15565b61082e671d0a7d7d4753710060c01b610a15565b6108426728e834f990a3b27e60c01b610a15565b6108566720849e5b188b963f60c01b610a15565b61086a67a783428210be565f60c01b610a15565b6001544210156108af576040517f08c379a00000000000000000000000000000000000000000000000000000000081526004016108a690610d85565b60405180910390fd5b6108c367cbb6d4bf45b7fa9360c01b610a15565b6108d7678a83da2ba62d773860c01b610a15565b6108eb6759807d7da6e83d3760c01b610a15565b6108ff67818e68d3e3b2ce9d60c01b610a15565b61091367a1996e515d17b3c360c01b610a15565b61092767d7670513f58f5ff960c01b610a15565b60008054906101000a900473ffffffffffffffffffffffffffffffffffffffff1673ffffffffffffffffffffffffffffffffffffffff166108fc479081150290604051600060405180830381858888f1935050505015801561098d573d6000803e3d6000fd5b506109a267c24bc284467a1e1b60c01b610a15565b6109b66753ada1242571009560c01b610a15565b7fdaec4582d5d9595688c8c98545fdd1c696d41c6aeaeb636737e84ed2f5c00eda600360009054906101000a900473ffffffffffffffffffffffffffffffffffffffff16600254604051610a0b929190610da5565b60405180910390a1565b50565b6000819050919050565b610a2b81610a18565b82525050565b6000602082019050610a466000830184610a22565b92915050565b600073ffffffffffffffffffffffffffffffffffffffff82169050919050565b6000610a7782610a4c565b9050919050565b610a8781610a6c565b82525050565b6000602082019050610aa26000830184610a7e565b92915050565b600080fd5b610ab681610a6c565b8114610ac157600080fd5b50565b600081359050610ad381610aad565b92915050565b600060208284031215610aef57610aee610aa8565b5b6000610afd84828501610ac4565b91505092915050565b600082825260208201905092915050565b7f41756374696f6e2068617320656e646564000000000000000000000000000000600082015250565b6000610b4d601183610b06565b9150610b5882610b17565b602082019050919050565b60006020820190508181036000830152610b7c81610b40565b9050919050565b7f42696420616d6f756e74206d75737420626520686967686572207468616e206360008201527f757272656e742068696768657374206269640000000000000000000000000000602082015250565b6000610bdf603283610b06565b9150610bea82610b83565b604082019050919050565b60006020820190508181036000830152610c0e81610bd2565b9050919050565b7f596f752061726520616c7265616479207468652068696768657374206269646460008201527f6572000000000000000000000000000000000000000000000000000000000000602082015250565b6000610c71602283610b06565b9150610c7c82610c15565b604082019050919050565b60006020820190508181036000830152610ca081610c64565b9050919050565b7f4f6e6c792061756374696f6e6565722063616e2063616c6c207468697320667560008201527f6e6374696f6e0000000000000000000000000000000000000000000000000000602082015250565b6000610d03602683610b06565b9150610d0e82610ca7565b604082019050919050565b60006020820190508181036000830152610d3281610cf6565b9050919050565b7f41756374696f6e20686173206e6f7420656e6465640000000000000000000000600082015250565b6000610d6f601583610b06565b9150610d7a82610d39565b602082019050919050565b60006020820190508181036000830152610d9e81610d62565b9050919050565b6000604082019050610dba6000830185610a7e565b610dc76020830184610a22565b939250505056fea2646970667358221220d01f13a000f1e4782a3e648d4f517c2c8e4fbb09e3bee0c1146d1c0919a9122364736f6c63430008120033","opcodes":"PUSH1 0x80 PUSH1 0x40 MSTORE CALLVALUE DUP1 ISZERO PUSH3 0x11 JUMPI PUSH1 0x0 DUP1 REVERT JUMPDEST POP PUSH1 0x40 MLOAD PUSH3 0xFD9 CODESIZE SUB DUP1 PUSH3 0xFD9 DUP4 CODECOPY DUP2 DUP2 ADD PUSH1 0x40 MSTORE DUP2 ADD SWAP1 PUSH3 0x37 SWAP2 SWAP1 PUSH3 0x129 JUMP JUMPDEST PUSH3 0x53 PUSH8 0x94C246C446D380FB PUSH1 0xC0 SHL PUSH3 0xE6 PUSH1 0x20 SHL PUSH1 0x20 SHR JUMP JUMPDEST PUSH3 0x6F PUSH8 0xD4DF05D504DDB29A PUSH1 0xC0 SHL PUSH3 0xE6 PUSH1 0x20 SHL PUSH1 0x20 SHR JUMP JUMPDEST CALLER PUSH1 0x0 DUP1 PUSH2 0x100 EXP DUP2 SLOAD DUP2 PUSH20 0xFFFFFFFFFFFFFFFFFFFFFFFFFFFFFFFFFFFFFFFF MUL NOT AND SWAP1 DUP4 PUSH20 0xFFFFFFFFFFFFFFFFFFFFFFFFFFFFFFFFFFFFFFFF AND MUL OR SWAP1 SSTORE POP PUSH3 0xCB PUSH8 0x317593E6E67EFFFA PUSH1 0xC0 SHL PUSH3 0xE6 PUSH1 0x20 SHL PUSH1 0x20 SHR JUMP JUMPDEST DUP1 TIMESTAMP PUSH3 0xD9 SWAP2 SWAP1 PUSH3 0x18A JUMP JUMPDEST PUSH1 0x1 DUP2 SWAP1 SSTORE POP POP PUSH3 0x1C5 JUMP JUMPDEST POP JUMP JUMPDEST PUSH1 0x0 DUP1 REVERT JUMPDEST PUSH1 0x0 DUP2 SWAP1 POP SWAP2 SWAP1 POP JUMP JUMPDEST PUSH3 0x103 DUP2 PUSH3 0xEE JUMP JUMPDEST DUP2 EQ PUSH3 0x10F JUMPI PUSH1 0x0 DUP1 REVERT JUMPDEST POP JUMP JUMPDEST PUSH1 0x0 DUP2 MLOAD SWAP1 POP PUSH3 0x123 DUP2 PUSH3 0xF8 JUMP JUMPDEST SWAP3 SWAP2 POP POP JUMP JUMPDEST PUSH1 0x0 PUSH1 0x20 DUP3 DUP5 SUB SLT ISZERO PUSH3 0x142 JUMPI PUSH3 0x141 PUSH3 0xE9 JUMP JUMPDEST JUMPDEST PUSH1 0x0 PUSH3 0x152 DUP5 DUP3 DUP6 ADD PUSH3 0x112 JUMP JUMPDEST SWAP2 POP POP SWAP3 SWAP2 POP POP JUMP JUMPDEST PUSH32 0x4E487B7100000000000000000000000000000000000000000000000000000000 PUSH1 0x0 MSTORE PUSH1 0x11 PUSH1 0x4 MSTORE PUSH1 0x24 PUSH1 0x0 REVERT JUMPDEST PUSH1 0x0 PUSH3 0x197 DUP3 PUSH3 0xEE JUMP JUMPDEST SWAP2 POP PUSH3 0x1A4 DUP4 PUSH3 0xEE JUMP JUMPDEST SWAP3 POP DUP3 DUP3 ADD SWAP1 POP DUP1 DUP3 GT ISZERO PUSH3 0x1BF JUMPI PUSH3 0x1BE PUSH3 0x15B JUMP JUMPDEST JUMPDEST SWAP3 SWAP2 POP POP JUMP JUMPDEST PUSH2 0xE04 DUP1 PUSH3 0x1D5 PUSH1 0x0 CODECOPY PUSH1 0x0 RETURN INVALID PUSH1 0x80 PUSH1 0x40 MSTORE PUSH1 0x4 CALLDATASIZE LT PUSH2 0x70 JUMPI PUSH1 0x0 CALLDATALOAD PUSH1 0xE0 SHR DUP1 PUSH4 0x91F90157 GT PUSH2 0x4E JUMPI DUP1 PUSH4 0x91F90157 EQ PUSH2 0x108 JUMPI DUP1 PUSH4 0xD57BDE79 EQ PUSH2 0x133 JUMPI DUP1 PUSH4 0xECFC7ECC EQ PUSH2 0x15E JUMPI DUP1 PUSH4 0xFE67A54B EQ PUSH2 0x168 JUMPI PUSH2 0x70 JUMP JUMPDEST DUP1 PUSH4 0x3197CBB6 EQ PUSH2 0x75 JUMPI DUP1 PUSH4 0x5EC2C7BF EQ PUSH2 0xA0 JUMPI DUP1 PUSH4 0x62EA82DB EQ PUSH2 0xCB JUMPI JUMPDEST PUSH1 0x0 DUP1 REVERT JUMPDEST CALLVALUE DUP1 ISZERO PUSH2 0x81 JUMPI PUSH1 0x0 DUP1 REVERT JUMPDEST POP PUSH2 0x8A PUSH2 0x17F JUMP JUMPDEST PUSH1 0x40 MLOAD PUSH2 0x97 SWAP2 SWAP1 PUSH2 0xA31 JUMP JUMPDEST PUSH1 0x40 MLOAD DUP1 SWAP2 SUB SWAP1 RETURN JUMPDEST CALLVALUE DUP1 ISZERO PUSH2 0xAC JUMPI PUSH1 0x0 DUP1 REVERT JUMPDEST POP PUSH2 0xB5 PUSH2 0x185 JUMP JUMPDEST PUSH1 0x40 MLOAD PUSH2 0xC2 SWAP2 SWAP1 PUSH2 0xA8D JUMP JUMPDEST PUSH1 0x40 MLOAD DUP1 SWAP2 SUB SWAP1 RETURN JUMPDEST CALLVALUE DUP1 ISZERO PUSH2 0xD7 JUMPI PUSH1 0x0 DUP1 REVERT JUMPDEST POP PUSH2 0xF2 PUSH1 0x4 DUP1 CALLDATASIZE SUB DUP2 ADD SWAP1 PUSH2 0xED SWAP2 SWAP1 PUSH2 0xAD9 JUMP JUMPDEST PUSH2 0x1A9 JUMP JUMPDEST PUSH1 0x40 MLOAD PUSH2 0xFF SWAP2 SWAP1 PUSH2 0xA31 JUMP JUMPDEST PUSH1 0x40 MLOAD DUP1 SWAP2 SUB SWAP1 RETURN JUMPDEST CALLVALUE DUP1 ISZERO PUSH2 0x114 JUMPI PUSH1 0x0 DUP1 REVERT JUMPDEST POP PUSH2 0x11D PUSH2 0x1C1 JUMP JUMPDEST PUSH1 0x40 MLOAD PUSH2 0x12A SWAP2 SWAP1 PUSH2 0xA8D JUMP JUMPDEST PUSH1 0x40 MLOAD DUP1 SWAP2 SUB SWAP1 RETURN JUMPDEST CALLVALUE DUP1 ISZERO PUSH2 0x13F JUMPI PUSH1 0x0 DUP1 REVERT JUMPDEST POP PUSH2 0x148 PUSH2 0x1E7 JUMP JUMPDEST PUSH1 0x40 MLOAD PUSH2 0x155 SWAP2 SWAP1 PUSH2 0xA31 JUMP JUMPDEST PUSH1 0x40 MLOAD DUP1 SWAP2 SUB SWAP1 RETURN JUMPDEST PUSH2 0x166 PUSH2 0x1ED JUMP JUMPDEST STOP JUMPDEST CALLVALUE DUP1 ISZERO PUSH2 0x174 JUMPI PUSH1 0x0 DUP1 REVERT JUMPDEST POP PUSH2 0x17D PUSH2 0x6D8 JUMP JUMPDEST STOP JUMPDEST PUSH1 0x1 SLOAD DUP2 JUMP JUMPDEST PUSH1 0x0 DUP1 SLOAD SWAP1 PUSH2 0x100 EXP SWAP1 DIV PUSH20 0xFFFFFFFFFFFFFFFFFFFFFFFFFFFFFFFFFFFFFFFF AND DUP2 JUMP JUMPDEST PUSH1 0x4 PUSH1 0x20 MSTORE DUP1 PUSH1 0x0 MSTORE PUSH1 0x40 PUSH1 0x0 KECCAK256 PUSH1 0x0 SWAP2 POP SWAP1 POP SLOAD DUP2 JUMP JUMPDEST PUSH1 0x3 PUSH1 0x0 SWAP1 SLOAD SWAP1 PUSH2 0x100 EXP SWAP1 DIV PUSH20 0xFFFFFFFFFFFFFFFFFFFFFFFFFFFFFFFFFFFFFFFF AND DUP2 JUMP JUMPDEST PUSH1 0x2 SLOAD DUP2 JUMP JUMPDEST PUSH2 0x201 PUSH8 0x2BEE4A858838A707 PUSH1 0xC0 SHL PUSH2 0xA15 JUMP JUMPDEST PUSH2 0x215 PUSH8 0x58FEE9FC8BFDC871 PUSH1 0xC0 SHL PUSH2 0xA15 JUMP JUMPDEST PUSH2 0x229 PUSH8 0x14928E8ED7215556 PUSH1 0xC0 SHL PUSH2 0xA15 JUMP JUMPDEST PUSH2 0x23D PUSH8 0x426863E5B7BCC3F2 PUSH1 0xC0 SHL PUSH2 0xA15 JUMP JUMPDEST PUSH2 0x251 PUSH8 0x4FB322FCCE5FB3C PUSH1 0xC0 SHL PUSH2 0xA15 JUMP JUMPDEST PUSH1 0x1 SLOAD TIMESTAMP LT PUSH2 0x295 JUMPI PUSH1 0x40 MLOAD PUSH32 0x8C379A000000000000000000000000000000000000000000000000000000000 DUP2 MSTORE PUSH1 0x4 ADD PUSH2 0x28C SWAP1 PUSH2 0xB63 JUMP JUMPDEST PUSH1 0x40 MLOAD DUP1 SWAP2 SUB SWAP1 REVERT JUMPDEST PUSH2 0x2A9 PUSH8 0x1AE0E2883E94B247 PUSH1 0xC0 SHL PUSH2 0xA15 JUMP JUMPDEST PUSH2 0x2BD PUSH8 0x4F3C03DAF120CA85 PUSH1 0xC0 SHL PUSH2 0xA15 JUMP JUMPDEST PUSH2 0x2D1 PUSH8 0x23B023C20224376C PUSH1 0xC0 SHL PUSH2 0xA15 JUMP JUMPDEST PUSH2 0x2E5 PUSH8 0xE34723BADB7C933F PUSH1 0xC0 SHL PUSH2 0xA15 JUMP JUMPDEST PUSH2 0x2F9 PUSH8 0x4D2ACA0762EFD428 PUSH1 0xC0 SHL PUSH2 0xA15 JUMP JUMPDEST PUSH2 0x30D PUSH8 0x969D5143C65DCAD5 PUSH1 0xC0 SHL PUSH2 0xA15 JUMP JUMPDEST PUSH2 0x321 PUSH8 0x28A0EEECB1FC2222 PUSH1 0xC0 SHL PUSH2 0xA15 JUMP JUMPDEST PUSH1 0x2 SLOAD CALLVALUE GT PUSH2 0x365 JUMPI PUSH1 0x40 MLOAD PUSH32 0x8C379A000000000000000000000000000000000000000000000000000000000 DUP2 MSTORE PUSH1 0x4 ADD PUSH2 0x35C SWAP1 PUSH2 0xBF5 JUMP JUMPDEST PUSH1 0x40 MLOAD DUP1 SWAP2 SUB SWAP1 REVERT JUMPDEST PUSH2 0x379 PUSH8 0x4FB082F708D4456C PUSH1 0xC0 SHL PUSH2 0xA15 JUMP JUMPDEST PUSH2 0x38D PUSH8 0x5E7F99544DAFD7E9 PUSH1 0xC0 SHL PUSH2 0xA15 JUMP JUMPDEST PUSH2 0x3A1 PUSH8 0xEC5D3D2F4F00B7A5 PUSH1 0xC0 SHL PUSH2 0xA15 JUMP JUMPDEST PUSH2 0x3B5 PUSH8 0x3457482577D89410 PUSH1 0xC0 SHL PUSH2 0xA15 JUMP JUMPDEST PUSH1 0x3 PUSH1 0x0 SWAP1 SLOAD SWAP1 PUSH2 0x100 EXP SWAP1 DIV PUSH20 0xFFFFFFFFFFFFFFFFFFFFFFFFFFFFFFFFFFFFFFFF AND PUSH20 0xFFFFFFFFFFFFFFFFFFFFFFFFFFFFFFFFFFFFFFFF AND CALLER PUSH20 0xFFFFFFFFFFFFFFFFFFFFFFFFFFFFFFFFFFFFFFFF AND SUB PUSH2 0x445 JUMPI PUSH1 0x40 MLOAD PUSH32 0x8C379A000000000000000000000000000000000000000000000000000000000 DUP2 MSTORE PUSH1 0x4 ADD PUSH2 0x43C SWAP1 PUSH2 0xC87 JUMP JUMPDEST PUSH1 0x40 MLOAD DUP1 SWAP2 SUB SWAP1 REVERT JUMPDEST PUSH2 0x459 PUSH8 0xB2B89924325A9273 PUSH1 0xC0 SHL PUSH2 0xA15 JUMP JUMPDEST PUSH2 0x46D PUSH8 0xD350D38EEA9C8D1A PUSH1 0xC0 SHL PUSH2 0xA15 JUMP JUMPDEST PUSH2 0x481 PUSH8 0x9F993A329B5199BF PUSH1 0xC0 SHL PUSH2 0xA15 JUMP JUMPDEST PUSH1 0x0 PUSH20 0xFFFFFFFFFFFFFFFFFFFFFFFFFFFFFFFFFFFFFFFF AND PUSH1 0x3 PUSH1 0x0 SWAP1 SLOAD SWAP1 PUSH2 0x100 EXP SWAP1 DIV PUSH20 0xFFFFFFFFFFFFFFFFFFFFFFFFFFFFFFFFFFFFFFFF AND PUSH20 0xFFFFFFFFFFFFFFFFFFFFFFFFFFFFFFFFFFFFFFFF AND EQ PUSH2 0x583 JUMPI PUSH2 0x4EB PUSH8 0x19678AF158F89915 PUSH1 0xC0 SHL PUSH2 0xA15 JUMP JUMPDEST PUSH2 0x4FF PUSH8 0xA2ED0BF4DA26ED18 PUSH1 0xC0 SHL PUSH2 0xA15 JUMP JUMPDEST PUSH2 0x513 PUSH8 0xA683EFE745BD4617 PUSH1 0xC0 SHL PUSH2 0xA15 JUMP JUMPDEST PUSH1 0x3 PUSH1 0x0 SWAP1 SLOAD SWAP1 PUSH2 0x100 EXP SWAP1 DIV PUSH20 0xFFFFFFFFFFFFFFFFFFFFFFFFFFFFFFFFFFFFFFFF AND PUSH20 0xFFFFFFFFFFFFFFFFFFFFFFFFFFFFFFFFFFFFFFFF AND PUSH2 0x8FC PUSH1 0x2 SLOAD SWAP1 DUP2 ISZERO MUL SWAP1 PUSH1 0x40 MLOAD PUSH1 0x0 PUSH1 0x40 MLOAD DUP1 DUP4 SUB DUP2 DUP6 DUP9 DUP9 CALL SWAP4 POP POP POP POP ISZERO DUP1 ISZERO PUSH2 0x57D JUMPI RETURNDATASIZE PUSH1 0x0 DUP1 RETURNDATACOPY RETURNDATASIZE PUSH1 0x0 REVERT JUMPDEST POP PUSH2 0x598 JUMP JUMPDEST PUSH2 0x597 PUSH8 0xC07BB0D810C9808B PUSH1 0xC0 SHL PUSH2 0xA15 JUMP JUMPDEST JUMPDEST PUSH2 0x5AC PUSH8 0x1C3BF6A1E66EFC4B PUSH1 0xC0 SHL PUSH2 0xA15 JUMP JUMPDEST CALLVALUE PUSH1 0x2 DUP2 SWAP1 SSTORE POP PUSH2 0x5C7 PUSH8 0xA469C861FA1E5427 PUSH1 0xC0 SHL PUSH2 0xA15 JUMP JUMPDEST CALLER PUSH1 0x3 PUSH1 0x0 PUSH2 0x100 EXP DUP2 SLOAD DUP2 PUSH20 0xFFFFFFFFFFFFFFFFFFFFFFFFFFFFFFFFFFFFFFFF MUL NOT AND SWAP1 DUP4 PUSH20 0xFFFFFFFFFFFFFFFFFFFFFFFFFFFFFFFFFFFFFFFF AND MUL OR SWAP1 SSTORE POP PUSH2 0x61C PUSH8 0x43D77B7BAF60BDDD PUSH1 0xC0 SHL PUSH2 0xA15 JUMP JUMPDEST CALLVALUE PUSH1 0x4 PUSH1 0x0 CALLER PUSH20 0xFFFFFFFFFFFFFFFFFFFFFFFFFFFFFFFFFFFFFFFF AND PUSH20 0xFFFFFFFFFFFFFFFFFFFFFFFFFFFFFFFFFFFFFFFF AND DUP2 MSTORE PUSH1 0x20 ADD SWAP1 DUP2 MSTORE PUSH1 0x20 ADD PUSH1 0x0 KECCAK256 DUP2 SWAP1 SSTORE POP PUSH2 0x674 PUSH8 0x418F4B2695720142 PUSH1 0xC0 SHL PUSH2 0xA15 JUMP JUMPDEST PUSH2 0x688 PUSH8 0xB34B2BF016525F1E PUSH1 0xC0 SHL PUSH2 0xA15 JUMP JUMPDEST CALLER PUSH20 0xFFFFFFFFFFFFFFFFFFFFFFFFFFFFFFFFFFFFFFFF AND PUSH32 0x3FABFF0A9C3ECD6814702E247FA9733E5D0AA69E3A38590F92CB18F623A2254D CALLVALUE PUSH1 0x40 MLOAD PUSH2 0x6CE SWAP2 SWAP1 PUSH2 0xA31 JUMP JUMPDEST PUSH1 0x40 MLOAD DUP1 SWAP2 SUB SWAP1 LOG2 JUMP JUMPDEST PUSH2 0x6EC PUSH8 0x71EDFE1A56CFE82D PUSH1 0xC0 SHL PUSH2 0xA15 JUMP JUMPDEST PUSH2 0x700 PUSH8 0x88C0921C22D2ECBA PUSH1 0xC0 SHL PUSH2 0xA15 JUMP JUMPDEST PUSH2 0x714 PUSH8 0x2E51682954D76FA9 PUSH1 0xC0 SHL PUSH2 0xA15 JUMP JUMPDEST PUSH2 0x728 PUSH8 0x298985B433E77BAA PUSH1 0xC0 SHL PUSH2 0xA15 JUMP JUMPDEST PUSH2 0x73C PUSH8 0x8205F6FA28B31A4 PUSH1 0xC0 SHL PUSH2 0xA15 JUMP JUMPDEST PUSH1 0x0 DUP1 SLOAD SWAP1 PUSH2 0x100 EXP SWAP1 DIV PUSH20 0xFFFFFFFFFFFFFFFFFFFFFFFFFFFFFFFFFFFFFFFF AND PUSH20 0xFFFFFFFFFFFFFFFFFFFFFFFFFFFFFFFFFFFFFFFF AND CALLER PUSH20 0xFFFFFFFFFFFFFFFFFFFFFFFFFFFFFFFFFFFFFFFF AND EQ PUSH2 0x7CA JUMPI PUSH1 0x40 MLOAD PUSH32 0x8C379A000000000000000000000000000000000000000000000000000000000 DUP2 MSTORE PUSH1 0x4 ADD PUSH2 0x7C1 SWAP1 PUSH2 0xD19 JUMP JUMPDEST PUSH1 0x40 MLOAD DUP1 SWAP2 SUB SWAP1 REVERT JUMPDEST PUSH2 0x7DE PUSH8 0xE0AE208C583F0285 PUSH1 0xC0 SHL PUSH2 0xA15 JUMP JUMPDEST PUSH2 0x7F2 PUSH8 0x380417B2566CAC55 PUSH1 0xC0 SHL PUSH2 0xA15 JUMP JUMPDEST PUSH2 0x806 PUSH8 0xC194B82F0CE364CC PUSH1 0xC0 SHL PUSH2 0xA15 JUMP JUMPDEST PUSH2 0x81A PUSH8 0xE13339B5D3C9EEF PUSH1 0xC0 SHL PUSH2 0xA15 JUMP JUMPDEST PUSH2 0x82E PUSH8 0x1D0A7D7D47537100 PUSH1 0xC0 SHL PUSH2 0xA15 JUMP JUMPDEST PUSH2 0x842 PUSH8 0x28E834F990A3B27E PUSH1 0xC0 SHL PUSH2 0xA15 JUMP JUMPDEST PUSH2 0x856 PUSH8 0x20849E5B188B963F PUSH1 0xC0 SHL PUSH2 0xA15 JUMP JUMPDEST PUSH2 0x86A PUSH8 0xA783428210BE565F PUSH1 0xC0 SHL PUSH2 0xA15 JUMP JUMPDEST PUSH1 0x1 SLOAD TIMESTAMP LT ISZERO PUSH2 0x8AF JUMPI PUSH1 0x40 MLOAD PUSH32 0x8C379A000000000000000000000000000000000000000000000000000000000 DUP2 MSTORE PUSH1 0x4 ADD PUSH2 0x8A6 SWAP1 PUSH2 0xD85 JUMP JUMPDEST PUSH1 0x40 MLOAD DUP1 SWAP2 SUB SWAP1 REVERT JUMPDEST PUSH2 0x8C3 PUSH8 0xCBB6D4BF45B7FA93 PUSH1 0xC0 SHL PUSH2 0xA15 JUMP JUMPDEST PUSH2 0x8D7 PUSH8 0x8A83DA2BA62D7738 PUSH1 0xC0 SHL PUSH2 0xA15 JUMP JUMPDEST PUSH2 0x8EB PUSH8 0x59807D7DA6E83D37 PUSH1 0xC0 SHL PUSH2 0xA15 JUMP JUMPDEST PUSH2 0x8FF PUSH8 0x818E68D3E3B2CE9D PUSH1 0xC0 SHL PUSH2 0xA15 JUMP JUMPDEST PUSH2 0x913 PUSH8 0xA1996E515D17B3C3 PUSH1 0xC0 SHL PUSH2 0xA15 JUMP JUMPDEST PUSH2 0x927 PUSH8 0xD7670513F58F5FF9 PUSH1 0xC0 SHL PUSH2 0xA15 JUMP JUMPDEST PUSH1 0x0 DUP1 SLOAD SWAP1 PUSH2 0x100 EXP SWAP1 DIV PUSH20 0xFFFFFFFFFFFFFFFFFFFFFFFFFFFFFFFFFFFFFFFF AND PUSH20 0xFFFFFFFFFFFFFFFFFFFFFFFFFFFFFFFFFFFFFFFF AND PUSH2 0x8FC SELFBALANCE SWAP1 DUP2 ISZERO MUL SWAP1 PUSH1 0x40 MLOAD PUSH1 0x0 PUSH1 0x40 MLOAD DUP1 DUP4 SUB DUP2 DUP6 DUP9 DUP9 CALL SWAP4 POP POP POP POP ISZERO DUP1 ISZERO PUSH2 0x98D JUMPI RETURNDATASIZE PUSH1 0x0 DUP1 RETURNDATACOPY RETURNDATASIZE PUSH1 0x0 REVERT JUMPDEST POP PUSH2 0x9A2 PUSH8 0xC24BC284467A1E1B PUSH1 0xC0 SHL PUSH2 0xA15 JUMP JUMPDEST PUSH2 0x9B6 PUSH8 0x53ADA12425710095 PUSH1 0xC0 SHL PUSH2 0xA15 JUMP JUMPDEST PUSH32 0xDAEC4582D5D9595688C8C98545FDD1C696D41C6AEAEB636737E84ED2F5C00EDA PUSH1 0x3 PUSH1 0x0 SWAP1 SLOAD SWAP1 PUSH2 0x100 EXP SWAP1 DIV PUSH20 0xFFFFFFFFFFFFFFFFFFFFFFFFFFFFFFFFFFFFFFFF AND PUSH1 0x2 SLOAD PUSH1 0x40 MLOAD PUSH2 0xA0B SWAP3 SWAP2 SWAP1 PUSH2 0xDA5 JUMP JUMPDEST PUSH1 0x40 MLOAD DUP1 SWAP2 SUB SWAP1 LOG1 JUMP JUMPDEST POP JUMP JUMPDEST PUSH1 0x0 DUP2 SWAP1 POP SWAP2 SWAP1 POP JUMP JUMPDEST PUSH2 0xA2B DUP2 PUSH2 0xA18 JUMP JUMPDEST DUP3 MSTORE POP POP JUMP JUMPDEST PUSH1 0x0 PUSH1 0x20 DUP3 ADD SWAP1 POP PUSH2 0xA46 PUSH1 0x0 DUP4 ADD DUP5 PUSH2 0xA22 JUMP JUMPDEST SWAP3 SWAP2 POP POP JUMP JUMPDEST PUSH1 0x0 PUSH20 0xFFFFFFFFFFFFFFFFFFFFFFFFFFFFFFFFFFFFFFFF DUP3 AND SWAP1 POP SWAP2 SWAP1 POP JUMP JUMPDEST PUSH1 0x0 PUSH2 0xA77 DUP3 PUSH2 0xA4C JUMP JUMPDEST SWAP1 POP SWAP2 SWAP1 POP JUMP JUMPDEST PUSH2 0xA87 DUP2 PUSH2 0xA6C JUMP JUMPDEST DUP3 MSTORE POP POP JUMP JUMPDEST PUSH1 0x0 PUSH1 0x20 DUP3 ADD SWAP1 POP PUSH2 0xAA2 PUSH1 0x0 DUP4 ADD DUP5 PUSH2 0xA7E JUMP JUMPDEST SWAP3 SWAP2 POP POP JUMP JUMPDEST PUSH1 0x0 DUP1 REVERT JUMPDEST PUSH2 0xAB6 DUP2 PUSH2 0xA6C JUMP JUMPDEST DUP2 EQ PUSH2 0xAC1 JUMPI PUSH1 0x0 DUP1 REVERT JUMPDEST POP JUMP JUMPDEST PUSH1 0x0 DUP2 CALLDATALOAD SWAP1 POP PUSH2 0xAD3 DUP2 PUSH2 0xAAD JUMP JUMPDEST SWAP3 SWAP2 POP POP JUMP JUMPDEST PUSH1 0x0 PUSH1 0x20 DUP3 DUP5 SUB SLT ISZERO PUSH2 0xAEF JUMPI PUSH2 0xAEE PUSH2 0xAA8 JUMP JUMPDEST JUMPDEST PUSH1 0x0 PUSH2 0xAFD DUP5 DUP3 DUP6 ADD PUSH2 0xAC4 JUMP JUMPDEST SWAP2 POP POP SWAP3 SWAP2 POP POP JUMP JUMPDEST PUSH1 0x0 DUP3 DUP3 MSTORE PUSH1 0x20 DUP3 ADD SWAP1 POP SWAP3 SWAP2 POP POP JUMP JUMPDEST PUSH32 0x41756374696F6E2068617320656E646564000000000000000000000000000000 PUSH1 0x0 DUP3 ADD MSTORE POP JUMP JUMPDEST PUSH1 0x0 PUSH2 0xB4D PUSH1 0x11 DUP4 PUSH2 0xB06 JUMP JUMPDEST SWAP2 POP PUSH2 0xB58 DUP3 PUSH2 0xB17 JUMP JUMPDEST PUSH1 0x20 DUP3 ADD SWAP1 POP SWAP2 SWAP1 POP JUMP JUMPDEST PUSH1 0x0 PUSH1 0x20 DUP3 ADD SWAP1 POP DUP2 DUP2 SUB PUSH1 0x0 DUP4 ADD MSTORE PUSH2 0xB7C DUP2 PUSH2 0xB40 JUMP JUMPDEST SWAP1 POP SWAP2 SWAP1 POP JUMP JUMPDEST PUSH32 0x42696420616D6F756E74206D75737420626520686967686572207468616E2063 PUSH1 0x0 DUP3 ADD MSTORE PUSH32 0x757272656E742068696768657374206269640000000000000000000000000000 PUSH1 0x20 DUP3 ADD MSTORE POP JUMP JUMPDEST PUSH1 0x0 PUSH2 0xBDF PUSH1 0x32 DUP4 PUSH2 0xB06 JUMP JUMPDEST SWAP2 POP PUSH2 0xBEA DUP3 PUSH2 0xB83 JUMP JUMPDEST PUSH1 0x40 DUP3 ADD SWAP1 POP SWAP2 SWAP1 POP JUMP JUMPDEST PUSH1 0x0 PUSH1 0x20 DUP3 ADD SWAP1 POP DUP2 DUP2 SUB PUSH1 0x0 DUP4 ADD MSTORE PUSH2 0xC0E DUP2 PUSH2 0xBD2 JUMP JUMPDEST SWAP1 POP SWAP2 SWAP1 POP JUMP JUMPDEST PUSH32 0x596F752061726520616C72656164792074686520686967686573742062696464 PUSH1 0x0 DUP3 ADD MSTORE PUSH32 0x6572000000000000000000000000000000000000000000000000000000000000 PUSH1 0x20 DUP3 ADD MSTORE POP JUMP JUMPDEST PUSH1 0x0 PUSH2 0xC71 PUSH1 0x22 DUP4 PUSH2 0xB06 JUMP JUMPDEST SWAP2 POP PUSH2 0xC7C DUP3 PUSH2 0xC15 JUMP JUMPDEST PUSH1 0x40 DUP3 ADD SWAP1 POP SWAP2 SWAP1 POP JUMP JUMPDEST PUSH1 0x0 PUSH1 0x20 DUP3 ADD SWAP1 POP DUP2 DUP2 SUB PUSH1 0x0 DUP4 ADD MSTORE PUSH2 0xCA0 DUP2 PUSH2 0xC64 JUMP JUMPDEST SWAP1 POP SWAP2 SWAP1 POP JUMP JUMPDEST PUSH32 0x4F6E6C792061756374696F6E6565722063616E2063616C6C2074686973206675 PUSH1 0x0 DUP3 ADD MSTORE PUSH32 0x6E6374696F6E0000000000000000000000000000000000000000000000000000 PUSH1 0x20 DUP3 ADD MSTORE POP JUMP JUMPDEST PUSH1 0x0 PUSH2 0xD03 PUSH1 0x26 DUP4 PUSH2 0xB06 JUMP JUMPDEST SWAP2 POP PUSH2 0xD0E DUP3 PUSH2 0xCA7 JUMP JUMPDEST PUSH1 0x40 DUP3 ADD SWAP1 POP SWAP2 SWAP1 POP JUMP JUMPDEST PUSH1 0x0 PUSH1 0x20 DUP3 ADD SWAP1 POP DUP2 DUP2 SUB PUSH1 0x0 DUP4 ADD MSTORE PUSH2 0xD32 DUP2 PUSH2 0xCF6 JUMP JUMPDEST SWAP1 POP SWAP2 SWAP1 POP JUMP JUMPDEST PUSH32 0x41756374696F6E20686173206E6F7420656E6465640000000000000000000000 PUSH1 0x0 DUP3 ADD MSTORE POP JUMP JUMPDEST PUSH1 0x0 PUSH2 0xD6F PUSH1 0x15 DUP4 PUSH2 0xB06 JUMP JUMPDEST SWAP2 POP PUSH2 0xD7A DUP3 PUSH2 0xD39 JUMP JUMPDEST PUSH1 0x20 DUP3 ADD SWAP1 POP SWAP2 SWAP1 POP JUMP JUMPDEST PUSH1 0x0 PUSH1 0x20 DUP3 ADD SWAP1 POP DUP2 DUP2 SUB PUSH1 0x0 DUP4 ADD MSTORE PUSH2 0xD9E DUP2 PUSH2 0xD62 JUMP JUMPDEST SWAP1 POP SWAP2 SWAP1 POP JUMP JUMPDEST PUSH1 0x0 PUSH1 0x40 DUP3 ADD SWAP1 POP PUSH2 0xDBA PUSH1 0x0 DUP4 ADD DUP6 PUSH2 0xA7E JUMP JUMPDEST PUSH2 0xDC7 PUSH1 0x20 DUP4 ADD DUP5 PUSH2 0xA22 JUMP JUMPDEST SWAP4 SWAP3 POP POP POP JUMP INVALID LOG2 PUSH5 0x6970667358 0x22 SLT KECCAK256 0xD0 0x1F SGT LOG0 STOP CALL 0xE4 PUSH25 0x2A3E648D4F517C2C8E4FBB09E3BEE0C1146D1C0919A9122364 PUSH20 0x6F6C634300081200330000000000000000000000 "},"methodIdentifiers":{"auctioneer()":"5ec2c7bf","bids(address)":"62ea82db","endAuction()":"fe67a54b","endTime()":"3197cbb6","highestBid()":"d57bde79","highestBidder()":"91f90157","placeBid()":"ecfc7ecc"}}}}}