{
  "_format": "hh-sol-artifact-1",
  "contractName": "FundMe",
  "sourceName": "contracts/fundMe.sol",
  "abi": [
    {
      "inputs": [
        {
          "internalType": "contract AggregatorV3Interface",
          "name": "s_priceFeedAddress",
          "type": "address"
        }
      ],
      "stateMutability": "nonpayable",
      "type": "constructor"
    },
    {
      "inputs": [],
      "name": "FundMe__NotOwner",
      "type": "error"
    },
    {
      "stateMutability": "payable",
      "type": "fallback"
    },
    {
      "inputs": [],
      "name": "MINIMUM_USD",
      "outputs": [
        {
          "internalType": "uint256",
          "name": "",
          "type": "uint256"
        }
      ],
      "stateMutability": "view",
      "type": "function"
    },
    {
      "inputs": [],
      "name": "cheaper_withdraw",
      "outputs": [],
      "stateMutability": "nonpayable",
      "type": "function"
    },
    {
      "inputs": [],
      "name": "fund",
      "outputs": [],
      "stateMutability": "payable",
      "type": "function"
    },
    {
      "inputs": [
        {
          "internalType": "address",
          "name": "funder",
          "type": "address"
        }
      ],
      "name": "getFundAmount",
      "outputs": [
        {
          "internalType": "uint256",
          "name": "",
          "type": "uint256"
        }
      ],
      "stateMutability": "view",
      "type": "function"
    },
    {
      "inputs": [],
      "name": "getLength",
      "outputs": [
        {
          "internalType": "uint256",
          "name": "",
          "type": "uint256"
        }
      ],
      "stateMutability": "view",
      "type": "function"
    },
    {
      "inputs": [],
      "name": "i_owner",
      "outputs": [
        {
          "internalType": "address",
          "name": "",
          "type": "address"
        }
      ],
      "stateMutability": "view",
      "type": "function"
    },
    {
      "inputs": [
        {
          "internalType": "address",
          "name": "",
          "type": "address"
        }
      ],
      "name": "s_addressToAmountFunded",
      "outputs": [
        {
          "internalType": "uint256",
          "name": "",
          "type": "uint256"
        }
      ],
      "stateMutability": "view",
      "type": "function"
    },
    {
      "inputs": [
        {
          "internalType": "uint256",
          "name": "",
          "type": "uint256"
        }
      ],
      "name": "s_funders",
      "outputs": [
        {
          "internalType": "address",
          "name": "",
          "type": "address"
        }
      ],
      "stateMutability": "view",
      "type": "function"
    },
    {
      "inputs": [],
      "name": "s_priceFeed",
      "outputs": [
        {
          "internalType": "contract AggregatorV3Interface",
          "name": "",
          "type": "address"
        }
      ],
      "stateMutability": "view",
      "type": "function"
    },
    {
      "inputs": [],
      "name": "withdraw",
      "outputs": [],
      "stateMutability": "nonpayable",
      "type": "function"
    },
    {
      "stateMutability": "payable",
      "type": "receive"
    }
  ],
  "bytecode": "0x60806040523480156200001157600080fd5b506040516200187f3803806200187f833981810160405281019062000037919062000195565b6200005367074b2a97788fc99760c01b6200011460201b60201c565b6200006f67bdd52a87a1b300a260c01b6200011460201b60201c565b33600260006101000a81548173ffffffffffffffffffffffffffffffffffffffff021916908373ffffffffffffffffffffffffffffffffffffffff160217905550620000cc67cd19f8271df1157260c01b6200011460201b60201c565b80600360006101000a81548173ffffffffffffffffffffffffffffffffffffffff021916908373ffffffffffffffffffffffffffffffffffffffff16021790555050620001c7565b50565b600080fd5b600073ffffffffffffffffffffffffffffffffffffffff82169050919050565b600062000149826200011c565b9050919050565b60006200015d826200013c565b9050919050565b6200016f8162000150565b81146200017b57600080fd5b50565b6000815190506200018f8162000164565b92915050565b600060208284031215620001ae57620001ad62000117565b5b6000620001be848285016200017e565b91505092915050565b6116a880620001d76000396000f3fe6080604052600436106100955760003560e01c806360d727b21161005957806360d727b2146101855780636b69a592146101c2578063b60d4288146101ed578063be1c766b146101f7578063dba6335f146102225761009c565b80630ec3b027146100b25780631bf6132d146100dd5780633ccfd60b1461011a57806351a26fdc1461013157806354861af7146101485761009c565b3661009c57005b6100b0670cec1c256fe4a42760c01b61024d565b005b3480156100be57600080fd5b506100c7610250565b6040516100d491906110d6565b60405180910390f35b3480156100e957600080fd5b5061010460048036038101906100ff9190611134565b610276565b604051610111919061117a565b60405180910390f35b34801561012657600080fd5b5061012f61028e565b005b34801561013d57600080fd5b50610146610673565b005b34801561015457600080fd5b5061016f600480360381019061016a91906111c1565b610ae5565b60405161017c91906111fd565b60405180910390f35b34801561019157600080fd5b506101ac60048036038101906101a79190611134565b610b24565b6040516101b9919061117a565b60405180910390f35b3480156101ce57600080fd5b506101d7610ba8565b6040516101e4919061117a565b60405180910390f35b6101f5610bad565b005b34801561020357600080fd5b5061020c610d7f565b604051610219919061117a565b60405180910390f35b34801561022e57600080fd5b50610237610dc8565b60405161024491906111fd565b60405180910390f35b50565b600360009054906101000a900473ffffffffffffffffffffffffffffffffffffffff1681565b60006020528060005260406000206000915090505481565b6102a1664ea5020047bf9260c01b61024d565b6102b567266eb5582fc3837760c01b61024d565b6102c96739a4fd05097899f860c01b61024d565b6102dd67538c0c3529bec8b760c01b61024d565b600260009054906101000a900473ffffffffffffffffffffffffffffffffffffffff1673ffffffffffffffffffffffffffffffffffffffff163373ffffffffffffffffffffffffffffffffffffffff16146103785761034667a9d071dc93898e3360c01b61024d565b6040517f579610db00000000000000000000000000000000000000000000000000000000815260040160405180910390fd5b61038c67d64138bbac1b371e60c01b61024d565b6103a067fcd1cadc98b527e860c01b61024d565b6103b467e99a05c14e5e30e560c01b61024d565b6103c867ac31fd88715a6d0b60c01b61024d565b6103dc671cd50c3eb916c56060c01b61024d565b6103f0671891b3f722a75d3160c01b61024d565b60005b6001805490508110156104d75761041467ee7f0dcd0e4e6fb960c01b61024d565b61042867a6373051e4c0d80960c01b61024d565b60006001828154811061043e5761043d611218565b5b9060005260206000200160009054906101000a900473ffffffffffffffffffffffffffffffffffffffff16905061047f6768dd6ba558e1275660c01b61024d565b60008060008373ffffffffffffffffffffffffffffffffffffffff1673ffffffffffffffffffffffffffffffffffffffff168152602001908152602001600020819055505080806104cf90611276565b9150506103f3565b506104ec67e58fc054bb9bd4dd60c01b61024d565b600067ffffffffffffffff811115610507576105066112be565b5b6040519080825280602002602001820160405280156105355781602001602082028036833780820191505090505b506001908051906020019061054b929190610fb0565b506105606775300350a5337ac960c01b61024d565b61057467ae0e5776550686d260c01b61024d565b60003373ffffffffffffffffffffffffffffffffffffffff164760405161059a9061131e565b60006040518083038185875af1925050503d80600081146105d7576040519150601f19603f3d011682016040523d82523d6000602084013e6105dc565b606091505b505090506105f4676a56e434a304997860c01b61024d565b61060867da1f515f6bb3d5bd60c01b61024d565b61061c6744ba9c0da172dd3c60c01b61024d565b8061065c576040517f08c379a000000000000000000000000000000000000000000000000000000000815260040161065390611390565b60405180910390fd5b61067067c18ce6ca9f55813760c01b61024d565b50565b61068767f9fefa3dc26b05dc60c01b61024d565b61069b67266eb5582fc3837760c01b61024d565b6106af6739a4fd05097899f860c01b61024d565b6106c367538c0c3529bec8b760c01b61024d565b600260009054906101000a900473ffffffffffffffffffffffffffffffffffffffff1673ffffffffffffffffffffffffffffffffffffffff163373ffffffffffffffffffffffffffffffffffffffff161461075e5761072c67a9d071dc93898e3360c01b61024d565b6040517f579610db00000000000000000000000000000000000000000000000000000000815260040160405180910390fd5b61077267d64138bbac1b371e60c01b61024d565b61078667fcd1cadc98b527e860c01b61024d565b61079a67c6ebac703ed19c3360c01b61024d565b6107ae67c9ebf578b769a90d60c01b61024d565b6107c26763797d43f21356ae60c01b61024d565b6107d6671f432f6bdffd00fc60c01b61024d565b6000600180548060200260200160405190810160405280929190818152602001828054801561085a57602002820191906000526020600020905b8160009054906101000a900473ffffffffffffffffffffffffffffffffffffffff1673ffffffffffffffffffffffffffffffffffffffff1681526020019060010190808311610810575b505050505090506108756785ecc379acb84e9860c01b61024d565b61088967116e77297fb7728460c01b61024d565b60005b8151811015610948576108a9678200ba1eefd9b43c60c01b61024d565b6108bd6774ab8604e618038660c01b61024d565b60008282815181106108d2576108d1611218565b5b602002602001015190506108f0677e655868cb8909d860c01b61024d565b60008060008373ffffffffffffffffffffffffffffffffffffffff1673ffffffffffffffffffffffffffffffffffffffff1681526020019081526020016000208190555050808061094090611276565b91505061088c565b5061095d676f45e2128173532660c01b61024d565b600067ffffffffffffffff811115610978576109776112be565b5b6040519080825280602002602001820160405280156109a65781602001602082028036833780820191505090505b50600190805190602001906109bc929190610fb0565b506109d167ef80e0c3f1468d8760c01b61024d565b6109e567b8bfe5beedfa8f3060c01b61024d565b60003373ffffffffffffffffffffffffffffffffffffffff1647604051610a0b9061131e565b60006040518083038185875af1925050503d8060008114610a48576040519150601f19603f3d011682016040523d82523d6000602084013e610a4d565b606091505b50509050610a6567b96eb43424badb8760c01b61024d565b610a7967a5970817f347df2560c01b61024d565b610a8d67169cf0ef43bc63ca60c01b61024d565b80610acd576040517f08c379a0000000000000000000000000000000000000000000000000000000008152600401610ac490611390565b60405180910390fd5b610ae1672bb07fd2dba97f9d60c01b61024d565b5050565b60018181548110610af557600080fd5b906000526020600020016000915054906101000a900473ffffffffffffffffffffffffffffffffffffffff1681565b6000610b3a6785c98c72e6f4dc4260c01b61024d565b610b4e67545551fd41418a7a60c01b61024d565b610b6267503163db0866536b60c01b61024d565b6000808373ffffffffffffffffffffffffffffffffffffffff1673ffffffffffffffffffffffffffffffffffffffff168152602001908152602001600020549050919050565b603281565b610bc167857caebd28228e8b60c01b61024d565b610bd5675c80d6349a0bb51d60c01b61024d565b610be96749ad1ac8fd2a70d960c01b61024d565b610bfd677ce4f212c6fd161060c01b61024d565b6032610c34600360009054906101000a900473ffffffffffffffffffffffffffffffffffffffff1634610dee90919063ffffffff16565b1015610c75576040517f08c379a0000000000000000000000000000000000000000000000000000000008152600401610c6c906113fc565b60405180910390fd5b610c8967e664317fd4f8367760c01b61024d565b610c9d67055b912a05ecede860c01b61024d565b346000803373ffffffffffffffffffffffffffffffffffffffff1673ffffffffffffffffffffffffffffffffffffffff1681526020019081526020016000206000828254610ceb919061141c565b92505081905550610d0667455a8550b51a011b60c01b61024d565b610d1a67a0ac60c2c283211d60c01b61024d565b6001339080600181540180825580915050600190039060005260206000200160009091909190916101000a81548173ffffffffffffffffffffffffffffffffffffffff021916908373ffffffffffffffffffffffffffffffffffffffff160217905550565b6000610d9567c561a3c088f46a7b60c01b61024d565b610da967fa8c5ba8e02fe5bc60c01b61024d565b610dbd67ffc66c4e922a8b8060c01b61024d565b600180549050905090565b600260009054906101000a900473ffffffffffffffffffffffffffffffffffffffff1681565b6000610e0467414ea1bc7915706660c01b610eb7565b610e1867f0053203b64c42f460c01b610eb7565b610e2c6771ef9770629731ef60c01b610eb7565b6000610e3783610eba565b9050610e4d6777ab262b065b3cec60c01b610eb7565b610e6167de4c4e43a1149a4760c01b610eb7565b6000670de0b6b3a76400008583610e789190611450565b610e8291906114c1565b9050610e98674a58e0cc080f926c60c01b610eb7565b610eac67c74ec6677f2adebf60c01b610eb7565b809250505092915050565b50565b6000610ed0674fd91b31a4ab5f3660c01b610eb7565b610ee467e1cb3ea677edc74f60c01b610eb7565b610ef8671f98178f94a988c460c01b610eb7565b60008273ffffffffffffffffffffffffffffffffffffffff1663feaf968c6040518163ffffffff1660e01b815260040160a060405180830381865afa158015610f45573d6000803e3d6000fd5b505050506040513d601f19601f82011682018060405250810190610f69919061157f565b505050915050610f8367ce51a00eb0aa02e160c01b610eb7565b610f976718c6f17071973d5e60c01b610eb7565b6402540be40081610fa891906115fa565b915050919050565b828054828255906000526020600020908101928215611029579160200282015b828111156110285782518260006101000a81548173ffffffffffffffffffffffffffffffffffffffff021916908373ffffffffffffffffffffffffffffffffffffffff16021790555091602001919060010190610fd0565b5b509050611036919061103a565b5090565b5b8082111561105357600081600090555060010161103b565b5090565b600073ffffffffffffffffffffffffffffffffffffffff82169050919050565b6000819050919050565b600061109c61109761109284611057565b611077565b611057565b9050919050565b60006110ae82611081565b9050919050565b60006110c0826110a3565b9050919050565b6110d0816110b5565b82525050565b60006020820190506110eb60008301846110c7565b92915050565b600080fd5b600061110182611057565b9050919050565b611111816110f6565b811461111c57600080fd5b50565b60008135905061112e81611108565b92915050565b60006020828403121561114a576111496110f1565b5b60006111588482850161111f565b91505092915050565b6000819050919050565b61117481611161565b82525050565b600060208201905061118f600083018461116b565b92915050565b61119e81611161565b81146111a957600080fd5b50565b6000813590506111bb81611195565b92915050565b6000602082840312156111d7576111d66110f1565b5b60006111e5848285016111ac565b91505092915050565b6111f7816110f6565b82525050565b600060208201905061121260008301846111ee565b92915050565b7f4e487b7100000000000000000000000000000000000000000000000000000000600052603260045260246000fd5b7f4e487b7100000000000000000000000000000000000000000000000000000000600052601160045260246000fd5b600061128182611161565b91507fffffffffffffffffffffffffffffffffffffffffffffffffffffffffffffffff82036112b3576112b2611247565b5b600182019050919050565b7f4e487b7100000000000000000000000000000000000000000000000000000000600052604160045260246000fd5b600081905092915050565b50565b60006113086000836112ed565b9150611313826112f8565b600082019050919050565b6000611329826112fb565b9150819050919050565b600082825260208201905092915050565b7f43616c6c206661696c6564000000000000000000000000000000000000000000600082015250565b600061137a600b83611333565b915061138582611344565b602082019050919050565b600060208201905081810360008301526113a98161136d565b9050919050565b7f596f75206e65656420746f207370656e64206d6f726520455448210000000000600082015250565b60006113e6601b83611333565b91506113f1826113b0565b602082019050919050565b60006020820190508181036000830152611415816113d9565b9050919050565b600061142782611161565b915061143283611161565b925082820190508082111561144a57611449611247565b5b92915050565b600061145b82611161565b915061146683611161565b925082820261147481611161565b9150828204841483151761148b5761148a611247565b5b5092915050565b7f4e487b7100000000000000000000000000000000000000000000000000000000600052601260045260246000fd5b60006114cc82611161565b91506114d783611161565b9250826114e7576114e6611492565b5b828204905092915050565b600069ffffffffffffffffffff82169050919050565b611511816114f2565b811461151c57600080fd5b50565b60008151905061152e81611508565b92915050565b6000819050919050565b61154781611534565b811461155257600080fd5b50565b6000815190506115648161153e565b92915050565b60008151905061157981611195565b92915050565b600080600080600060a0868803121561159b5761159a6110f1565b5b60006115a98882890161151f565b95505060206115ba88828901611555565b94505060406115cb8882890161156a565b93505060606115dc8882890161156a565b92505060806115ed8882890161151f565b9150509295509295909350565b600061160582611534565b915061161083611534565b925082820261161e81611534565b91507f8000000000000000000000000000000000000000000000000000000000000000841460008412161561165657611655611247565b5b828205841483151761166b5761166a611247565b5b509291505056fea2646970667358221220e183cd52b0c910775caa02139de8847f018cb8e096c434cd02adbdeeb26106c664736f6c63430008120033",
  "linkReferences": {},
  "deployedLinkReferences": {}
}