{
  "_format": "hh-sol-artifact-1",
  "contractName": "Voting",
  "sourceName": "contracts/VotingSystem.sol",
  "abi": [
    {
      "inputs": [],
      "stateMutability": "nonpayable",
      "type": "constructor"
    },
    {
      "inputs": [],
      "name": "Voting_alreadyVoted",
      "type": "error"
    },
    {
      "inputs": [],
      "name": "Voting_stillopen",
      "type": "error"
    },
    {
      "inputs": [],
      "name": "Voting_votingclosed",
      "type": "error"
    },
    {
      "anonymous": false,
      "inputs": [
        {
          "indexed": true,
          "internalType": "uint256",
          "name": "id",
          "type": "uint256"
        }
      ],
      "name": "pollCreated",
      "type": "event"
    },
    {
      "anonymous": false,
      "inputs": [
        {
          "indexed": true,
          "internalType": "uint256",
          "name": "id",
          "type": "uint256"
        },
        {
          "indexed": false,
          "internalType": "address",
          "name": "name",
          "type": "address"
        }
      ],
      "name": "voteadded",
      "type": "event"
    },
    {
      "anonymous": false,
      "inputs": [
        {
          "indexed": true,
          "internalType": "uint256",
          "name": "id",
          "type": "uint256"
        },
        {
          "indexed": true,
          "internalType": "string",
          "name": "name",
          "type": "string"
        }
      ],
      "name": "winnerAttained",
      "type": "event"
    },
    {
      "inputs": [
        {
          "internalType": "uint256",
          "name": "id",
          "type": "uint256"
        },
        {
          "internalType": "string",
          "name": "tovote",
          "type": "string"
        }
      ],
      "name": "addVote",
      "outputs": [],
      "stateMutability": "nonpayable",
      "type": "function"
    },
    {
      "inputs": [
        {
          "internalType": "uint256",
          "name": "id",
          "type": "uint256"
        },
        {
          "internalType": "string[]",
          "name": "_options",
          "type": "string[]"
        },
        {
          "internalType": "uint256",
          "name": "interval",
          "type": "uint256"
        }
      ],
      "name": "createPoll",
      "outputs": [],
      "stateMutability": "nonpayable",
      "type": "function"
    },
    {
      "inputs": [
        {
          "internalType": "uint256",
          "name": "id",
          "type": "uint256"
        }
      ],
      "name": "getNumberOfVoters",
      "outputs": [
        {
          "internalType": "uint256",
          "name": "",
          "type": "uint256"
        }
      ],
      "stateMutability": "view",
      "type": "function"
    },
    {
      "inputs": [
        {
          "internalType": "uint256",
          "name": "id",
          "type": "uint256"
        },
        {
          "internalType": "string",
          "name": "name",
          "type": "string"
        }
      ],
      "name": "getNumberOfVotes",
      "outputs": [
        {
          "internalType": "uint256",
          "name": "",
          "type": "uint256"
        }
      ],
      "stateMutability": "view",
      "type": "function"
    },
    {
      "inputs": [
        {
          "internalType": "uint256",
          "name": "id",
          "type": "uint256"
        }
      ],
      "name": "getWinner",
      "outputs": [
        {
          "internalType": "string[]",
          "name": "",
          "type": "string[]"
        }
      ],
      "stateMutability": "nonpayable",
      "type": "function"
    },
    {
      "inputs": [
        {
          "internalType": "uint256",
          "name": "id",
          "type": "uint256"
        }
      ],
      "name": "getWinnerWithoutStateChange",
      "outputs": [
        {
          "internalType": "string",
          "name": "winner",
          "type": "string"
        }
      ],
      "stateMutability": "view",
      "type": "function"
    },
    {
      "inputs": [],
      "name": "i_owner",
      "outputs": [
        {
          "internalType": "address",
          "name": "",
          "type": "address"
        }
      ],
      "stateMutability": "view",
      "type": "function"
    },
    {
      "inputs": [
        {
          "internalType": "uint256",
          "name": "id",
          "type": "uint256"
        }
      ],
      "name": "isTimePassed",
      "outputs": [
        {
          "internalType": "bool",
          "name": "",
          "type": "bool"
        }
      ],
      "stateMutability": "view",
      "type": "function"
    },
    {
      "inputs": [
        {
          "internalType": "address",
          "name": "voter",
          "type": "address"
        },
        {
          "internalType": "uint256",
          "name": "id",
          "type": "uint256"
        }
      ],
      "name": "isVoted",
      "outputs": [
        {
          "internalType": "bool",
          "name": "",
          "type": "bool"
        }
      ],
      "stateMutability": "view",
      "type": "function"
    },
    {
      "inputs": [
        {
          "internalType": "uint256",
          "name": "",
          "type": "uint256"
        }
      ],
      "name": "pollidtovote",
      "outputs": [
        {
          "internalType": "uint256",
          "name": "votingtime",
          "type": "uint256"
        },
        {
          "internalType": "uint256",
          "name": "createdtime",
          "type": "uint256"
        }
      ],
      "stateMutability": "view",
      "type": "function"
    },
    {
      "inputs": [
        {
          "internalType": "uint256",
          "name": "",
          "type": "uint256"
        }
      ],
      "name": "pollidtowinner",
      "outputs": [
        {
          "internalType": "string",
          "name": "",
          "type": "string"
        }
      ],
      "stateMutability": "view",
      "type": "function"
    },
    {
      "inputs": [
        {
          "internalType": "uint256",
          "name": "",
          "type": "uint256"
        },
        {
          "internalType": "string",
          "name": "",
          "type": "string"
        }
      ],
      "name": "votecount",
      "outputs": [
        {
          "internalType": "uint256",
          "name": "",
          "type": "uint256"
        }
      ],
      "stateMutability": "view",
      "type": "function"
    }
  ],
  "bytecode": "0x60a060405234801561001057600080fd5b5061002b6717c70658cca0da0060c01b61007e60201b60201c565b61004567e212a08a379629bb60c01b61007e60201b60201c565b3373ffffffffffffffffffffffffffffffffffffffff1660808173ffffffffffffffffffffffffffffffffffffffff1681525050610081565b50565b6080516124a0620000a46000396000818161063a015261153601526124a06000f3fe608060405234801561001057600080fd5b50600436106100b45760003560e01c80638cda802d116100715780638cda802d146101b15780638ee36f05146101e1578063b5f3784614610211578063dba6335f14610242578063df87889f14610260578063e07fddcc14610290576100b4565b80630fcaac1b146100b957806312a29f12146100d557806326f34782146100f15780634129b2c91461012157806346f6dadc1461015157806384f241f414610181575b600080fd5b6100d360048036038101906100ce9190611950565b6102c0565b005b6100ef60048036038101906100ea9190611bd2565b6105d4565b005b61010b60048036038101906101069190611c41565b6107de565b6040516101189190611c7d565b60405180910390f35b61013b60048036038101906101369190611c41565b610839565b6040516101489190611dd9565b60405180910390f35b61016b60048036038101906101669190611c41565b610e59565b6040516101789190611e45565b60405180910390f35b61019b60048036038101906101969190611c41565b6111f6565b6040516101a89190611e82565b60405180910390f35b6101cb60048036038101906101c69190611e9d565b6112fe565b6040516101d89190611c7d565b60405180910390f35b6101fb60048036038101906101f69190611f57565b611339565b6040516102089190611e82565b60405180910390f35b61022b60048036038101906102269190611c41565b611510565b604051610239929190611f97565b60405180910390f35b61024a611534565b6040516102579190611fcf565b60405180910390f35b61027a60048036038101906102759190611e9d565b611558565b6040516102879190611c7d565b60405180910390f35b6102aa60048036038101906102a59190611c41565b6115ce565b6040516102b79190611e45565b60405180910390f35b6102d467b754daac3fec44ca60c01b61166e565b6102e867343ceaa2c9aab9d760c01b61166e565b6102fc671d09c8a5d881dcc360c01b61166e565b60006103083385611339565b905061031e67c409f0e0b8350ce960c01b61166e565b610332678400655db39aa26360c01b61166e565b80156103925761034c67e76aebf88aeb496860c01b61166e565b61036067f1b2aa77028dbbd960c01b61166e565b6040517f0ac87b1c00000000000000000000000000000000000000000000000000000000815260040160405180910390fd5b6103a6672c7a68d990ff4a6b60c01b61166e565b6103ba6759e37c9ef484a79960c01b61166e565b6103ce67d4ccf143559722f060c01b61166e565b60006103d9856111f6565b90506103ef674a98b144cf251b2e60c01b61166e565b610403674d8650ac161d755a60c01b61166e565b80156104635761041d67d866b39d02480bb860c01b61166e565b6104316733049e6c149f443c60c01b61166e565b6040517f1268f9a600000000000000000000000000000000000000000000000000000000815260040160405180910390fd5b610477673271825c667f0b4b60c01b61166e565b61048b67c6ab3b44eaa695a760c01b61166e565b6001600086815260200190815260200160002084846040516104ae92919061201a565b908152602001604051809103902060008154809291906104cd90612062565b91905055506104e66785dbe8edb2682b3860c01b61166e565b6104fa67528a1506948db99960c01b61166e565b600080868152602001908152602001600020339080600181540180825580915050600190039060005260206000200160009091909190916101000a81548173ffffffffffffffffffffffffffffffffffffffff021916908373ffffffffffffffffffffffffffffffffffffffff16021790555061058167df5aaf766c5e53e160c01b61166e565b6105956765e05fd8de0601f760c01b61166e565b847fa084b505cb17cb66654f1eb02dde5aa286712c76c694f81e700c25e82d32d1ec336040516105c59190611fcf565b60405180910390a25050505050565b6105e867739336e9969d6fd660c01b61166e565b6105fc671b0571d88cd50dc260c01b61166e565b61061067b7f7e369c02569ef60c01b61166e565b61062467f3ae9fb9477e4c4460c01b61166e565b610638674272c6dc4dc23cb860c01b61166e565b7f000000000000000000000000000000000000000000000000000000000000000073ffffffffffffffffffffffffffffffffffffffff163373ffffffffffffffffffffffffffffffffffffffff161461069057600080fd5b6106a467a1d38f3730969a6260c01b61166e565b6106b867e364842fd7cb94f360c01b61166e565b6106cc6787b235abeb51589060c01b61166e565b6106e0675c2877fd9437109b60c01b61166e565b6106f467d2d6f42cd65c0f0360c01b61166e565b6107086750dd639e6cf87a4060c01b61166e565b6000604051806060016040528084815260200183815260200142815250905061073b67f0482e5c08b85fd760c01b61166e565b8060026000868152602001908152602001600020600082015181600001908051906020019061076b9291906117c7565b5060208201518160010155604082015181600201559050506107976729fab41b1d4ec23a60c01b61166e565b6107ab6750b14cd9aa5ac20460c01b61166e565b837f3e8e3d753052c785eaa664810323ba37e786d5e5f11716c0767824c6ad6b8bf460405160405180910390a250505050565b60006107f467b540377284de2a0160c01b61166e565b610808671c61058012997e8360c01b61166e565b61081c67263dbeb097364c5360c01b61166e565b600080838152602001908152602001600020805490509050919050565b606061084f67a168394d9ea598fa60c01b61166e565b610863673104aaa01e31f37b60c01b61166e565b610877674b41fb02c9cde96860c01b61166e565b6000600267ffffffffffffffff811115610894576108936119c1565b5b6040519080825280602002602001820160405280156108c757816020015b60608152602001906001900390816108b25790505b5090506108de67ee285aec88b0aadb60c01b61166e565b6040518060400160405280600381526020017f444d4b000000000000000000000000000000000000000000000000000000000081525081600081518110610928576109276120aa565b5b6020026020010181905250610947676d32c1bf2ff6b95760c01b61166e565b6040518060400160405280600481526020017f41444d4b0000000000000000000000000000000000000000000000000000000081525081600181518110610991576109906120aa565b5b60200260200101819052506109b0679b72853f013d35b460c01b61166e565b6109c46781d6c8cd4f9dbc5b60c01b61166e565b60606109da67b2ce64aad708685b60c01b61166e565b6109ee673075fa28e1e962c660c01b61166e565b60006109f9856111f6565b9050610a0f67d1e9366017a86b2860c01b61166e565b610a2367b375a0ff4c1fd5f160c01b61166e565b80610a8257610a3c67d4e9288ff88f60c360c01b61166e565b610a50670a8bb86dd9f1d51860c01b61166e565b6040517f20c87c7f00000000000000000000000000000000000000000000000000000000815260040160405180910390fd5b610a9667b093b88cff8454b160c01b61166e565b610aaa67757adc2861a491b860c01b61166e565b610abe6790ddfe03a2f8555e60c01b61166e565b6000610ad467190ecf8848dbe9d560c01b61166e565b610ae867ae51dae23474a12b60c01b61166e565b600060026000888152602001908152602001600020600001805490509050610b1a679a77f5bfab73959e60c01b61166e565b610b2e673f25c9c015b125b860c01b61166e565b60005b81811015610d1d57610b4d674aac1a37c49701a260c01b61166e565b610b61674c5b4f44f31ffed160c01b61166e565b6000600260008a81526020019081526020016000206000018281548110610b8b57610b8a6120aa565b5b906000526020600020018054610ba090612108565b80601f0160208091040260200160405190810160405280929190818152602001828054610bcc90612108565b8015610c195780601f10610bee57610100808354040283529160200191610c19565b820191906000526020600020905b815481529060010190602001808311610bfc57829003601f168201915b50505050509050610c34673d488fbb6647e38d60c01b61166e565b610c4867e6f25582675f4aaf60c01b61166e565b6000600160008b815260200190815260200160002082604051610c6b919061216a565b9081526020016040518091039020549050610c9067b2ee8c4a99e23c4c60c01b61166e565b610ca467a66beeb10802a76a60c01b61166e565b84811115610cf357610cc067d3755bc00782442760c01b61166e565b610cd4679216c6835aa7a16960c01b61166e565b809450610ceb67d9f419156daeb04d60c01b61166e565b819650610d08565b610d07671b81a946fe15d78060c01b61166e565b5b50508080610d1590612062565b915050610b31565b50610d326731116ab9dcce3bef60c01b61166e565b610d4667dc280377f5581d5560c01b61166e565b610d846040518060400160405280600581526020017f48656c6c6f000000000000000000000000000000000000000000000000000000815250611671565b610d9867e283e2c174c2826560c01b61166e565b610dac677c945dd92dc1a79f60c01b61166e565b83604051610dba919061216a565b6040518091039020877f7865a5b87ed8ddc185f397432e64dd75749327ff500fef134ba9319d910654b960405160405180910390a3610e0367bab885eb1371b54560c01b61166e565b83600360008981526020019081526020016000209081610e23919061232d565b50610e3867721ba938497c79ea60c01b61166e565b610e4c67a8a16f7ae1729dc360c01b61166e565b8495505050505050919050565b6060610e6f672587b8949791399060c01b61166e565b610e83671dc8b8a03b8f024f60c01b61166e565b610e9767e65eda1c4383c18660c01b61166e565b6000610ea2836111f6565b9050610eb867072f062cc398984560c01b61166e565b610ecc6762e5356f9685555760c01b61166e565b80610eea57610ee567ffaec8c1656dfba260c01b61166e565b610eff565b610efe671cfc5c3f957ac69b60c01b61166e565b5b610f1367386a86b23f357e1860c01b61166e565b610f2767aa4a282041f84f9660c01b61166e565b6000610f3d6734890eb3c4dc848a60c01b61166e565b610f51670c4ec6f3014509d860c01b61166e565b600060026000868152602001908152602001600020600001805490509050610f8367f67da6f08c1f286260c01b61166e565b610f976766c6dd4c6b63ac5c60c01b61166e565b60005b8181101561118657610fb667c8ad1fecf81a401260c01b61166e565b610fca67ec9ca23ec877bc7660c01b61166e565b6000600260008881526020019081526020016000206000018281548110610ff457610ff36120aa565b5b90600052602060002001805461100990612108565b80601f016020809104026020016040519081016040528092919081815260200182805461103590612108565b80156110825780601f1061105757610100808354040283529160200191611082565b820191906000526020600020905b81548152906001019060200180831161106557829003601f168201915b5050505050905061109d67d663f230bbf2733960c01b61166e565b6110b1677365504391af79b460c01b61166e565b600060016000898152602001908152602001600020826040516110d4919061216a565b90815260200160405180910390205490506110f967f0ad6e533f8645e860c01b61166e565b61110d678a95e8156049891460c01b61166e565b8481111561115c57611129672b29151e913fd87560c01b61166e565b61113d67fc661afddf14cd6160c01b61166e565b80945061115467fede3bc76f6b77fc60c01b61166e565b819650611171565b61117067cd5f6769505d5e2260c01b61166e565b5b5050808061117e90612062565b915050610f9a565b5061119b67c4355eda60fdb51460c01b61166e565b6111af679ba5df39bec8d6c460c01b61166e565b6111ee846040518060400160405280600981526020017f206864626a646b6a6b000000000000000000000000000000000000000000000081525061170a565b505050919050565b600061120c6765b756607f5b528560c01b61166e565b61122067d9aeaee52ec2da9060c01b61166e565b611234679c44299124cbafa260c01b61166e565b600260008381526020019081526020016000206001015460026000848152602001908152602001600020600201544261126d91906123ff565b11156112b857611287670c5b032000a249fb60c01b61166e565b61129b67ad4eaf286cc7c8b460c01b61166e565b6112af675890198d82504d7960c01b61166e565b600190506112f9565b6112cc67e796eb2598ed3a8e60c01b61166e565b6112e06751077ffc26eee6ad60c01b61166e565b6112f46790402e7057fa569260c01b61166e565b600090505b919050565b600160205281600052604060002081805160208101820180518482526020830160208501208183528095505050505050600091509150505481565b600061134f6785af48e66e2eb88f60c01b61166e565b61136367d4a690158a7fa1d360c01b61166e565b61137767f8db1e0df538969c60c01b61166e565b60008060008481526020019081526020016000208054905090506113a56716073a9c8149120260c01b61166e565b6113b9675570ba388da5cfd860c01b61166e565b60005b818110156114db576113d867ef7c07f68b52b96160c01b61166e565b6113ec67b9e14d6cb4fa1f7460c01b61166e565b8473ffffffffffffffffffffffffffffffffffffffff166000808681526020019081526020016000208281548110611427576114266120aa565b5b9060005260206000200160009054906101000a900473ffffffffffffffffffffffffffffffffffffffff1673ffffffffffffffffffffffffffffffffffffffff16036114b457611481676907b7a2bae84e5560c01b61166e565b611495671ecbe3c6aa1e33af60c01b61166e565b6114a967182001b4eda8eb1060c01b61166e565b60019250505061150a565b6114c867997551d252fd3a5460c01b61166e565b80806114d390612062565b9150506113bc565b506114f0673f4e11c12378974a60c01b61166e565b611504673722ae049768b6d460c01b61166e565b60009150505b92915050565b60026020528060005260406000206000915090508060010154908060020154905082565b7f000000000000000000000000000000000000000000000000000000000000000081565b600061156e6760db11595df071c160c01b61166e565b611582674129fea17450d03a60c01b61166e565b611596675550c30667ae49d860c01b61166e565b60016000848152602001908152602001600020826040516115b7919061216a565b908152602001604051809103902054905092915050565b600360205280600052604060002060009150905080546115ed90612108565b80601f016020809104026020016040519081016040528092919081815260200182805461161990612108565b80156116665780601f1061163b57610100808354040283529160200191611666565b820191906000526020600020905b81548152906001019060200180831161164957829003601f168201915b505050505081565b50565b611707816040516024016116859190611e45565b6040516020818303038152906040527f41304fac000000000000000000000000000000000000000000000000000000007bffffffffffffffffffffffffffffffffffffffffffffffffffffffff19166020820180517bffffffffffffffffffffffffffffffffffffffffffffffffffffffff83818316178352505050506117a6565b50565b6117a28282604051602401611720929190612433565b6040516020818303038152906040527f4b5c4277000000000000000000000000000000000000000000000000000000007bffffffffffffffffffffffffffffffffffffffffffffffffffffffff19166020820180517bffffffffffffffffffffffffffffffffffffffffffffffffffffffff83818316178352505050506117a6565b5050565b60006a636f6e736f6c652e6c6f679050600080835160208501845afa505050565b82805482825590600052602060002090810192821561180f579160200282015b8281111561180e5782518290816117fe919061232d565b50916020019190600101906117e7565b5b50905061181c9190611820565b5090565b5b8082111561184057600081816118379190611844565b50600101611821565b5090565b50805461185090612108565b6000825580601f106118625750611881565b601f0160209004906000526020600020908101906118809190611884565b5b50565b5b8082111561189d576000816000905550600101611885565b5090565b6000604051905090565b600080fd5b600080fd5b6000819050919050565b6118c8816118b5565b81146118d357600080fd5b50565b6000813590506118e5816118bf565b92915050565b600080fd5b600080fd5b600080fd5b60008083601f8401126119105761190f6118eb565b5b8235905067ffffffffffffffff81111561192d5761192c6118f0565b5b602083019150836001820283011115611949576119486118f5565b5b9250929050565b600080600060408486031215611969576119686118ab565b5b6000611977868287016118d6565b935050602084013567ffffffffffffffff811115611998576119976118b0565b5b6119a4868287016118fa565b92509250509250925092565b6000601f19601f8301169050919050565b7f4e487b7100000000000000000000000000000000000000000000000000000000600052604160045260246000fd5b6119f9826119b0565b810181811067ffffffffffffffff82111715611a1857611a176119c1565b5b80604052505050565b6000611a2b6118a1565b9050611a3782826119f0565b919050565b600067ffffffffffffffff821115611a5757611a566119c1565b5b602082029050602081019050919050565b600080fd5b600067ffffffffffffffff821115611a8857611a876119c1565b5b611a91826119b0565b9050602081019050919050565b82818337600083830152505050565b6000611ac0611abb84611a6d565b611a21565b905082815260208101848484011115611adc57611adb611a68565b5b611ae7848285611a9e565b509392505050565b600082601f830112611b0457611b036118eb565b5b8135611b14848260208601611aad565b91505092915050565b6000611b30611b2b84611a3c565b611a21565b90508083825260208201905060208402830185811115611b5357611b526118f5565b5b835b81811015611b9a57803567ffffffffffffffff811115611b7857611b776118eb565b5b808601611b858982611aef565b85526020850194505050602081019050611b55565b5050509392505050565b600082601f830112611bb957611bb86118eb565b5b8135611bc9848260208601611b1d565b91505092915050565b600080600060608486031215611beb57611bea6118ab565b5b6000611bf9868287016118d6565b935050602084013567ffffffffffffffff811115611c1a57611c196118b0565b5b611c2686828701611ba4565b9250506040611c37868287016118d6565b9150509250925092565b600060208284031215611c5757611c566118ab565b5b6000611c65848285016118d6565b91505092915050565b611c77816118b5565b82525050565b6000602082019050611c926000830184611c6e565b92915050565b600081519050919050565b600082825260208201905092915050565b6000819050602082019050919050565b600081519050919050565b600082825260208201905092915050565b60005b83811015611cfe578082015181840152602081019050611ce3565b60008484015250505050565b6000611d1582611cc4565b611d1f8185611ccf565b9350611d2f818560208601611ce0565b611d38816119b0565b840191505092915050565b6000611d4f8383611d0a565b905092915050565b6000602082019050919050565b6000611d6f82611c98565b611d798185611ca3565b935083602082028501611d8b85611cb4565b8060005b85811015611dc75784840389528151611da88582611d43565b9450611db383611d57565b925060208a01995050600181019050611d8f565b50829750879550505050505092915050565b60006020820190508181036000830152611df38184611d64565b905092915050565b600082825260208201905092915050565b6000611e1782611cc4565b611e218185611dfb565b9350611e31818560208601611ce0565b611e3a816119b0565b840191505092915050565b60006020820190508181036000830152611e5f8184611e0c565b905092915050565b60008115159050919050565b611e7c81611e67565b82525050565b6000602082019050611e976000830184611e73565b92915050565b60008060408385031215611eb457611eb36118ab565b5b6000611ec2858286016118d6565b925050602083013567ffffffffffffffff811115611ee357611ee26118b0565b5b611eef85828601611aef565b9150509250929050565b600073ffffffffffffffffffffffffffffffffffffffff82169050919050565b6000611f2482611ef9565b9050919050565b611f3481611f19565b8114611f3f57600080fd5b50565b600081359050611f5181611f2b565b92915050565b60008060408385031215611f6e57611f6d6118ab565b5b6000611f7c85828601611f42565b9250506020611f8d858286016118d6565b9150509250929050565b6000604082019050611fac6000830185611c6e565b611fb96020830184611c6e565b9392505050565b611fc981611f19565b82525050565b6000602082019050611fe46000830184611fc0565b92915050565b600081905092915050565b60006120018385611fea565b935061200e838584611a9e565b82840190509392505050565b6000612027828486611ff5565b91508190509392505050565b7f4e487b7100000000000000000000000000000000000000000000000000000000600052601160045260246000fd5b600061206d826118b5565b91507fffffffffffffffffffffffffffffffffffffffffffffffffffffffffffffffff820361209f5761209e612033565b5b600182019050919050565b7f4e487b7100000000000000000000000000000000000000000000000000000000600052603260045260246000fd5b7f4e487b7100000000000000000000000000000000000000000000000000000000600052602260045260246000fd5b6000600282049050600182168061212057607f821691505b602082108103612133576121326120d9565b5b50919050565b600061214482611cc4565b61214e8185611fea565b935061215e818560208601611ce0565b80840191505092915050565b60006121768284612139565b915081905092915050565b60008190508160005260206000209050919050565b60006020601f8301049050919050565b600082821b905092915050565b6000600883026121e37fffffffffffffffffffffffffffffffffffffffffffffffffffffffffffffffff826121a6565b6121ed86836121a6565b95508019841693508086168417925050509392505050565b6000819050919050565b600061222a612225612220846118b5565b612205565b6118b5565b9050919050565b6000819050919050565b6122448361220f565b61225861225082612231565b8484546121b3565b825550505050565b600090565b61226d612260565b61227881848461223b565b505050565b5b8181101561229c57612291600082612265565b60018101905061227e565b5050565b601f8211156122e1576122b281612181565b6122bb84612196565b810160208510156122ca578190505b6122de6122d685612196565b83018261227d565b50505b505050565b600082821c905092915050565b6000612304600019846008026122e6565b1980831691505092915050565b600061231d83836122f3565b9150826002028217905092915050565b61233682611cc4565b67ffffffffffffffff81111561234f5761234e6119c1565b5b6123598254612108565b6123648282856122a0565b600060209050601f8311600181146123975760008415612385578287015190505b61238f8582612311565b8655506123f7565b601f1984166123a586612181565b60005b828110156123cd578489015182556001820191506020850194506020810190506123a8565b868310156123ea57848901516123e6601f8916826122f3565b8355505b6001600288020188555050505b505050505050565b600061240a826118b5565b9150612415836118b5565b925082820390508181111561242d5761242c612033565b5b92915050565b6000604082019050818103600083015261244d8185611e0c565b905081810360208301526124618184611e0c565b9050939250505056fea2646970667358221220abe058314c6137a7ba778730afa75a4910c61fccb53125dd9a163ba6a9ea848964736f6c63430008120033",
  "linkReferences": {},
  "deployedLinkReferences": {}
}