{
  "_format": "hh-sol-artifact-1",
  "contractName": "SimpleStorage",
  "sourceName": "contracts/SimpleStorage.sol",
  "abi": [
    {
      "inputs": [
        {
          "internalType": "string",
          "name": "_name",
          "type": "string"
        },
        {
          "internalType": "uint256",
          "name": "_favoriteNumber",
          "type": "uint256"
        }
      ],
      "name": "addPerson",
      "outputs": [],
      "stateMutability": "nonpayable",
      "type": "function"
    },
    {
      "inputs": [],
      "name": "getLength",
      "outputs": [
        {
          "internalType": "uint256",
          "name": "",
          "type": "uint256"
        }
      ],
      "stateMutability": "view",
      "type": "function"
    },
    {
      "inputs": [
        {
          "internalType": "string",
          "name": "",
          "type": "string"
        }
      ],
      "name": "nameToFavoriteNumber",
      "outputs": [
        {
          "internalType": "uint256",
          "name": "",
          "type": "uint256"
        }
      ],
      "stateMutability": "view",
      "type": "function"
    },
    {
      "inputs": [
        {
          "internalType": "uint256",
          "name": "",
          "type": "uint256"
        }
      ],
      "name": "people",
      "outputs": [
        {
          "internalType": "uint256",
          "name": "favoriteNumber",
          "type": "uint256"
        },
        {
          "internalType": "string",
          "name": "name",
          "type": "string"
        }
      ],
      "stateMutability": "view",
      "type": "function"
    },
    {
      "inputs": [],
      "name": "retrieve",
      "outputs": [
        {
          "internalType": "uint256",
          "name": "",
          "type": "uint256"
        }
      ],
      "stateMutability": "view",
      "type": "function"
    },
    {
      "inputs": [
        {
          "internalType": "uint256",
          "name": "_index",
          "type": "uint256"
        }
      ],
      "name": "retrievenumber",
      "outputs": [
        {
          "internalType": "uint256",
          "name": "",
          "type": "uint256"
        }
      ],
      "stateMutability": "view",
      "type": "function"
    },
    {
      "inputs": [
        {
          "internalType": "uint256",
          "name": "_index",
          "type": "uint256"
        }
      ],
      "name": "retrieveperson",
      "outputs": [
        {
          "internalType": "string",
          "name": "",
          "type": "string"
        }
      ],
      "stateMutability": "view",
      "type": "function"
    },
    {
      "inputs": [
        {
          "internalType": "uint256",
          "name": "_favoriteNumber",
          "type": "uint256"
        }
      ],
      "name": "store",
      "outputs": [],
      "stateMutability": "nonpayable",
      "type": "function"
    }
  ],
  "bytecode": "0x608060405234801561001057600080fd5b50610cf6806100206000396000f3fe608060405234801561001057600080fd5b50600436106100885760003560e01c80638bab8dd51161005b5780638bab8dd5146101135780639e7a13ad14610143578063a6eafdfb14610174578063be1c766b146101a457610088565b80632e64cec11461008d5780636057361d146100ab5780636f760f41146100c75780638377e7b2146100e3575b600080fd5b6100956101c2565b6040516100a2919061061c565b60405180910390f35b6100c560048036038101906100c09190610677565b610208565b005b6100e160048036038101906100dc91906107ea565b61023a565b005b6100fd60048036038101906100f89190610677565b610313565b60405161010a919061061c565b60405180910390f35b61012d60048036038101906101289190610846565b6103ac565b60405161013a919061061c565b60405180910390f35b61015d60048036038101906101589190610677565b6103da565b60405161016b92919061090e565b60405180910390f35b61018e60048036038101906101899190610677565b610496565b60405161019b919061093e565b60405180910390f35b6101ac6105b7565b6040516101b9919061061c565b60405180910390f35b60006101d8677dce6232d3a6a27460c01b610600565b6101ec6709c21bfa84778a4760c01b610600565b610200677a820d9fd6200db560c01b610600565b600054905090565b61021c67c1ec393eef61492e60c01b610600565b6102306787eb47609f98961460c01b610600565b8060008190555050565b61024e67b25976e52fe68e8b60c01b610600565b610262672a070ba594f193d460c01b610600565b610276670fd9d8bbc1ca709f60c01b610600565b600160405180604001604052808381526020018481525090806001815401808255809150506001900390600052602060002090600202016000909190919091506000820151816000015560208201518160010190816102d59190610b6c565b5050506102ec67eb5228880eb2c7e860c01b610600565b806002836040516102fd9190610c7a565b9081526020016040518091039020819055505050565b600061032967e5d8a70e5b6ca7cd60c01b610600565b61033d67a47f20b13aa0b06b60c01b610600565b61035167362929a129ef7d9160c01b610600565b60006001838154811061036757610366610c91565b5b906000526020600020906002020160000154905061038f679932b276a415842e60c01b610600565b6103a3677293b70dd71b6a4460c01b610600565b80915050919050565b6002818051602081018201805184825260208301602085012081835280955050505050506000915090505481565b600181815481106103ea57600080fd5b90600052602060002090600202016000915090508060000154908060010180546104139061098f565b80601f016020809104026020016040519081016040528092919081815260200182805461043f9061098f565b801561048c5780601f106104615761010080835404028352916020019161048c565b820191906000526020600020905b81548152906001019060200180831161046f57829003601f168201915b5050505050905082565b60606104ac67a26c2c6b6af6ddcf60c01b610600565b6104c067b1b3903d6d418b3b60c01b610600565b6104d4671147a52b2ea7d56360c01b610600565b6000600183815481106104ea576104e9610c91565b5b906000526020600020906002020160010180546105069061098f565b80601f01602080910402602001604051908101604052809291908181526020018280546105329061098f565b801561057f5780601f106105545761010080835404028352916020019161057f565b820191906000526020600020905b81548152906001019060200180831161056257829003601f168201915b5050505050905061059a6741757fa4d50ad5f360c01b610600565b6105ae67dc9886519dc6511660c01b610600565b80915050919050565b60006105cd673d8f73d9aa4c75cc60c01b610600565b6105e167499bb5d0e22b2f8960c01b610600565b6105f5676f7411d4933b382660c01b610600565b600180549050905090565b50565b6000819050919050565b61061681610603565b82525050565b6000602082019050610631600083018461060d565b92915050565b6000604051905090565b600080fd5b600080fd5b61065481610603565b811461065f57600080fd5b50565b6000813590506106718161064b565b92915050565b60006020828403121561068d5761068c610641565b5b600061069b84828501610662565b91505092915050565b600080fd5b600080fd5b6000601f19601f8301169050919050565b7f4e487b7100000000000000000000000000000000000000000000000000000000600052604160045260246000fd5b6106f7826106ae565b810181811067ffffffffffffffff82111715610716576107156106bf565b5b80604052505050565b6000610729610637565b905061073582826106ee565b919050565b600067ffffffffffffffff821115610755576107546106bf565b5b61075e826106ae565b9050602081019050919050565b82818337600083830152505050565b600061078d6107888461073a565b61071f565b9050828152602081018484840111156107a9576107a86106a9565b5b6107b484828561076b565b509392505050565b600082601f8301126107d1576107d06106a4565b5b81356107e184826020860161077a565b91505092915050565b6000806040838503121561080157610800610641565b5b600083013567ffffffffffffffff81111561081f5761081e610646565b5b61082b858286016107bc565b925050602061083c85828601610662565b9150509250929050565b60006020828403121561085c5761085b610641565b5b600082013567ffffffffffffffff81111561087a57610879610646565b5b610886848285016107bc565b91505092915050565b600081519050919050565b600082825260208201905092915050565b60005b838110156108c95780820151818401526020810190506108ae565b60008484015250505050565b60006108e08261088f565b6108ea818561089a565b93506108fa8185602086016108ab565b610903816106ae565b840191505092915050565b6000604082019050610923600083018561060d565b818103602083015261093581846108d5565b90509392505050565b6000602082019050818103600083015261095881846108d5565b905092915050565b7f4e487b7100000000000000000000000000000000000000000000000000000000600052602260045260246000fd5b600060028204905060018216806109a757607f821691505b6020821081036109ba576109b9610960565b5b50919050565b60008190508160005260206000209050919050565b60006020601f8301049050919050565b600082821b905092915050565b600060088302610a227fffffffffffffffffffffffffffffffffffffffffffffffffffffffffffffffff826109e5565b610a2c86836109e5565b95508019841693508086168417925050509392505050565b6000819050919050565b6000610a69610a64610a5f84610603565b610a44565b610603565b9050919050565b6000819050919050565b610a8383610a4e565b610a97610a8f82610a70565b8484546109f2565b825550505050565b600090565b610aac610a9f565b610ab7818484610a7a565b505050565b5b81811015610adb57610ad0600082610aa4565b600181019050610abd565b5050565b601f821115610b2057610af1816109c0565b610afa846109d5565b81016020851015610b09578190505b610b1d610b15856109d5565b830182610abc565b50505b505050565b600082821c905092915050565b6000610b4360001984600802610b25565b1980831691505092915050565b6000610b5c8383610b32565b9150826002028217905092915050565b610b758261088f565b67ffffffffffffffff811115610b8e57610b8d6106bf565b5b610b98825461098f565b610ba3828285610adf565b600060209050601f831160018114610bd65760008415610bc4578287015190505b610bce8582610b50565b865550610c36565b601f198416610be4866109c0565b60005b82811015610c0c57848901518255600182019150602085019450602081019050610be7565b86831015610c295784890151610c25601f891682610b32565b8355505b6001600288020188555050505b505050505050565b600081905092915050565b6000610c548261088f565b610c5e8185610c3e565b9350610c6e8185602086016108ab565b80840191505092915050565b6000610c868284610c49565b915081905092915050565b7f4e487b7100000000000000000000000000000000000000000000000000000000600052603260045260246000fdfea264697066735822122043639864f6c3b9b4efb090359734d3c4708ec1f45b655116346f1a8e5b672afd64736f6c63430008120033",
  "linkReferences": {},
  "deployedLinkReferences": {}
}