{
  "_format": "hh-sol-artifact-1",
  "contractName": "Auction",
  "sourceName": "contracts/Auction.sol",
  "abi": [
    {
      "inputs": [
        {
          "internalType": "uint256",
          "name": "durationInSeconds",
          "type": "uint256"
        }
      ],
      "stateMutability": "nonpayable",
      "type": "constructor"
    },
    {
      "anonymous": false,
      "inputs": [
        {
          "indexed": false,
          "internalType": "address",
          "name": "winner",
          "type": "address"
        },
        {
          "indexed": false,
          "internalType": "uint256",
          "name": "amount",
          "type": "uint256"
        }
      ],
      "name": "AuctionEnded",
      "type": "event"
    },
    {
      "anonymous": false,
      "inputs": [
        {
          "indexed": true,
          "internalType": "address",
          "name": "bidder",
          "type": "address"
        },
        {
          "indexed": false,
          "internalType": "uint256",
          "name": "amount",
          "type": "uint256"
        }
      ],
      "name": "BidPlaced",
      "type": "event"
    },
    {
      "inputs": [],
      "name": "auctioneer",
      "outputs": [
        {
          "internalType": "address",
          "name": "",
          "type": "address"
        }
      ],
      "stateMutability": "view",
      "type": "function"
    },
    {
      "inputs": [
        {
          "internalType": "address",
          "name": "",
          "type": "address"
        }
      ],
      "name": "bids",
      "outputs": [
        {
          "internalType": "uint256",
          "name": "",
          "type": "uint256"
        }
      ],
      "stateMutability": "view",
      "type": "function"
    },
    {
      "inputs": [],
      "name": "endAuction",
      "outputs": [],
      "stateMutability": "nonpayable",
      "type": "function"
    },
    {
      "inputs": [],
      "name": "endTime",
      "outputs": [
        {
          "internalType": "uint256",
          "name": "",
          "type": "uint256"
        }
      ],
      "stateMutability": "view",
      "type": "function"
    },
    {
      "inputs": [],
      "name": "highestBid",
      "outputs": [
        {
          "internalType": "uint256",
          "name": "",
          "type": "uint256"
        }
      ],
      "stateMutability": "view",
      "type": "function"
    },
    {
      "inputs": [],
      "name": "highestBidder",
      "outputs": [
        {
          "internalType": "address",
          "name": "",
          "type": "address"
        }
      ],
      "stateMutability": "view",
      "type": "function"
    },
    {
      "inputs": [],
      "name": "placeBid",
      "outputs": [],
      "stateMutability": "payable",
      "type": "function"
    }
  ],
  "bytecode": "0x60806040523480156200001157600080fd5b5060405162000fd938038062000fd9833981810160405281019062000037919062000129565b620000536794c246c446d380fb60c01b620000e660201b60201c565b6200006f67d4df05d504ddb29a60c01b620000e660201b60201c565b336000806101000a81548173ffffffffffffffffffffffffffffffffffffffff021916908373ffffffffffffffffffffffffffffffffffffffff160217905550620000cb67317593e6e67efffa60c01b620000e660201b60201c565b8042620000d991906200018a565b60018190555050620001c5565b50565b600080fd5b6000819050919050565b6200010381620000ee565b81146200010f57600080fd5b50565b6000815190506200012381620000f8565b92915050565b600060208284031215620001425762000141620000e9565b5b6000620001528482850162000112565b91505092915050565b7f4e487b7100000000000000000000000000000000000000000000000000000000600052601160045260246000fd5b60006200019782620000ee565b9150620001a483620000ee565b9250828201905080821115620001bf57620001be6200015b565b5b92915050565b610e0480620001d56000396000f3fe6080604052600436106100705760003560e01c806391f901571161004e57806391f9015714610108578063d57bde7914610133578063ecfc7ecc1461015e578063fe67a54b1461016857610070565b80633197cbb6146100755780635ec2c7bf146100a057806362ea82db146100cb575b600080fd5b34801561008157600080fd5b5061008a61017f565b6040516100979190610a31565b60405180910390f35b3480156100ac57600080fd5b506100b5610185565b6040516100c29190610a8d565b60405180910390f35b3480156100d757600080fd5b506100f260048036038101906100ed9190610ad9565b6101a9565b6040516100ff9190610a31565b60405180910390f35b34801561011457600080fd5b5061011d6101c1565b60405161012a9190610a8d565b60405180910390f35b34801561013f57600080fd5b506101486101e7565b6040516101559190610a31565b60405180910390f35b6101666101ed565b005b34801561017457600080fd5b5061017d6106d8565b005b60015481565b60008054906101000a900473ffffffffffffffffffffffffffffffffffffffff1681565b60046020528060005260406000206000915090505481565b600360009054906101000a900473ffffffffffffffffffffffffffffffffffffffff1681565b60025481565b610201672bee4a858838a70760c01b610a15565b6102156758fee9fc8bfdc87160c01b610a15565b6102296714928e8ed721555660c01b610a15565b61023d67426863e5b7bcc3f260c01b610a15565b6102516704fb322fcce5fb3c60c01b610a15565b6001544210610295576040517f08c379a000000000000000000000000000000000000000000000000000000000815260040161028c90610b63565b60405180910390fd5b6102a9671ae0e2883e94b24760c01b610a15565b6102bd674f3c03daf120ca8560c01b610a15565b6102d16723b023c20224376c60c01b610a15565b6102e567e34723badb7c933f60c01b610a15565b6102f9674d2aca0762efd42860c01b610a15565b61030d67969d5143c65dcad560c01b610a15565b6103216728a0eeecb1fc222260c01b610a15565b6002543411610365576040517f08c379a000000000000000000000000000000000000000000000000000000000815260040161035c90610bf5565b60405180910390fd5b610379674fb082f708d4456c60c01b610a15565b61038d675e7f99544dafd7e960c01b610a15565b6103a167ec5d3d2f4f00b7a560c01b610a15565b6103b5673457482577d8941060c01b610a15565b600360009054906101000a900473ffffffffffffffffffffffffffffffffffffffff1673ffffffffffffffffffffffffffffffffffffffff163373ffffffffffffffffffffffffffffffffffffffff1603610445576040517f08c379a000000000000000000000000000000000000000000000000000000000815260040161043c90610c87565b60405180910390fd5b61045967b2b89924325a927360c01b610a15565b61046d67d350d38eea9c8d1a60c01b610a15565b610481679f993a329b5199bf60c01b610a15565b600073ffffffffffffffffffffffffffffffffffffffff16600360009054906101000a900473ffffffffffffffffffffffffffffffffffffffff1673ffffffffffffffffffffffffffffffffffffffff1614610583576104eb6719678af158f8991560c01b610a15565b6104ff67a2ed0bf4da26ed1860c01b610a15565b61051367a683efe745bd461760c01b610a15565b600360009054906101000a900473ffffffffffffffffffffffffffffffffffffffff1673ffffffffffffffffffffffffffffffffffffffff166108fc6002549081150290604051600060405180830381858888f1935050505015801561057d573d6000803e3d6000fd5b50610598565b61059767c07bb0d810c9808b60c01b610a15565b5b6105ac671c3bf6a1e66efc4b60c01b610a15565b346002819055506105c767a469c861fa1e542760c01b610a15565b33600360006101000a81548173ffffffffffffffffffffffffffffffffffffffff021916908373ffffffffffffffffffffffffffffffffffffffff16021790555061061c6743d77b7baf60bddd60c01b610a15565b34600460003373ffffffffffffffffffffffffffffffffffffffff1673ffffffffffffffffffffffffffffffffffffffff1681526020019081526020016000208190555061067467418f4b269572014260c01b610a15565b61068867b34b2bf016525f1e60c01b610a15565b3373ffffffffffffffffffffffffffffffffffffffff167f3fabff0a9c3ecd6814702e247fa9733e5d0aa69e3a38590f92cb18f623a2254d346040516106ce9190610a31565b60405180910390a2565b6106ec6771edfe1a56cfe82d60c01b610a15565b6107006788c0921c22d2ecba60c01b610a15565b610714672e51682954d76fa960c01b610a15565b61072867298985b433e77baa60c01b610a15565b61073c6708205f6fa28b31a460c01b610a15565b60008054906101000a900473ffffffffffffffffffffffffffffffffffffffff1673ffffffffffffffffffffffffffffffffffffffff163373ffffffffffffffffffffffffffffffffffffffff16146107ca576040517f08c379a00000000000000000000000000000000000000000000000000000000081526004016107c190610d19565b60405180910390fd5b6107de67e0ae208c583f028560c01b610a15565b6107f267380417b2566cac5560c01b610a15565b61080667c194b82f0ce364cc60c01b610a15565b61081a670e13339b5d3c9eef60c01b610a15565b61082e671d0a7d7d4753710060c01b610a15565b6108426728e834f990a3b27e60c01b610a15565b6108566720849e5b188b963f60c01b610a15565b61086a67a783428210be565f60c01b610a15565b6001544210156108af576040517f08c379a00000000000000000000000000000000000000000000000000000000081526004016108a690610d85565b60405180910390fd5b6108c367cbb6d4bf45b7fa9360c01b610a15565b6108d7678a83da2ba62d773860c01b610a15565b6108eb6759807d7da6e83d3760c01b610a15565b6108ff67818e68d3e3b2ce9d60c01b610a15565b61091367a1996e515d17b3c360c01b610a15565b61092767d7670513f58f5ff960c01b610a15565b60008054906101000a900473ffffffffffffffffffffffffffffffffffffffff1673ffffffffffffffffffffffffffffffffffffffff166108fc479081150290604051600060405180830381858888f1935050505015801561098d573d6000803e3d6000fd5b506109a267c24bc284467a1e1b60c01b610a15565b6109b66753ada1242571009560c01b610a15565b7fdaec4582d5d9595688c8c98545fdd1c696d41c6aeaeb636737e84ed2f5c00eda600360009054906101000a900473ffffffffffffffffffffffffffffffffffffffff16600254604051610a0b929190610da5565b60405180910390a1565b50565b6000819050919050565b610a2b81610a18565b82525050565b6000602082019050610a466000830184610a22565b92915050565b600073ffffffffffffffffffffffffffffffffffffffff82169050919050565b6000610a7782610a4c565b9050919050565b610a8781610a6c565b82525050565b6000602082019050610aa26000830184610a7e565b92915050565b600080fd5b610ab681610a6c565b8114610ac157600080fd5b50565b600081359050610ad381610aad565b92915050565b600060208284031215610aef57610aee610aa8565b5b6000610afd84828501610ac4565b91505092915050565b600082825260208201905092915050565b7f41756374696f6e2068617320656e646564000000000000000000000000000000600082015250565b6000610b4d601183610b06565b9150610b5882610b17565b602082019050919050565b60006020820190508181036000830152610b7c81610b40565b9050919050565b7f42696420616d6f756e74206d75737420626520686967686572207468616e206360008201527f757272656e742068696768657374206269640000000000000000000000000000602082015250565b6000610bdf603283610b06565b9150610bea82610b83565b604082019050919050565b60006020820190508181036000830152610c0e81610bd2565b9050919050565b7f596f752061726520616c7265616479207468652068696768657374206269646460008201527f6572000000000000000000000000000000000000000000000000000000000000602082015250565b6000610c71602283610b06565b9150610c7c82610c15565b604082019050919050565b60006020820190508181036000830152610ca081610c64565b9050919050565b7f4f6e6c792061756374696f6e6565722063616e2063616c6c207468697320667560008201527f6e6374696f6e0000000000000000000000000000000000000000000000000000602082015250565b6000610d03602683610b06565b9150610d0e82610ca7565b604082019050919050565b60006020820190508181036000830152610d3281610cf6565b9050919050565b7f41756374696f6e20686173206e6f7420656e6465640000000000000000000000600082015250565b6000610d6f601583610b06565b9150610d7a82610d39565b602082019050919050565b60006020820190508181036000830152610d9e81610d62565b9050919050565b6000604082019050610dba6000830185610a7e565b610dc76020830184610a22565b939250505056fea2646970667358221220d01f13a000f1e4782a3e648d4f517c2c8e4fbb09e3bee0c1146d1c0919a9122364736f6c63430008120033",
  "linkReferences": {},
  "deployedLinkReferences": {}
}